{
  "_format": "hh-sol-artifact-1",
  "contractName": "IPPYNFT",
  "sourceName": "contracts/IPPYNFT.sol",
  "abi": [
    {
      "inputs": [],
      "stateMutability": "nonpayable",
      "type": "constructor"
    },
    {
      "inputs": [],
      "name": "ERC721EnumerableForbiddenBatchMint",
      "type": "error"
    },
    {
      "inputs": [
        {
          "internalType": "address",
          "name": "sender",
          "type": "address"
        },
        {
          "internalType": "uint256",
          "name": "tokenId",
          "type": "uint256"
        },
        {
          "internalType": "address",
          "name": "owner",
          "type": "address"
        }
      ],
      "name": "ERC721IncorrectOwner",
      "type": "error"
    },
    {
      "inputs": [
        {
          "internalType": "address",
          "name": "operator",
          "type": "address"
        },
        {
          "internalType": "uint256",
          "name": "tokenId",
          "type": "uint256"
        }
      ],
      "name": "ERC721InsufficientApproval",
      "type": "error"
    },
    {
      "inputs": [
        {
          "internalType": "address",
          "name": "approver",
          "type": "address"
        }
      ],
      "name": "ERC721InvalidApprover",
      "type": "error"
    },
    {
      "inputs": [
        {
          "internalType": "address",
          "name": "operator",
          "type": "address"
        }
      ],
      "name": "ERC721InvalidOperator",
      "type": "error"
    },
    {
      "inputs": [
        {
          "internalType": "address",
          "name": "owner",
          "type": "address"
        }
      ],
      "name": "ERC721InvalidOwner",
      "type": "error"
    },
    {
      "inputs": [
        {
          "internalType": "address",
          "name": "receiver",
          "type": "address"
        }
      ],
      "name": "ERC721InvalidReceiver",
      "type": "error"
    },
    {
      "inputs": [
        {
          "internalType": "address",
          "name": "sender",
          "type": "address"
        }
      ],
      "name": "ERC721InvalidSender",
      "type": "error"
    },
    {
      "inputs": [
        {
          "internalType": "uint256",
          "name": "tokenId",
          "type": "uint256"
        }
      ],
      "name": "ERC721NonexistentToken",
      "type": "error"
    },
    {
      "inputs": [
        {
          "internalType": "address",
          "name": "owner",
          "type": "address"
        },
        {
          "internalType": "uint256",
          "name": "index",
          "type": "uint256"
        }
      ],
      "name": "ERC721OutOfBoundsIndex",
      "type": "error"
    },
    {
      "inputs": [
        {
          "internalType": "address",
          "name": "owner",
          "type": "address"
        }
      ],
      "name": "OwnableInvalidOwner",
      "type": "error"
    },
    {
      "inputs": [
        {
          "internalType": "address",
          "name": "account",
          "type": "address"
        }
      ],
      "name": "OwnableUnauthorizedAccount",
      "type": "error"
    },
    {
      "anonymous": false,
      "inputs": [
        {
          "indexed": true,
          "internalType": "address",
          "name": "owner",
          "type": "address"
        },
        {
          "indexed": true,
          "internalType": "address",
          "name": "approved",
          "type": "address"
        },
        {
          "indexed": true,
          "internalType": "uint256",
          "name": "tokenId",
          "type": "uint256"
        }
      ],
      "name": "Approval",
      "type": "event"
    },
    {
      "anonymous": false,
      "inputs": [
        {
          "indexed": true,
          "internalType": "address",
          "name": "owner",
          "type": "address"
        },
        {
          "indexed": true,
          "internalType": "address",
          "name": "operator",
          "type": "address"
        },
        {
          "indexed": false,
          "internalType": "bool",
          "name": "approved",
          "type": "bool"
        }
      ],
      "name": "ApprovalForAll",
      "type": "event"
    },
    {
      "anonymous": false,
      "inputs": [
        {
          "indexed": true,
          "internalType": "uint256",
          "name": "nftType",
          "type": "uint256"
        },
        {
          "indexed": false,
          "internalType": "string",
          "name": "newURI",
          "type": "string"
        }
      ],
      "name": "BaseURIUpdated",
      "type": "event"
    },
    {
      "anonymous": false,
      "inputs": [
        {
          "indexed": false,
          "internalType": "string",
          "name": "newURI",
          "type": "string"
        }
      ],
      "name": "DefaultBaseURIUpdated",
      "type": "event"
    },
    {
      "anonymous": false,
      "inputs": [
        {
          "indexed": true,
          "internalType": "address",
          "name": "to",
          "type": "address"
        },
        {
          "indexed": true,
          "internalType": "uint256",
          "name": "tokenId",
          "type": "uint256"
        },
        {
          "indexed": true,
          "internalType": "uint256",
          "name": "nftType",
          "type": "uint256"
        },
        {
          "indexed": false,
          "internalType": "bool",
          "name": "isHidden",
          "type": "bool"
        }
      ],
      "name": "NFTMinted",
      "type": "event"
    },
    {
      "anonymous": false,
      "inputs": [
        {
          "indexed": true,
          "internalType": "address",
          "name": "previousOwner",
          "type": "address"
        },
        {
          "indexed": true,
          "internalType": "address",
          "name": "newOwner",
          "type": "address"
        }
      ],
      "name": "OwnershipTransferred",
      "type": "event"
    },
    {
      "anonymous": false,
      "inputs": [
        {
          "indexed": true,
          "internalType": "address",
          "name": "from",
          "type": "address"
        },
        {
          "indexed": true,
          "internalType": "address",
          "name": "to",
          "type": "address"
        },
        {
          "indexed": true,
          "internalType": "uint256",
          "name": "tokenId",
          "type": "uint256"
        }
      ],
      "name": "Transfer",
      "type": "event"
    },
    {
      "inputs": [],
      "name": "HIDDEN_NFT_ID",
      "outputs": [
        {
          "internalType": "uint256",
          "name": "",
          "type": "uint256"
        }
      ],
      "stateMutability": "view",
      "type": "function"
    },
    {
      "inputs": [],
      "name": "STANDARD_NFT_1",
      "outputs": [
        {
          "internalType": "uint256",
          "name": "",
          "type": "uint256"
        }
      ],
      "stateMutability": "view",
      "type": "function"
    },
    {
      "inputs": [],
      "name": "STANDARD_NFT_2",
      "outputs": [
        {
          "internalType": "uint256",
          "name": "",
          "type": "uint256"
        }
      ],
      "stateMutability": "view",
      "type": "function"
    },
    {
      "inputs": [],
      "name": "STANDARD_NFT_3",
      "outputs": [
        {
          "internalType": "uint256",
          "name": "",
          "type": "uint256"
        }
      ],
      "stateMutability": "view",
      "type": "function"
    },
    {
      "inputs": [],
      "name": "STANDARD_NFT_4",
      "outputs": [
        {
          "internalType": "uint256",
          "name": "",
          "type": "uint256"
        }
      ],
      "stateMutability": "view",
      "type": "function"
    },
    {
      "inputs": [],
      "name": "STANDARD_NFT_5",
      "outputs": [
        {
          "internalType": "uint256",
          "name": "",
          "type": "uint256"
        }
      ],
      "stateMutability": "view",
      "type": "function"
    },
    {
      "inputs": [],
      "name": "STANDARD_NFT_6",
      "outputs": [
        {
          "internalType": "uint256",
          "name": "",
          "type": "uint256"
        }
      ],
      "stateMutability": "view",
      "type": "function"
    },
    {
      "inputs": [
        {
          "internalType": "address",
          "name": "to",
          "type": "address"
        },
        {
          "internalType": "uint256",
          "name": "tokenId",
          "type": "uint256"
        }
      ],
      "name": "approve",
      "outputs": [],
      "stateMutability": "nonpayable",
      "type": "function"
    },
    {
      "inputs": [
        {
          "internalType": "address",
          "name": "owner",
          "type": "address"
        }
      ],
      "name": "balanceOf",
      "outputs": [
        {
          "internalType": "uint256",
          "name": "",
          "type": "uint256"
        }
      ],
      "stateMutability": "view",
      "type": "function"
    },
    {
      "inputs": [],
      "name": "blindBoxContract",
      "outputs": [
        {
          "internalType": "address",
          "name": "",
          "type": "address"
        }
      ],
      "stateMutability": "view",
      "type": "function"
    },
    {
      "inputs": [
        {
          "internalType": "uint256",
          "name": "tokenId",
          "type": "uint256"
        }
      ],
      "name": "getApproved",
      "outputs": [
        {
          "internalType": "address",
          "name": "",
          "type": "address"
        }
      ],
      "stateMutability": "view",
      "type": "function"
    },
    {
      "inputs": [],
      "name": "getGlobalNFTStats",
      "outputs": [
        {
          "internalType": "uint256[]",
          "name": "types",
          "type": "uint256[]"
        },
        {
          "internalType": "uint256[]",
          "name": "counts",
          "type": "uint256[]"
        },
        {
          "internalType": "string[]",
          "name": "typeNames",
          "type": "string[]"
        },
        {
          "internalType": "uint256",
          "name": "totalMinted",
          "type": "uint256"
        }
      ],
      "stateMutability": "view",
      "type": "function"
    },
    {
      "inputs": [
        {
          "internalType": "uint256",
          "name": "tokenId",
          "type": "uint256"
        }
      ],
      "name": "getNFTType",
      "outputs": [
        {
          "internalType": "uint256",
          "name": "",
          "type": "uint256"
        }
      ],
      "stateMutability": "view",
      "type": "function"
    },
    {
      "inputs": [
        {
          "internalType": "uint256",
          "name": "nftType",
          "type": "uint256"
        }
      ],
      "name": "getNFTTypeName",
      "outputs": [
        {
          "internalType": "string",
          "name": "",
          "type": "string"
        }
      ],
      "stateMutability": "pure",
      "type": "function"
    },
    {
      "inputs": [
        {
          "internalType": "address",
          "name": "user",
          "type": "address"
        }
      ],
      "name": "getUserNFTTypeCounts",
      "outputs": [
        {
          "internalType": "uint256[]",
          "name": "types",
          "type": "uint256[]"
        },
        {
          "internalType": "uint256[]",
          "name": "counts",
          "type": "uint256[]"
        },
        {
          "internalType": "string[]",
          "name": "typeNames",
          "type": "string[]"
        }
      ],
      "stateMutability": "view",
      "type": "function"
    },
    {
      "inputs": [
        {
          "internalType": "address",
          "name": "user",
          "type": "address"
        }
      ],
      "name": "getUserNFTs",
      "outputs": [
        {
          "internalType": "uint256[]",
          "name": "tokenIds",
          "type": "uint256[]"
        },
        {
          "internalType": "uint256[]",
          "name": "nftTypes",
          "type": "uint256[]"
        },
        {
          "internalType": "string[]",
          "name": "tokenURIs",
          "type": "string[]"
        },
        {
          "internalType": "string[]",
          "name": "typeNames",
          "type": "string[]"
        }
      ],
      "stateMutability": "view",
      "type": "function"
    },
    {
      "inputs": [
        {
          "internalType": "address",
          "name": "user",
          "type": "address"
        },
        {
          "internalType": "uint256",
          "name": "nftType",
          "type": "uint256"
        }
      ],
      "name": "getUserNFTsByType",
      "outputs": [
        {
          "internalType": "uint256[]",
          "name": "tokenIds",
          "type": "uint256[]"
        }
      ],
      "stateMutability": "view",
      "type": "function"
    },
    {
      "inputs": [
        {
          "internalType": "address",
          "name": "owner",
          "type": "address"
        },
        {
          "internalType": "address",
          "name": "operator",
          "type": "address"
        }
      ],
      "name": "isApprovedForAll",
      "outputs": [
        {
          "internalType": "bool",
          "name": "",
          "type": "bool"
        }
      ],
      "stateMutability": "view",
      "type": "function"
    },
    {
      "inputs": [
        {
          "internalType": "address",
          "name": "to",
          "type": "address"
        },
        {
          "internalType": "uint256",
          "name": "nftType",
          "type": "uint256"
        }
      ],
      "name": "mint",
      "outputs": [],
      "stateMutability": "nonpayable",
      "type": "function"
    },
    {
      "inputs": [],
      "name": "name",
      "outputs": [
        {
          "internalType": "string",
          "name": "",
          "type": "string"
        }
      ],
      "stateMutability": "view",
      "type": "function"
    },
    {
      "inputs": [
        {
          "internalType": "uint256",
          "name": "",
          "type": "uint256"
        }
      ],
      "name": "nftTypeBaseURIs",
      "outputs": [
        {
          "internalType": "string",
          "name": "",
          "type": "string"
        }
      ],
      "stateMutability": "view",
      "type": "function"
    },
    {
      "inputs": [
        {
          "internalType": "uint256",
          "name": "",
          "type": "uint256"
        }
      ],
      "name": "nftTypeCounts",
      "outputs": [
        {
          "internalType": "uint256",
          "name": "",
          "type": "uint256"
        }
      ],
      "stateMutability": "view",
      "type": "function"
    },
    {
      "inputs": [],
      "name": "owner",
      "outputs": [
        {
          "internalType": "address",
          "name": "",
          "type": "address"
        }
      ],
      "stateMutability": "view",
      "type": "function"
    },
    {
      "inputs": [
        {
          "internalType": "uint256",
          "name": "tokenId",
          "type": "uint256"
        }
      ],
      "name": "ownerOf",
      "outputs": [
        {
          "internalType": "address",
          "name": "",
          "type": "address"
        }
      ],
      "stateMutability": "view",
      "type": "function"
    },
    {
      "inputs": [],
      "name": "renounceOwnership",
      "outputs": [],
      "stateMutability": "nonpayable",
      "type": "function"
    },
    {
      "inputs": [
        {
          "internalType": "address",
          "name": "from",
          "type": "address"
        },
        {
          "internalType": "address",
          "name": "to",
          "type": "address"
        },
        {
          "internalType": "uint256",
          "name": "tokenId",
          "type": "uint256"
        }
      ],
      "name": "safeTransferFrom",
      "outputs": [],
      "stateMutability": "nonpayable",
      "type": "function"
    },
    {
      "inputs": [
        {
          "internalType": "address",
          "name": "from",
          "type": "address"
        },
        {
          "internalType": "address",
          "name": "to",
          "type": "address"
        },
        {
          "internalType": "uint256",
          "name": "tokenId",
          "type": "uint256"
        },
        {
          "internalType": "bytes",
          "name": "data",
          "type": "bytes"
        }
      ],
      "name": "safeTransferFrom",
      "outputs": [],
      "stateMutability": "nonpayable",
      "type": "function"
    },
    {
      "inputs": [
        {
          "internalType": "address",
          "name": "operator",
          "type": "address"
        },
        {
          "internalType": "bool",
          "name": "approved",
          "type": "bool"
        }
      ],
      "name": "setApprovalForAll",
      "outputs": [],
      "stateMutability": "nonpayable",
      "type": "function"
    },
    {
      "inputs": [
        {
          "internalType": "address",
          "name": "_blindBoxContract",
          "type": "address"
        }
      ],
      "name": "setBlindBoxContract",
      "outputs": [],
      "stateMutability": "nonpayable",
      "type": "function"
    },
    {
      "inputs": [
        {
          "internalType": "string",
          "name": "_baseURI",
          "type": "string"
        }
      ],
      "name": "setDefaultBaseURI",
      "outputs": [],
      "stateMutability": "nonpayable",
      "type": "function"
    },
    {
      "inputs": [
        {
          "internalType": "uint256",
          "name": "nftType",
          "type": "uint256"
        },
        {
          "internalType": "string",
          "name": "_baseURI",
          "type": "string"
        }
      ],
      "name": "setNFTTypeBaseURI",
      "outputs": [],
      "stateMutability": "nonpayable",
      "type": "function"
    },
    {
      "inputs": [
        {
          "internalType": "bytes4",
          "name": "interfaceId",
          "type": "bytes4"
        }
      ],
      "name": "supportsInterface",
      "outputs": [
        {
          "internalType": "bool",
          "name": "",
          "type": "bool"
        }
      ],
      "stateMutability": "view",
      "type": "function"
    },
    {
      "inputs": [],
      "name": "symbol",
      "outputs": [
        {
          "internalType": "string",
          "name": "",
          "type": "string"
        }
      ],
      "stateMutability": "view",
      "type": "function"
    },
    {
      "inputs": [
        {
          "internalType": "uint256",
          "name": "index",
          "type": "uint256"
        }
      ],
      "name": "tokenByIndex",
      "outputs": [
        {
          "internalType": "uint256",
          "name": "",
          "type": "uint256"
        }
      ],
      "stateMutability": "view",
      "type": "function"
    },
    {
      "inputs": [
        {
          "internalType": "uint256",
          "name": "",
          "type": "uint256"
        }
      ],
      "name": "tokenIdToNFTType",
      "outputs": [
        {
          "internalType": "uint256",
          "name": "",
          "type": "uint256"
        }
      ],
      "stateMutability": "view",
      "type": "function"
    },
    {
      "inputs": [
        {
          "internalType": "address",
          "name": "owner",
          "type": "address"
        },
        {
          "internalType": "uint256",
          "name": "index",
          "type": "uint256"
        }
      ],
      "name": "tokenOfOwnerByIndex",
      "outputs": [
        {
          "internalType": "uint256",
          "name": "",
          "type": "uint256"
        }
      ],
      "stateMutability": "view",
      "type": "function"
    },
    {
      "inputs": [
        {
          "internalType": "uint256",
          "name": "tokenId",
          "type": "uint256"
        }
      ],
      "name": "tokenURI",
      "outputs": [
        {
          "internalType": "string",
          "name": "",
          "type": "string"
        }
      ],
      "stateMutability": "view",
      "type": "function"
    },
    {
      "inputs": [],
      "name": "totalSupply",
      "outputs": [
        {
          "internalType": "uint256",
          "name": "",
          "type": "uint256"
        }
      ],
      "stateMutability": "view",
      "type": "function"
    },
    {
      "inputs": [
        {
          "internalType": "address",
          "name": "from",
          "type": "address"
        },
        {
          "internalType": "address",
          "name": "to",
          "type": "address"
        },
        {
          "internalType": "uint256",
          "name": "tokenId",
          "type": "uint256"
        }
      ],
      "name": "transferFrom",
      "outputs": [],
      "stateMutability": "nonpayable",
      "type": "function"
    },
    {
      "inputs": [
        {
          "internalType": "address",
          "name": "newOwner",
          "type": "address"
        }
      ],
      "name": "transferOwnership",
      "outputs": [],
      "stateMutability": "nonpayable",
      "type": "function"
    },
    {
      "inputs": [
        {
          "internalType": "address",
          "name": "",
          "type": "address"
        },
        {
          "internalType": "uint256",
          "name": "",
          "type": "uint256"
        }
      ],
      "name": "userNFTTypeCounts",
      "outputs": [
        {
          "internalType": "uint256",
          "name": "",
          "type": "uint256"
        }
      ],
      "stateMutability": "view",
      "type": "function"
    },
    {
      "inputs": [
        {
          "internalType": "address",
          "name": "user",
          "type": "address"
        }
      ],
      "name": "userOwnsHiddenNFT",
      "outputs": [
        {
          "internalType": "bool",
          "name": "",
          "type": "bool"
        }
      ],
      "stateMutability": "view",
      "type": "function"
    }
  ],
  "bytecode": "0x60806040526040518060a0016040528060718152602001614c0f60719139600e908161002b91906105fa565b5034801561003857600080fd5b50336040518060400160405280600781526020017f495050594e4654000000000000000000000000000000000000000000000000008152506040518060400160405280600481526020017f495050590000000000000000000000000000000000000000000000000000000081525081600090816100b591906105fa565b5080600190816100c591906105fa565b505050600073ffffffffffffffffffffffffffffffffffffffff168173ffffffffffffffffffffffffffffffffffffffff160361013a5760006040517f1e4fbdf7000000000000000000000000000000000000000000000000000000008152600401610131919061070d565b60405180910390fd5b610149816102e460201b60201c565b506040518060a00160405280607c8152602001614b93607c9139600d6000808152602001908152602001600020908161018291906105fa565b506040518060a00160405280607a8152602001614a9d607a9139600d60006001815260200190815260200160002090816101bc91906105fa565b506040518060a00160405280607b81526020016148af607b9139600d60006002815260200190815260200160002090816101f691906105fa565b506040518060a00160405280607c8152602001614b17607c9139600d600060038152602001908152602001600020908161023091906105fa565b506040518060a00160405280607c81526020016149a6607c9139600d600060048152602001908152602001600020908161026a91906105fa565b506040518060a00160405280607c815260200161492a607c9139600d60006005815260200190815260200160002090816102a491906105fa565b506040518060a00160405280607b8152602001614a22607b9139600d60006006815260200190815260200160002090816102de91906105fa565b50610728565b6000600a60009054906101000a900473ffffffffffffffffffffffffffffffffffffffff16905081600a60006101000a81548173ffffffffffffffffffffffffffffffffffffffff021916908373ffffffffffffffffffffffffffffffffffffffff1602179055508173ffffffffffffffffffffffffffffffffffffffff168173ffffffffffffffffffffffffffffffffffffffff167f8be0079c531659141344cd1fd0a4f28419497f9722a3daafe3b4186f6b6457e060405160405180910390a35050565b600081519050919050565b7f4e487b7100000000000000000000000000000000000000000000000000000000600052604160045260246000fd5b7f4e487b7100000000000000000000000000000000000000000000000000000000600052602260045260246000fd5b6000600282049050600182168061042b57607f821691505b60208210810361043e5761043d6103e4565b5b50919050565b60008190508160005260206000209050919050565b60006020601f8301049050919050565b600082821b905092915050565b6000600883026104a67fffffffffffffffffffffffffffffffffffffffffffffffffffffffffffffffff82610469565b6104b08683610469565b95508019841693508086168417925050509392505050565b6000819050919050565b6000819050919050565b60006104f76104f26104ed846104c8565b6104d2565b6104c8565b9050919050565b6000819050919050565b610511836104dc565b61052561051d826104fe565b848454610476565b825550505050565b600090565b61053a61052d565b610545818484610508565b505050565b5b818110156105695761055e600082610532565b60018101905061054b565b5050565b601f8211156105ae5761057f81610444565b61058884610459565b81016020851015610597578190505b6105ab6105a385610459565b83018261054a565b50505b505050565b600082821c905092915050565b60006105d1600019846008026105b3565b1980831691505092915050565b60006105ea83836105c0565b9150826002028217905092915050565b610603826103aa565b67ffffffffffffffff81111561061c5761061b6103b5565b5b6106268254610413565b61063182828561056d565b600060209050601f8311600181146106645760008415610652578287015190505b61065c85826105de565b8655506106c4565b601f19841661067286610444565b60005b8281101561069a57848901518255600182019150602085019450602081019050610675565b868310156106b757848901516106b3601f8916826105c0565b8355505b6001600288020188555050505b505050505050565b600073ffffffffffffffffffffffffffffffffffffffff82169050919050565b60006106f7826106cc565b9050919050565b610707816106ec565b82525050565b600060208201905061072260008301846106fe565b92915050565b614178806107376000396000f3fe608060405234801561001057600080fd5b506004361061025e5760003560e01c80636e3381a011610146578063c8559d82116100c3578063eeb87d1611610087578063eeb87d16146107af578063f1526a45146107cd578063f2fde38b146107eb578063fab46cd614610807578063fbc4454914610825578063fe90a5e3146108435761025e565b8063c8559d82146106bd578063c87b56dd146106ed578063cbbd5f9e1461071d578063e62b71461461074d578063e985e9c51461077f5761025e565b8063911045e61161010a578063911045e61461062d57806395d89b411461064b578063a22cb46514610669578063a23df13914610685578063b88d4fde146106a15761025e565b80636e3381a01461058757806370a08231146105b7578063715018a6146105e7578063752ead1f146105f15780638da5cb5b1461060f5761025e565b806332963a41116101df5780634f6ccce7116101a35780634f6ccce71461048a57806352de4ee5146104ba5780635cb960e3146104ed5780635d9008bf1461051d5780636352211e1461053b5780636e02cfc31461056b5761025e565b806332963a41146103e35780633cdbd25f1461040157806340c10f191461043157806342842e0e1461044d578063454b51b0146104695761025e565b8063095ea7b311610226578063095ea7b31461032d57806318160ddd146103495780631dbe40e71461036757806323b872dd146103975780632f745c59146103b35761025e565b80630126a9f11461026357806301e669721461029357806301ffc9a7146102af57806306fdde03146102df578063081812fc146102fd575b600080fd5b61027d600480360381019061027891906130b4565b610873565b60405161028a91906130fc565b60405180910390f35b6102ad60048036038101906102a8919061317c565b6108cf565b005b6102c960048036038101906102c49190613221565b610926565b6040516102d691906130fc565b60405180910390f35b6102e7610938565b6040516102f491906132de565b60405180910390f35b61031760048036038101906103129190613336565b6109ca565b6040516103249190613372565b60405180910390f35b6103476004803603810190610342919061338d565b6109e6565b005b6103516109fc565b60405161035e91906133dc565b60405180910390f35b610381600480360381019061037c919061338d565b610a09565b60405161038e91906134b5565b60405180910390f35b6103b160048036038101906103ac91906134d7565b610b7e565b005b6103cd60048036038101906103c8919061338d565b610c80565b6040516103da91906133dc565b60405180910390f35b6103eb610d29565b6040516103f891906133dc565b60405180910390f35b61041b60048036038101906104169190613336565b610d2e565b60405161042891906133dc565b60405180910390f35b61044b6004803603810190610446919061338d565b610d46565b005b610467600480360381019061046291906134d7565b610f34565b005b610471610f54565b6040516104819493929190613636565b60405180910390f35b6104a4600480360381019061049f9190613336565b611167565b6040516104b191906133dc565b60405180910390f35b6104d460048036038101906104cf91906130b4565b6111dd565b6040516104e49493929190613690565b60405180910390f35b61050760048036038101906105029190613336565b611473565b60405161051491906133dc565b60405180910390f35b61052561149a565b60405161053291906133dc565b60405180910390f35b61055560048036038101906105509190613336565b61149f565b6040516105629190613372565b60405180910390f35b610585600480360381019061058091906130b4565b6114b1565b005b6105a1600480360381019061059c9190613336565b6114fd565b6040516105ae91906133dc565b60405180910390f35b6105d160048036038101906105cc91906130b4565b611515565b6040516105de91906133dc565b60405180910390f35b6105ef6115cf565b005b6105f96115e3565b60405161060691906133dc565b60405180910390f35b6106176115e8565b6040516106249190613372565b60405180910390f35b610635611612565b60405161064291906133dc565b60405180910390f35b610653611617565b60405161066091906132de565b60405180910390f35b610683600480360381019061067e919061371d565b6116a9565b005b61069f600480360381019061069a919061375d565b6116bf565b005b6106bb60048036038101906106b691906138ed565b61176d565b005b6106d760048036038101906106d2919061338d565b611792565b6040516106e491906133dc565b60405180910390f35b61070760048036038101906107029190613336565b6117b7565b60405161071491906132de565b60405180910390f35b61073760048036038101906107329190613336565b611885565b60405161074491906132de565b60405180910390f35b610767600480360381019061076291906130b4565b611925565b60405161077693929190613970565b60405180910390f35b610799600480360381019061079491906139bc565b611b61565b6040516107a691906130fc565b60405180910390f35b6107b7611bf5565b6040516107c491906133dc565b60405180910390f35b6107d5611bfa565b6040516107e291906133dc565b60405180910390f35b610805600480360381019061080091906130b4565b611bff565b005b61080f611c85565b60405161081c9190613372565b60405180910390f35b61082d611cab565b60405161083a91906133dc565b60405180910390f35b61085d60048036038101906108589190613336565b611cb0565b60405161086a91906132de565b60405180910390f35b600080601060008473ffffffffffffffffffffffffffffffffffffffff1673ffffffffffffffffffffffffffffffffffffffff168152602001908152602001600020600080815260200190815260200160002054119050919050565b6108d7611ed3565b8181600e91826108e8929190613c13565b507fe0d037d336e396c6167ad2bc126076f7c8e8a711ee714a24e96637a9233e1027828260405161091a929190613d10565b60405180910390a15050565b600061093182611f5a565b9050919050565b60606000805461094790613a36565b80601f016020809104026020016040519081016040528092919081815260200182805461097390613a36565b80156109c05780601f10610995576101008083540402835291602001916109c0565b820191906000526020600020905b8154815290600101906020018083116109a357829003601f168201915b5050505050905090565b60006109d582611fd4565b506109df8261205c565b9050919050565b6109f882826109f3612099565b6120a1565b5050565b6000600880549050905090565b60606000610a1684611515565b905060008167ffffffffffffffff811115610a3457610a336137c2565b5b604051908082528060200260200182016040528015610a625781602001602082028036833780820191505090505b5090506000805b83811015610ad6576000610a7d8883610c80565b905086600c60008381526020019081526020016000205403610ac85780848481518110610aad57610aac613d34565b5b6020026020010181815250508280610ac490613d92565b9350505b508080600101915050610a69565b508067ffffffffffffffff811115610af157610af06137c2565b5b604051908082528060200260200182016040528015610b1f5781602001602082028036833780820191505090505b50935060005b81811015610b7457828181518110610b4057610b3f613d34565b5b6020026020010151858281518110610b5b57610b5a613d34565b5b6020026020010181815250508080600101915050610b25565b5050505092915050565b600073ffffffffffffffffffffffffffffffffffffffff168273ffffffffffffffffffffffffffffffffffffffff1603610bf05760006040517f64a0ae92000000000000000000000000000000000000000000000000000000008152600401610be79190613372565b60405180910390fd5b6000610c048383610bff612099565b6120b3565b90508373ffffffffffffffffffffffffffffffffffffffff168173ffffffffffffffffffffffffffffffffffffffff1614610c7a578382826040517f64283d7b000000000000000000000000000000000000000000000000000000008152600401610c7193929190613dda565b60405180910390fd5b50505050565b6000610c8b83611515565b8210610cd05782826040517fa57d13dc000000000000000000000000000000000000000000000000000000008152600401610cc7929190613e11565b60405180910390fd5b600660008473ffffffffffffffffffffffffffffffffffffffff1673ffffffffffffffffffffffffffffffffffffffff168152602001908152602001600020600083815260200190815260200160002054905092915050565b600581565b600c6020528060005260406000206000915090505481565b600b60009054906101000a900473ffffffffffffffffffffffffffffffffffffffff1673ffffffffffffffffffffffffffffffffffffffff163373ffffffffffffffffffffffffffffffffffffffff1614610dd6576040517f08c379a0000000000000000000000000000000000000000000000000000000008152600401610dcd90613e86565b60405180910390fd5b6006811115610e1a576040517f08c379a0000000000000000000000000000000000000000000000000000000008152600401610e1190613ef2565b60405180910390fd5b6000610e246109fc565b9050610e3083826120c9565b81600c600083815260200190815260200160002081905550600f60008381526020019081526020016000206000815480929190610e6c90613d92565b9190505550601060008473ffffffffffffffffffffffffffffffffffffffff1673ffffffffffffffffffffffffffffffffffffffff16815260200190815260200160002060008381526020019081526020016000206000815480929190610ed290613d92565b91905055506000808314905082828573ffffffffffffffffffffffffffffffffffffffff167f103f869407cb53c19de05a74c24b2c889dfd7c74a24befc8ee64dd2dbcc3611c84604051610f2691906130fc565b60405180910390a450505050565b610f4f8383836040518060200160405280600081525061176d565b505050565b60608060606000600767ffffffffffffffff811115610f7657610f756137c2565b5b604051908082528060200260200182016040528015610fa45781602001602082028036833780820191505090505b509350600767ffffffffffffffff811115610fc257610fc16137c2565b5b604051908082528060200260200182016040528015610ff05781602001602082028036833780820191505090505b509250600767ffffffffffffffff81111561100e5761100d6137c2565b5b60405190808252806020026020018201604052801561104157816020015b606081526020019060019003908161102c5790505b50915060005b600781101561114d578085828151811061106457611063613d34565b5b602002602001018181525050600f60008281526020019081526020016000205484828151811061109757611096613d34565b5b6020026020010181815250503073ffffffffffffffffffffffffffffffffffffffff1663fe90a5e3826040518263ffffffff1660e01b81526004016110dc91906133dc565b600060405180830381865afa1580156110f9573d6000803e3d6000fd5b505050506040513d6000823e3d601f19601f820116820180604052508101906111229190613fb3565b83828151811061113557611134613d34565b5b60200260200101819052508080600101915050611047565b508383836111596109fc565b935093509350935090919293565b60006111716109fc565b82106111b7576000826040517fa57d13dc0000000000000000000000000000000000000000000000000000000081526004016111ae929190613e11565b60405180910390fd5b600882815481106111cb576111ca613d34565b5b90600052602060002001549050919050565b60608060608060006111ee86611515565b90508067ffffffffffffffff81111561120a576112096137c2565b5b6040519080825280602002602001820160405280156112385781602001602082028036833780820191505090505b5094508067ffffffffffffffff811115611255576112546137c2565b5b6040519080825280602002602001820160405280156112835781602001602082028036833780820191505090505b5093508067ffffffffffffffff8111156112a05761129f6137c2565b5b6040519080825280602002602001820160405280156112d357816020015b60608152602001906001900390816112be5790505b5092508067ffffffffffffffff8111156112f0576112ef6137c2565b5b60405190808252806020026020018201604052801561132357816020015b606081526020019060019003908161130e5790505b50915060005b8181101561146a57600061133d8883610c80565b90506000600c60008381526020019081526020016000205490508188848151811061136b5761136a613d34565b5b6020026020010181815250508087848151811061138b5761138a613d34565b5b6020026020010181815250506113a0826117b7565b8684815181106113b3576113b2613d34565b5b60200260200101819052503073ffffffffffffffffffffffffffffffffffffffff1663fe90a5e3826040518263ffffffff1660e01b81526004016113f791906133dc565b600060405180830381865afa158015611414573d6000803e3d6000fd5b505050506040513d6000823e3d601f19601f8201168201806040525081019061143d9190613fb3565b8584815181106114505761144f613d34565b5b602002602001018190525050508080600101915050611329565b50509193509193565b600061147e82611fd4565b50600c6000838152602001908152602001600020549050919050565b600281565b60006114aa82611fd4565b9050919050565b6114b9611ed3565b80600b60006101000a81548173ffffffffffffffffffffffffffffffffffffffff021916908373ffffffffffffffffffffffffffffffffffffffff16021790555050565b600f6020528060005260406000206000915090505481565b60008073ffffffffffffffffffffffffffffffffffffffff168273ffffffffffffffffffffffffffffffffffffffff16036115885760006040517f89c62b6400000000000000000000000000000000000000000000000000000000815260040161157f9190613372565b60405180910390fd5b600360008373ffffffffffffffffffffffffffffffffffffffff1673ffffffffffffffffffffffffffffffffffffffff168152602001908152602001600020549050919050565b6115d7611ed3565b6115e160006121c2565b565b600681565b6000600a60009054906101000a900473ffffffffffffffffffffffffffffffffffffffff16905090565b600381565b60606001805461162690613a36565b80601f016020809104026020016040519081016040528092919081815260200182805461165290613a36565b801561169f5780601f106116745761010080835404028352916020019161169f565b820191906000526020600020905b81548152906001019060200180831161168257829003601f168201915b5050505050905090565b6116bb6116b4612099565b8383612288565b5050565b6116c7611ed3565b600683111561170b576040517f08c379a000000000000000000000000000000000000000000000000000000000815260040161170290613ef2565b60405180910390fd5b8181600d6000868152602001908152602001600020918261172d929190613c13565b50827f29a79348b587fdb8c1e68f2bdc84a2edf777093f8db626cb838e7ace52c2cf298383604051611760929190613d10565b60405180910390a2505050565b611778848484610b7e565b61178c611783612099565b858585856123f7565b50505050565b6010602052816000526040600020602052806000526040600020600091509150505481565b60606117c282611fd4565b506000600c60008481526020019081526020016000205490506000600d600083815260200190815260200160002080546117fb90613a36565b80601f016020809104026020016040519081016040528092919081815260200182805461182790613a36565b80156118745780601f1061184957610100808354040283529160200191611874565b820191906000526020600020905b81548152906001019060200180831161185757829003601f168201915b505050505090508092505050919050565b600d60205280600052604060002060009150905080546118a490613a36565b80601f01602080910402602001604051908101604052809291908181526020018280546118d090613a36565b801561191d5780601f106118f25761010080835404028352916020019161191d565b820191906000526020600020905b81548152906001019060200180831161190057829003601f168201915b505050505081565b6060806060600767ffffffffffffffff811115611945576119446137c2565b5b6040519080825280602002602001820160405280156119735781602001602082028036833780820191505090505b509250600767ffffffffffffffff811115611991576119906137c2565b5b6040519080825280602002602001820160405280156119bf5781602001602082028036833780820191505090505b509150600767ffffffffffffffff8111156119dd576119dc6137c2565b5b604051908082528060200260200182016040528015611a1057816020015b60608152602001906001900390816119fb5790505b50905060005b6007811015611b595780848281518110611a3357611a32613d34565b5b602002602001018181525050601060008673ffffffffffffffffffffffffffffffffffffffff1673ffffffffffffffffffffffffffffffffffffffff168152602001908152602001600020600082815260200190815260200160002054838281518110611aa357611aa2613d34565b5b6020026020010181815250503073ffffffffffffffffffffffffffffffffffffffff1663fe90a5e3826040518263ffffffff1660e01b8152600401611ae891906133dc565b600060405180830381865afa158015611b05573d6000803e3d6000fd5b505050506040513d6000823e3d601f19601f82011682018060405250810190611b2e9190613fb3565b828281518110611b4157611b40613d34565b5b60200260200101819052508080600101915050611a16565b509193909250565b6000600560008473ffffffffffffffffffffffffffffffffffffffff1673ffffffffffffffffffffffffffffffffffffffff16815260200190815260200160002060008373ffffffffffffffffffffffffffffffffffffffff1673ffffffffffffffffffffffffffffffffffffffff16815260200190815260200160002060009054906101000a900460ff16905092915050565b600181565b600481565b611c07611ed3565b600073ffffffffffffffffffffffffffffffffffffffff168173ffffffffffffffffffffffffffffffffffffffff1603611c795760006040517f1e4fbdf7000000000000000000000000000000000000000000000000000000008152600401611c709190613372565b60405180910390fd5b611c82816121c2565b50565b600b60009054906101000a900473ffffffffffffffffffffffffffffffffffffffff1681565b600081565b606060008203611cf7576040518060400160405280600681526020017f424c4950505900000000000000000000000000000000000000000000000000008152509050611ece565b60018203611d3c576040518060400160405280600481526020017f49505059000000000000000000000000000000000000000000000000000000008152509050611ece565b60028203611d81576040518060400160405280600581526020017f42495050590000000000000000000000000000000000000000000000000000008152509050611ece565b60038203611dc6576040518060400160405280600681526020017f54484950505900000000000000000000000000000000000000000000000000008152509050611ece565b60048203611e0b576040518060400160405280600681526020017f53544950505900000000000000000000000000000000000000000000000000008152509050611ece565b60058203611e50576040518060400160405280600681526020017f52414950505900000000000000000000000000000000000000000000000000008152509050611ece565b60068203611e95576040518060400160405280600581526020017f4d495050590000000000000000000000000000000000000000000000000000008152509050611ece565b6040518060400160405280600781526020017f556e6b6e6f776e0000000000000000000000000000000000000000000000000081525090505b919050565b611edb612099565b73ffffffffffffffffffffffffffffffffffffffff16611ef96115e8565b73ffffffffffffffffffffffffffffffffffffffff1614611f5857611f1c612099565b6040517f118cdaa7000000000000000000000000000000000000000000000000000000008152600401611f4f9190613372565b60405180910390fd5b565b60007f780e9d63000000000000000000000000000000000000000000000000000000007bffffffffffffffffffffffffffffffffffffffffffffffffffffffff1916827bffffffffffffffffffffffffffffffffffffffffffffffffffffffff19161480611fcd5750611fcc826125a8565b5b9050919050565b600080611fe08361268a565b9050600073ffffffffffffffffffffffffffffffffffffffff168173ffffffffffffffffffffffffffffffffffffffff160361205357826040517f7e27328900000000000000000000000000000000000000000000000000000000815260040161204a91906133dc565b60405180910390fd5b80915050919050565b60006004600083815260200190815260200160002060009054906101000a900473ffffffffffffffffffffffffffffffffffffffff169050919050565b600033905090565b6120ae83838360016126c7565b505050565b60006120c084848461288c565b90509392505050565b600073ffffffffffffffffffffffffffffffffffffffff168273ffffffffffffffffffffffffffffffffffffffff160361213b5760006040517f64a0ae920000000000000000000000000000000000000000000000000000000081526004016121329190613372565b60405180910390fd5b6000612149838360006120b3565b9050600073ffffffffffffffffffffffffffffffffffffffff168173ffffffffffffffffffffffffffffffffffffffff16146121bd5760006040517f73c6ac6e0000000000000000000000000000000000000000000000000000000081526004016121b49190613372565b60405180910390fd5b505050565b6000600a60009054906101000a900473ffffffffffffffffffffffffffffffffffffffff16905081600a60006101000a81548173ffffffffffffffffffffffffffffffffffffffff021916908373ffffffffffffffffffffffffffffffffffffffff1602179055508173ffffffffffffffffffffffffffffffffffffffff168173ffffffffffffffffffffffffffffffffffffffff167f8be0079c531659141344cd1fd0a4f28419497f9722a3daafe3b4186f6b6457e060405160405180910390a35050565b600073ffffffffffffffffffffffffffffffffffffffff168273ffffffffffffffffffffffffffffffffffffffff16036122f957816040517f5b08ba180000000000000000000000000000000000000000000000000000000081526004016122f09190613372565b60405180910390fd5b80600560008573ffffffffffffffffffffffffffffffffffffffff1673ffffffffffffffffffffffffffffffffffffffff16815260200190815260200160002060008473ffffffffffffffffffffffffffffffffffffffff1673ffffffffffffffffffffffffffffffffffffffff16815260200190815260200160002060006101000a81548160ff0219169083151502179055508173ffffffffffffffffffffffffffffffffffffffff168373ffffffffffffffffffffffffffffffffffffffff167f17307eab39ab6107e8899845ad3d59bd9653f200f220920489ca2b5937696c31836040516123ea91906130fc565b60405180910390a3505050565b60008373ffffffffffffffffffffffffffffffffffffffff163b11156125a1578273ffffffffffffffffffffffffffffffffffffffff1663150b7a02868685856040518563ffffffff1660e01b81526004016124569493929190614051565b6020604051808303816000875af192505050801561249257506040513d601f19601f8201168201806040525081019061248f91906140b2565b60015b612516573d80600081146124c2576040519150601f19603f3d011682016040523d82523d6000602084013e6124c7565b606091505b50600081510361250e57836040517f64a0ae920000000000000000000000000000000000000000000000000000000081526004016125059190613372565b60405180910390fd5b805181602001fd5b63150b7a0260e01b7bffffffffffffffffffffffffffffffffffffffffffffffffffffffff1916817bffffffffffffffffffffffffffffffffffffffffffffffffffffffff19161461259f57836040517f64a0ae920000000000000000000000000000000000000000000000000000000081526004016125969190613372565b60405180910390fd5b505b5050505050565b60007f80ac58cd000000000000000000000000000000000000000000000000000000007bffffffffffffffffffffffffffffffffffffffffffffffffffffffff1916827bffffffffffffffffffffffffffffffffffffffffffffffffffffffff1916148061267357507f5b5e139f000000000000000000000000000000000000000000000000000000007bffffffffffffffffffffffffffffffffffffffffffffffffffffffff1916827bffffffffffffffffffffffffffffffffffffffffffffffffffffffff1916145b806126835750612682826129a9565b5b9050919050565b60006002600083815260200190815260200160002060009054906101000a900473ffffffffffffffffffffffffffffffffffffffff169050919050565b80806127005750600073ffffffffffffffffffffffffffffffffffffffff168273ffffffffffffffffffffffffffffffffffffffff1614155b1561283457600061271084611fd4565b9050600073ffffffffffffffffffffffffffffffffffffffff168373ffffffffffffffffffffffffffffffffffffffff161415801561277b57508273ffffffffffffffffffffffffffffffffffffffff168173ffffffffffffffffffffffffffffffffffffffff1614155b801561278e575061278c8184611b61565b155b156127d057826040517fa9fbf51f0000000000000000000000000000000000000000000000000000000081526004016127c79190613372565b60405180910390fd5b811561283257838573ffffffffffffffffffffffffffffffffffffffff168273ffffffffffffffffffffffffffffffffffffffff167f8c5be1e5ebec7d5bd14f71427d1e84f3dd0314c0f7b2291e5b200ac8c7c3b92560405160405180910390a45b505b836004600085815260200190815260200160002060006101000a81548173ffffffffffffffffffffffffffffffffffffffff021916908373ffffffffffffffffffffffffffffffffffffffff16021790555050505050565b60008061289a858585612a13565b9050600073ffffffffffffffffffffffffffffffffffffffff168173ffffffffffffffffffffffffffffffffffffffff16036128de576128d984612c2d565b61291d565b8473ffffffffffffffffffffffffffffffffffffffff168173ffffffffffffffffffffffffffffffffffffffff161461291c5761291b8185612c76565b5b5b600073ffffffffffffffffffffffffffffffffffffffff168573ffffffffffffffffffffffffffffffffffffffff160361295f5761295a84612d61565b61299e565b8473ffffffffffffffffffffffffffffffffffffffff168173ffffffffffffffffffffffffffffffffffffffff161461299d5761299c8585612e32565b5b5b809150509392505050565b60007f01ffc9a7000000000000000000000000000000000000000000000000000000007bffffffffffffffffffffffffffffffffffffffffffffffffffffffff1916827bffffffffffffffffffffffffffffffffffffffffffffffffffffffff1916149050919050565b600080612a1f8461268a565b9050600073ffffffffffffffffffffffffffffffffffffffff168373ffffffffffffffffffffffffffffffffffffffff1614612a6157612a60818486612ebd565b5b600073ffffffffffffffffffffffffffffffffffffffff168173ffffffffffffffffffffffffffffffffffffffff1614612af257612aa36000856000806126c7565b6001600360008373ffffffffffffffffffffffffffffffffffffffff1673ffffffffffffffffffffffffffffffffffffffff168152602001908152602001600020600082825403925050819055505b600073ffffffffffffffffffffffffffffffffffffffff168573ffffffffffffffffffffffffffffffffffffffff1614612b75576001600360008773ffffffffffffffffffffffffffffffffffffffff1673ffffffffffffffffffffffffffffffffffffffff168152602001908152602001600020600082825401925050819055505b846002600086815260200190815260200160002060006101000a81548173ffffffffffffffffffffffffffffffffffffffff021916908373ffffffffffffffffffffffffffffffffffffffff160217905550838573ffffffffffffffffffffffffffffffffffffffff168273ffffffffffffffffffffffffffffffffffffffff167fddf252ad1be2c89b69c2b068fc378daa952ba7f163c4a11628f55a4df523b3ef60405160405180910390a4809150509392505050565b6008805490506009600083815260200190815260200160002081905550600881908060018154018082558091505060019003906000526020600020016000909190919091505550565b6000612c8183611515565b90506000600760008481526020019081526020016000205490506000600660008673ffffffffffffffffffffffffffffffffffffffff1673ffffffffffffffffffffffffffffffffffffffff1681526020019081526020016000209050828214612d2d5760008160008581526020019081526020016000205490508082600085815260200190815260200160002081905550826007600083815260200190815260200160002081905550505b6007600085815260200190815260200160002060009055806000848152602001908152602001600020600090555050505050565b60006001600880549050612d7591906140df565b9050600060096000848152602001908152602001600020549050600060088381548110612da557612da4613d34565b5b906000526020600020015490508060088381548110612dc757612dc6613d34565b5b906000526020600020018190555081600960008381526020019081526020016000208190555060096000858152602001908152602001600020600090556008805480612e1657612e15614113565b5b6001900381819060005260206000200160009055905550505050565b60006001612e3f84611515565b612e4991906140df565b905081600660008573ffffffffffffffffffffffffffffffffffffffff1673ffffffffffffffffffffffffffffffffffffffff168152602001908152602001600020600083815260200190815260200160002081905550806007600084815260200190815260200160002081905550505050565b612ec8838383612f81565b612f7c57600073ffffffffffffffffffffffffffffffffffffffff168373ffffffffffffffffffffffffffffffffffffffff1603612f3d57806040517f7e273289000000000000000000000000000000000000000000000000000000008152600401612f3491906133dc565b60405180910390fd5b81816040517f177e802f000000000000000000000000000000000000000000000000000000008152600401612f73929190613e11565b60405180910390fd5b505050565b60008073ffffffffffffffffffffffffffffffffffffffff168373ffffffffffffffffffffffffffffffffffffffff161415801561303957508273ffffffffffffffffffffffffffffffffffffffff168473ffffffffffffffffffffffffffffffffffffffff161480612ffa5750612ff98484611b61565b5b8061303857508273ffffffffffffffffffffffffffffffffffffffff166130208361205c565b73ffffffffffffffffffffffffffffffffffffffff16145b5b90509392505050565b6000604051905090565b600080fd5b600080fd5b600073ffffffffffffffffffffffffffffffffffffffff82169050919050565b600061308182613056565b9050919050565b61309181613076565b811461309c57600080fd5b50565b6000813590506130ae81613088565b92915050565b6000602082840312156130ca576130c961304c565b5b60006130d88482850161309f565b91505092915050565b60008115159050919050565b6130f6816130e1565b82525050565b600060208201905061311160008301846130ed565b92915050565b600080fd5b600080fd5b600080fd5b60008083601f84011261313c5761313b613117565b5b8235905067ffffffffffffffff8111156131595761315861311c565b5b60208301915083600182028301111561317557613174613121565b5b9250929050565b600080602083850312156131935761319261304c565b5b600083013567ffffffffffffffff8111156131b1576131b0613051565b5b6131bd85828601613126565b92509250509250929050565b60007fffffffff0000000000000000000000000000000000000000000000000000000082169050919050565b6131fe816131c9565b811461320957600080fd5b50565b60008135905061321b816131f5565b92915050565b6000602082840312156132375761323661304c565b5b60006132458482850161320c565b91505092915050565b600081519050919050565b600082825260208201905092915050565b60005b8381101561328857808201518184015260208101905061326d565b60008484015250505050565b6000601f19601f8301169050919050565b60006132b08261324e565b6132ba8185613259565b93506132ca81856020860161326a565b6132d381613294565b840191505092915050565b600060208201905081810360008301526132f881846132a5565b905092915050565b6000819050919050565b61331381613300565b811461331e57600080fd5b50565b6000813590506133308161330a565b92915050565b60006020828403121561334c5761334b61304c565b5b600061335a84828501613321565b91505092915050565b61336c81613076565b82525050565b60006020820190506133876000830184613363565b92915050565b600080604083850312156133a4576133a361304c565b5b60006133b28582860161309f565b92505060206133c385828601613321565b9150509250929050565b6133d681613300565b82525050565b60006020820190506133f160008301846133cd565b92915050565b600081519050919050565b600082825260208201905092915050565b6000819050602082019050919050565b61342c81613300565b82525050565b600061343e8383613423565b60208301905092915050565b6000602082019050919050565b6000613462826133f7565b61346c8185613402565b935061347783613413565b8060005b838110156134a857815161348f8882613432565b975061349a8361344a565b92505060018101905061347b565b5085935050505092915050565b600060208201905081810360008301526134cf8184613457565b905092915050565b6000806000606084860312156134f0576134ef61304c565b5b60006134fe8682870161309f565b935050602061350f8682870161309f565b925050604061352086828701613321565b9150509250925092565b600081519050919050565b600082825260208201905092915050565b6000819050602082019050919050565b600082825260208201905092915050565b60006135728261324e565b61357c8185613556565b935061358c81856020860161326a565b61359581613294565b840191505092915050565b60006135ac8383613567565b905092915050565b6000602082019050919050565b60006135cc8261352a565b6135d68185613535565b9350836020820285016135e885613546565b8060005b85811015613624578484038952815161360585826135a0565b9450613610836135b4565b925060208a019950506001810190506135ec565b50829750879550505050505092915050565b600060808201905081810360008301526136508187613457565b905081810360208301526136648186613457565b9050818103604083015261367881856135c1565b905061368760608301846133cd565b95945050505050565b600060808201905081810360008301526136aa8187613457565b905081810360208301526136be8186613457565b905081810360408301526136d281856135c1565b905081810360608301526136e681846135c1565b905095945050505050565b6136fa816130e1565b811461370557600080fd5b50565b600081359050613717816136f1565b92915050565b600080604083850312156137345761373361304c565b5b60006137428582860161309f565b925050602061375385828601613708565b9150509250929050565b6000806000604084860312156137765761377561304c565b5b600061378486828701613321565b935050602084013567ffffffffffffffff8111156137a5576137a4613051565b5b6137b186828701613126565b92509250509250925092565b600080fd5b7f4e487b7100000000000000000000000000000000000000000000000000000000600052604160045260246000fd5b6137fa82613294565b810181811067ffffffffffffffff82111715613819576138186137c2565b5b80604052505050565b600061382c613042565b905061383882826137f1565b919050565b600067ffffffffffffffff821115613858576138576137c2565b5b61386182613294565b9050602081019050919050565b82818337600083830152505050565b600061389061388b8461383d565b613822565b9050828152602081018484840111156138ac576138ab6137bd565b5b6138b784828561386e565b509392505050565b600082601f8301126138d4576138d3613117565b5b81356138e484826020860161387d565b91505092915050565b600080600080608085870312156139075761390661304c565b5b60006139158782880161309f565b94505060206139268782880161309f565b935050604061393787828801613321565b925050606085013567ffffffffffffffff81111561395857613957613051565b5b613964878288016138bf565b91505092959194509250565b6000606082019050818103600083015261398a8186613457565b9050818103602083015261399e8185613457565b905081810360408301526139b281846135c1565b9050949350505050565b600080604083850312156139d3576139d261304c565b5b60006139e18582860161309f565b92505060206139f28582860161309f565b9150509250929050565b600082905092915050565b7f4e487b7100000000000000000000000000000000000000000000000000000000600052602260045260246000fd5b60006002820490506001821680613a4e57607f821691505b602082108103613a6157613a60613a07565b5b50919050565b60008190508160005260206000209050919050565b60006020601f8301049050919050565b600082821b905092915050565b600060088302613ac97fffffffffffffffffffffffffffffffffffffffffffffffffffffffffffffffff82613a8c565b613ad38683613a8c565b95508019841693508086168417925050509392505050565b6000819050919050565b6000613b10613b0b613b0684613300565b613aeb565b613300565b9050919050565b6000819050919050565b613b2a83613af5565b613b3e613b3682613b17565b848454613a99565b825550505050565b600090565b613b53613b46565b613b5e818484613b21565b505050565b5b81811015613b8257613b77600082613b4b565b600181019050613b64565b5050565b601f821115613bc757613b9881613a67565b613ba184613a7c565b81016020851015613bb0578190505b613bc4613bbc85613a7c565b830182613b63565b50505b505050565b600082821c905092915050565b6000613bea60001984600802613bcc565b1980831691505092915050565b6000613c038383613bd9565b9150826002028217905092915050565b613c1d83836139fc565b67ffffffffffffffff811115613c3657613c356137c2565b5b613c408254613a36565b613c4b828285613b86565b6000601f831160018114613c7a5760008415613c68578287013590505b613c728582613bf7565b865550613cda565b601f198416613c8886613a67565b60005b82811015613cb057848901358255600182019150602085019450602081019050613c8b565b86831015613ccd5784890135613cc9601f891682613bd9565b8355505b6001600288020188555050505b50505050505050565b6000613cef8385613259565b9350613cfc83858461386e565b613d0583613294565b840190509392505050565b60006020820190508181036000830152613d2b818486613ce3565b90509392505050565b7f4e487b7100000000000000000000000000000000000000000000000000000000600052603260045260246000fd5b7f4e487b7100000000000000000000000000000000000000000000000000000000600052601160045260246000fd5b6000613d9d82613300565b91507fffffffffffffffffffffffffffffffffffffffffffffffffffffffffffffffff8203613dcf57613dce613d63565b5b600182019050919050565b6000606082019050613def6000830186613363565b613dfc60208301856133cd565b613e096040830184613363565b949350505050565b6000604082019050613e266000830185613363565b613e3360208301846133cd565b9392505050565b7f4f6e6c7920426c696e64426f782063616e206d696e7400000000000000000000600082015250565b6000613e70601683613259565b9150613e7b82613e3a565b602082019050919050565b60006020820190508181036000830152613e9f81613e63565b9050919050565b7f496e76616c6964204e4654207479706500000000000000000000000000000000600082015250565b6000613edc601083613259565b9150613ee782613ea6565b602082019050919050565b60006020820190508181036000830152613f0b81613ecf565b9050919050565b600067ffffffffffffffff821115613f2d57613f2c6137c2565b5b613f3682613294565b9050602081019050919050565b6000613f56613f5184613f12565b613822565b905082815260208101848484011115613f7257613f716137bd565b5b613f7d84828561326a565b509392505050565b600082601f830112613f9a57613f99613117565b5b8151613faa848260208601613f43565b91505092915050565b600060208284031215613fc957613fc861304c565b5b600082015167ffffffffffffffff811115613fe757613fe6613051565b5b613ff384828501613f85565b91505092915050565b600081519050919050565b600082825260208201905092915050565b600061402382613ffc565b61402d8185614007565b935061403d81856020860161326a565b61404681613294565b840191505092915050565b60006080820190506140666000830187613363565b6140736020830186613363565b61408060408301856133cd565b81810360608301526140928184614018565b905095945050505050565b6000815190506140ac816131f5565b92915050565b6000602082840312156140c8576140c761304c565b5b60006140d68482850161409d565b91505092915050565b60006140ea82613300565b91506140f583613300565b925082820390508181111561410d5761410c613d63565b5b92915050565b7f4e487b7100000000000000000000000000000000000000000000000000000000600052603160045260246000fdfea26469706673582212207c193cc536f76831814445295b86df76129ca1d48955d448a9b854788b6d8c7564736f6c634300081c003368747470733a2f2f6d61726f6f6e2d6e65617262792d6265646275672d3533352e6d7970696e6174612e636c6f75642f697066732f62616679626569627634323371327934686e6a366d37723377756861676d69326d6c6d6979796578766671686970626c70706e687a366d6a6478712f62697070792e6a736f6e68747470733a2f2f6d61726f6f6e2d6e65617262792d6265646275672d3533352e6d7970696e6174612e636c6f75642f697066732f62616679626569627634323371327934686e6a366d37723377756861676d69326d6c6d6979796578766671686970626c70706e687a366d6a6478712f7261697070792e6a736f6e68747470733a2f2f6d61726f6f6e2d6e65617262792d6265646275672d3533352e6d7970696e6174612e636c6f75642f697066732f62616679626569627634323371327934686e6a366d37723377756861676d69326d6c6d6979796578766671686970626c70706e687a366d6a6478712f7374697070792e6a736f6e68747470733a2f2f6d61726f6f6e2d6e65617262792d6265646275672d3533352e6d7970696e6174612e636c6f75642f697066732f62616679626569627634323371327934686e6a366d37723377756861676d69326d6c6d6979796578766671686970626c70706e687a366d6a6478712f6d697070792e6a736f6e68747470733a2f2f6d61726f6f6e2d6e65617262792d6265646275672d3533352e6d7970696e6174612e636c6f75642f697066732f62616679626569627634323371327934686e6a366d37723377756861676d69326d6c6d6979796578766671686970626c70706e687a366d6a6478712f697070792e6a736f6e68747470733a2f2f6d61726f6f6e2d6e65617262792d6265646275672d3533352e6d7970696e6174612e636c6f75642f697066732f62616679626569627634323371327934686e6a366d37723377756861676d69326d6c6d6979796578766671686970626c70706e687a366d6a6478712f7468697070792e6a736f6e68747470733a2f2f6d61726f6f6e2d6e65617262792d6265646275672d3533352e6d7970696e6174612e636c6f75642f697066732f62616679626569627634323371327934686e6a366d37723377756861676d69326d6c6d6979796578766671686970626c70706e687a366d6a6478712f626c697070792e6a736f6e68747470733a2f2f6d61726f6f6e2d6e65617262792d6265646275672d3533352e6d7970696e6174612e636c6f75642f697066732f62616679626569627634323371327934686e6a366d37723377756861676d69326d6c6d6979796578766671686970626c70706e687a366d6a6478712f",
  "linkReferences": {},
  "deployedLinkReferences": {}
}