{
  "_format": "hh-sol-artifact-1",
  "contractName": "BlindBox",
  "sourceName": "contracts/BlindBox.sol",
  "abi": [
    {
      "inputs": [
        {
          "internalType": "address",
          "name": "_ippyNFT",
          "type": "address"
        }
      ],
      "stateMutability": "nonpayable",
      "type": "constructor"
    },
    {
      "inputs": [
        {
          "internalType": "address",
          "name": "sender",
          "type": "address"
        },
        {
          "internalType": "uint256",
          "name": "balance",
          "type": "uint256"
        },
        {
          "internalType": "uint256",
          "name": "needed",
          "type": "uint256"
        },
        {
          "internalType": "uint256",
          "name": "tokenId",
          "type": "uint256"
        }
      ],
      "name": "ERC1155InsufficientBalance",
      "type": "error"
    },
    {
      "inputs": [
        {
          "internalType": "address",
          "name": "approver",
          "type": "address"
        }
      ],
      "name": "ERC1155InvalidApprover",
      "type": "error"
    },
    {
      "inputs": [
        {
          "internalType": "uint256",
          "name": "idsLength",
          "type": "uint256"
        },
        {
          "internalType": "uint256",
          "name": "valuesLength",
          "type": "uint256"
        }
      ],
      "name": "ERC1155InvalidArrayLength",
      "type": "error"
    },
    {
      "inputs": [
        {
          "internalType": "address",
          "name": "operator",
          "type": "address"
        }
      ],
      "name": "ERC1155InvalidOperator",
      "type": "error"
    },
    {
      "inputs": [
        {
          "internalType": "address",
          "name": "receiver",
          "type": "address"
        }
      ],
      "name": "ERC1155InvalidReceiver",
      "type": "error"
    },
    {
      "inputs": [
        {
          "internalType": "address",
          "name": "sender",
          "type": "address"
        }
      ],
      "name": "ERC1155InvalidSender",
      "type": "error"
    },
    {
      "inputs": [
        {
          "internalType": "address",
          "name": "operator",
          "type": "address"
        },
        {
          "internalType": "address",
          "name": "owner",
          "type": "address"
        }
      ],
      "name": "ERC1155MissingApprovalForAll",
      "type": "error"
    },
    {
      "inputs": [
        {
          "internalType": "address",
          "name": "owner",
          "type": "address"
        }
      ],
      "name": "OwnableInvalidOwner",
      "type": "error"
    },
    {
      "inputs": [
        {
          "internalType": "address",
          "name": "account",
          "type": "address"
        }
      ],
      "name": "OwnableUnauthorizedAccount",
      "type": "error"
    },
    {
      "inputs": [],
      "name": "ReentrancyGuardReentrantCall",
      "type": "error"
    },
    {
      "anonymous": false,
      "inputs": [
        {
          "indexed": true,
          "internalType": "address",
          "name": "account",
          "type": "address"
        },
        {
          "indexed": true,
          "internalType": "address",
          "name": "operator",
          "type": "address"
        },
        {
          "indexed": false,
          "internalType": "bool",
          "name": "approved",
          "type": "bool"
        }
      ],
      "name": "ApprovalForAll",
      "type": "event"
    },
    {
      "anonymous": false,
      "inputs": [
        {
          "indexed": true,
          "internalType": "address",
          "name": "opener",
          "type": "address"
        },
        {
          "indexed": false,
          "internalType": "uint256",
          "name": "boxTokenId",
          "type": "uint256"
        },
        {
          "indexed": false,
          "internalType": "uint256",
          "name": "receivedNFTId",
          "type": "uint256"
        },
        {
          "indexed": false,
          "internalType": "bool",
          "name": "isHidden",
          "type": "bool"
        }
      ],
      "name": "BlindBoxOpened",
      "type": "event"
    },
    {
      "anonymous": false,
      "inputs": [
        {
          "indexed": true,
          "internalType": "address",
          "name": "buyer",
          "type": "address"
        },
        {
          "indexed": false,
          "internalType": "uint256",
          "name": "amount",
          "type": "uint256"
        },
        {
          "indexed": false,
          "internalType": "uint256",
          "name": "totalCost",
          "type": "uint256"
        }
      ],
      "name": "BlindBoxPurchased",
      "type": "event"
    },
    {
      "anonymous": false,
      "inputs": [
        {
          "indexed": true,
          "internalType": "address",
          "name": "recipient",
          "type": "address"
        },
        {
          "indexed": false,
          "internalType": "uint256",
          "name": "nftId",
          "type": "uint256"
        }
      ],
      "name": "NFTMinted",
      "type": "event"
    },
    {
      "anonymous": false,
      "inputs": [
        {
          "indexed": true,
          "internalType": "address",
          "name": "previousOwner",
          "type": "address"
        },
        {
          "indexed": true,
          "internalType": "address",
          "name": "newOwner",
          "type": "address"
        }
      ],
      "name": "OwnershipTransferred",
      "type": "event"
    },
    {
      "anonymous": false,
      "inputs": [
        {
          "indexed": false,
          "internalType": "uint256",
          "name": "newPrice",
          "type": "uint256"
        }
      ],
      "name": "PriceUpdated",
      "type": "event"
    },
    {
      "anonymous": false,
      "inputs": [
        {
          "indexed": true,
          "internalType": "address",
          "name": "operator",
          "type": "address"
        },
        {
          "indexed": true,
          "internalType": "address",
          "name": "from",
          "type": "address"
        },
        {
          "indexed": true,
          "internalType": "address",
          "name": "to",
          "type": "address"
        },
        {
          "indexed": false,
          "internalType": "uint256[]",
          "name": "ids",
          "type": "uint256[]"
        },
        {
          "indexed": false,
          "internalType": "uint256[]",
          "name": "values",
          "type": "uint256[]"
        }
      ],
      "name": "TransferBatch",
      "type": "event"
    },
    {
      "anonymous": false,
      "inputs": [
        {
          "indexed": true,
          "internalType": "address",
          "name": "operator",
          "type": "address"
        },
        {
          "indexed": true,
          "internalType": "address",
          "name": "from",
          "type": "address"
        },
        {
          "indexed": true,
          "internalType": "address",
          "name": "to",
          "type": "address"
        },
        {
          "indexed": false,
          "internalType": "uint256",
          "name": "id",
          "type": "uint256"
        },
        {
          "indexed": false,
          "internalType": "uint256",
          "name": "value",
          "type": "uint256"
        }
      ],
      "name": "TransferSingle",
      "type": "event"
    },
    {
      "anonymous": false,
      "inputs": [
        {
          "indexed": false,
          "internalType": "string",
          "name": "value",
          "type": "string"
        },
        {
          "indexed": true,
          "internalType": "uint256",
          "name": "id",
          "type": "uint256"
        }
      ],
      "name": "URI",
      "type": "event"
    },
    {
      "inputs": [],
      "name": "HIDDEN_NFT_ID",
      "outputs": [
        {
          "internalType": "uint256",
          "name": "",
          "type": "uint256"
        }
      ],
      "stateMutability": "view",
      "type": "function"
    },
    {
      "inputs": [],
      "name": "STANDARD_NFT_1",
      "outputs": [
        {
          "internalType": "uint256",
          "name": "",
          "type": "uint256"
        }
      ],
      "stateMutability": "view",
      "type": "function"
    },
    {
      "inputs": [],
      "name": "STANDARD_NFT_2",
      "outputs": [
        {
          "internalType": "uint256",
          "name": "",
          "type": "uint256"
        }
      ],
      "stateMutability": "view",
      "type": "function"
    },
    {
      "inputs": [],
      "name": "STANDARD_NFT_3",
      "outputs": [
        {
          "internalType": "uint256",
          "name": "",
          "type": "uint256"
        }
      ],
      "stateMutability": "view",
      "type": "function"
    },
    {
      "inputs": [],
      "name": "STANDARD_NFT_4",
      "outputs": [
        {
          "internalType": "uint256",
          "name": "",
          "type": "uint256"
        }
      ],
      "stateMutability": "view",
      "type": "function"
    },
    {
      "inputs": [],
      "name": "STANDARD_NFT_5",
      "outputs": [
        {
          "internalType": "uint256",
          "name": "",
          "type": "uint256"
        }
      ],
      "stateMutability": "view",
      "type": "function"
    },
    {
      "inputs": [],
      "name": "STANDARD_NFT_6",
      "outputs": [
        {
          "internalType": "uint256",
          "name": "",
          "type": "uint256"
        }
      ],
      "stateMutability": "view",
      "type": "function"
    },
    {
      "inputs": [
        {
          "internalType": "address",
          "name": "account",
          "type": "address"
        },
        {
          "internalType": "uint256",
          "name": "id",
          "type": "uint256"
        }
      ],
      "name": "balanceOf",
      "outputs": [
        {
          "internalType": "uint256",
          "name": "",
          "type": "uint256"
        }
      ],
      "stateMutability": "view",
      "type": "function"
    },
    {
      "inputs": [
        {
          "internalType": "address[]",
          "name": "accounts",
          "type": "address[]"
        },
        {
          "internalType": "uint256[]",
          "name": "ids",
          "type": "uint256[]"
        }
      ],
      "name": "balanceOfBatch",
      "outputs": [
        {
          "internalType": "uint256[]",
          "name": "",
          "type": "uint256[]"
        }
      ],
      "stateMutability": "view",
      "type": "function"
    },
    {
      "inputs": [],
      "name": "boxPrice",
      "outputs": [
        {
          "internalType": "uint256",
          "name": "",
          "type": "uint256"
        }
      ],
      "stateMutability": "view",
      "type": "function"
    },
    {
      "inputs": [],
      "name": "currentSupply",
      "outputs": [
        {
          "internalType": "uint256",
          "name": "",
          "type": "uint256"
        }
      ],
      "stateMutability": "view",
      "type": "function"
    },
    {
      "inputs": [],
      "name": "getContractInfo",
      "outputs": [
        {
          "internalType": "uint256",
          "name": "price",
          "type": "uint256"
        },
        {
          "internalType": "uint256",
          "name": "maxPerTx",
          "type": "uint256"
        },
        {
          "internalType": "uint256",
          "name": "totalSupply",
          "type": "uint256"
        },
        {
          "internalType": "uint256",
          "name": "currentSupplyCount",
          "type": "uint256"
        },
        {
          "internalType": "uint256",
          "name": "remainingBoxes",
          "type": "uint256"
        }
      ],
      "stateMutability": "view",
      "type": "function"
    },
    {
      "inputs": [],
      "name": "getIPPYNFT",
      "outputs": [
        {
          "internalType": "address",
          "name": "",
          "type": "address"
        }
      ],
      "stateMutability": "view",
      "type": "function"
    },
    {
      "inputs": [],
      "name": "getProbabilityInfo",
      "outputs": [
        {
          "internalType": "uint256",
          "name": "totalRange",
          "type": "uint256"
        },
        {
          "internalType": "uint256",
          "name": "hiddenThreshold",
          "type": "uint256"
        },
        {
          "internalType": "uint256",
          "name": "standardRange",
          "type": "uint256"
        },
        {
          "internalType": "uint256",
          "name": "hiddenProbabilityBasisPoints",
          "type": "uint256"
        }
      ],
      "stateMutability": "pure",
      "type": "function"
    },
    {
      "inputs": [
        {
          "internalType": "uint256",
          "name": "tokenId",
          "type": "uint256"
        }
      ],
      "name": "getTokenURI",
      "outputs": [
        {
          "internalType": "string",
          "name": "",
          "type": "string"
        }
      ],
      "stateMutability": "view",
      "type": "function"
    },
    {
      "inputs": [
        {
          "internalType": "address",
          "name": "user",
          "type": "address"
        }
      ],
      "name": "getUserBoxBalance",
      "outputs": [
        {
          "internalType": "uint256",
          "name": "",
          "type": "uint256"
        }
      ],
      "stateMutability": "view",
      "type": "function"
    },
    {
      "inputs": [],
      "name": "ippyNFT",
      "outputs": [
        {
          "internalType": "contract IIPPYNFT",
          "name": "",
          "type": "address"
        }
      ],
      "stateMutability": "view",
      "type": "function"
    },
    {
      "inputs": [
        {
          "internalType": "address",
          "name": "account",
          "type": "address"
        },
        {
          "internalType": "address",
          "name": "operator",
          "type": "address"
        }
      ],
      "name": "isApprovedForAll",
      "outputs": [
        {
          "internalType": "bool",
          "name": "",
          "type": "bool"
        }
      ],
      "stateMutability": "view",
      "type": "function"
    },
    {
      "inputs": [],
      "name": "maxBoxesPerTx",
      "outputs": [
        {
          "internalType": "uint256",
          "name": "",
          "type": "uint256"
        }
      ],
      "stateMutability": "view",
      "type": "function"
    },
    {
      "inputs": [],
      "name": "maxTotalSupply",
      "outputs": [
        {
          "internalType": "uint256",
          "name": "",
          "type": "uint256"
        }
      ],
      "stateMutability": "view",
      "type": "function"
    },
    {
      "inputs": [
        {
          "internalType": "uint256",
          "name": "amount",
          "type": "uint256"
        }
      ],
      "name": "openBox",
      "outputs": [],
      "stateMutability": "nonpayable",
      "type": "function"
    },
    {
      "inputs": [],
      "name": "owner",
      "outputs": [
        {
          "internalType": "address",
          "name": "",
          "type": "address"
        }
      ],
      "stateMutability": "view",
      "type": "function"
    },
    {
      "inputs": [
        {
          "internalType": "uint256",
          "name": "amount",
          "type": "uint256"
        }
      ],
      "name": "purchaseBoxes",
      "outputs": [],
      "stateMutability": "payable",
      "type": "function"
    },
    {
      "inputs": [],
      "name": "renounceOwnership",
      "outputs": [],
      "stateMutability": "nonpayable",
      "type": "function"
    },
    {
      "inputs": [
        {
          "internalType": "address",
          "name": "from",
          "type": "address"
        },
        {
          "internalType": "address",
          "name": "to",
          "type": "address"
        },
        {
          "internalType": "uint256[]",
          "name": "ids",
          "type": "uint256[]"
        },
        {
          "internalType": "uint256[]",
          "name": "values",
          "type": "uint256[]"
        },
        {
          "internalType": "bytes",
          "name": "data",
          "type": "bytes"
        }
      ],
      "name": "safeBatchTransferFrom",
      "outputs": [],
      "stateMutability": "nonpayable",
      "type": "function"
    },
    {
      "inputs": [
        {
          "internalType": "address",
          "name": "from",
          "type": "address"
        },
        {
          "internalType": "address",
          "name": "to",
          "type": "address"
        },
        {
          "internalType": "uint256",
          "name": "id",
          "type": "uint256"
        },
        {
          "internalType": "uint256",
          "name": "value",
          "type": "uint256"
        },
        {
          "internalType": "bytes",
          "name": "data",
          "type": "bytes"
        }
      ],
      "name": "safeTransferFrom",
      "outputs": [],
      "stateMutability": "nonpayable",
      "type": "function"
    },
    {
      "inputs": [
        {
          "internalType": "address",
          "name": "operator",
          "type": "address"
        },
        {
          "internalType": "bool",
          "name": "approved",
          "type": "bool"
        }
      ],
      "name": "setApprovalForAll",
      "outputs": [],
      "stateMutability": "nonpayable",
      "type": "function"
    },
    {
      "inputs": [
        {
          "internalType": "uint256",
          "name": "_newPrice",
          "type": "uint256"
        }
      ],
      "name": "setBoxPrice",
      "outputs": [],
      "stateMutability": "nonpayable",
      "type": "function"
    },
    {
      "inputs": [
        {
          "internalType": "uint256",
          "name": "_maxBoxes",
          "type": "uint256"
        }
      ],
      "name": "setMaxBoxesPerTx",
      "outputs": [],
      "stateMutability": "nonpayable",
      "type": "function"
    },
    {
      "inputs": [
        {
          "internalType": "uint256",
          "name": "_maxSupply",
          "type": "uint256"
        }
      ],
      "name": "setMaxTotalSupply",
      "outputs": [],
      "stateMutability": "nonpayable",
      "type": "function"
    },
    {
      "inputs": [
        {
          "internalType": "bytes4",
          "name": "interfaceId",
          "type": "bytes4"
        }
      ],
      "name": "supportsInterface",
      "outputs": [
        {
          "internalType": "bool",
          "name": "",
          "type": "bool"
        }
      ],
      "stateMutability": "view",
      "type": "function"
    },
    {
      "inputs": [
        {
          "internalType": "address",
          "name": "newOwner",
          "type": "address"
        }
      ],
      "name": "transferOwnership",
      "outputs": [],
      "stateMutability": "nonpayable",
      "type": "function"
    },
    {
      "inputs": [
        {
          "internalType": "uint256",
          "name": "",
          "type": "uint256"
        }
      ],
      "name": "uri",
      "outputs": [
        {
          "internalType": "string",
          "name": "",
          "type": "string"
        }
      ],
      "stateMutability": "view",
      "type": "function"
    },
    {
      "inputs": [],
      "name": "withdrawFunds",
      "outputs": [],
      "stateMutability": "nonpayable",
      "type": "function"
    }
  ],
  "bytecode": "0x6080604052662386f26fc10000600655600a600755620186a0600855600060095534801561002c57600080fd5b50604051613cd9380380613cd9833981810160405281019061004e9190610285565b336040518060600160405280602b8152602001613cae602b91396100778161014960201b60201c565b50600073ffffffffffffffffffffffffffffffffffffffff168173ffffffffffffffffffffffffffffffffffffffff16036100ea5760006040517f1e4fbdf70000000000000000000000000000000000000000000000000000000081526004016100e191906102c1565b60405180910390fd5b6100f98161015c60201b60201c565b50600160048190555080600560006101000a81548173ffffffffffffffffffffffffffffffffffffffff021916908373ffffffffffffffffffffffffffffffffffffffff160217905550506105fe565b8060029081610158919061052c565b5050565b6000600360009054906101000a900473ffffffffffffffffffffffffffffffffffffffff16905081600360006101000a81548173ffffffffffffffffffffffffffffffffffffffff021916908373ffffffffffffffffffffffffffffffffffffffff1602179055508173ffffffffffffffffffffffffffffffffffffffff168173ffffffffffffffffffffffffffffffffffffffff167f8be0079c531659141344cd1fd0a4f28419497f9722a3daafe3b4186f6b6457e060405160405180910390a35050565b600080fd5b600073ffffffffffffffffffffffffffffffffffffffff82169050919050565b600061025282610227565b9050919050565b61026281610247565b811461026d57600080fd5b50565b60008151905061027f81610259565b92915050565b60006020828403121561029b5761029a610222565b5b60006102a984828501610270565b91505092915050565b6102bb81610247565b82525050565b60006020820190506102d660008301846102b2565b92915050565b600081519050919050565b7f4e487b7100000000000000000000000000000000000000000000000000000000600052604160045260246000fd5b7f4e487b7100000000000000000000000000000000000000000000000000000000600052602260045260246000fd5b6000600282049050600182168061035d57607f821691505b6020821081036103705761036f610316565b5b50919050565b60008190508160005260206000209050919050565b60006020601f8301049050919050565b600082821b905092915050565b6000600883026103d87fffffffffffffffffffffffffffffffffffffffffffffffffffffffffffffffff8261039b565b6103e2868361039b565b95508019841693508086168417925050509392505050565b6000819050919050565b6000819050919050565b600061042961042461041f846103fa565b610404565b6103fa565b9050919050565b6000819050919050565b6104438361040e565b61045761044f82610430565b8484546103a8565b825550505050565b600090565b61046c61045f565b61047781848461043a565b505050565b5b8181101561049b57610490600082610464565b60018101905061047d565b5050565b601f8211156104e0576104b181610376565b6104ba8461038b565b810160208510156104c9578190505b6104dd6104d58561038b565b83018261047c565b50505b505050565b600082821c905092915050565b6000610503600019846008026104e5565b1980831691505092915050565b600061051c83836104f2565b9150826002028217905092915050565b610535826102dc565b67ffffffffffffffff81111561054e5761054d6102e7565b5b6105588254610345565b61056382828561049f565b600060209050601f8311600181146105965760008415610584578287015190505b61058e8582610510565b8655506105f6565b601f1984166105a486610376565b60005b828110156105cc578489015182556001820191506020850194506020810190506105a7565b868310156105e957848901516105e5601f8916826104f2565b8355505b6001600288020188555050505b505050505050565b6136a18061060d6000396000f3fe6080604052600436106101f85760003560e01c8063752ead1f1161010d578063a6482858116100a0578063f1526a451161006f578063f1526a4514610720578063f242432a1461074b578063f2fde38b14610774578063f7dbea3e1461079d578063fbc44549146107c6576101f8565b8063a648285814610664578063b1e5e2b71461068f578063e985e9c5146106b8578063eeb87d16146106f5576101f8565b8063896ff2d2116100dc578063896ff2d2146105ba5780638da5cb5b146105e5578063911045e614610610578063a22cb4651461063b576101f8565b8063752ead1f14610507578063768b16a014610532578063771282f6146105605780637cc1f8671461058b576101f8565b806324600fc3116101905780633bb3a24d1161015f5780633bb3a24d146104225780633f3e4c111461045f5780634e1273f4146104885780635d9008bf146104c5578063715018a6146104f0576101f8565b806324600fc31461038c5780632ab4d052146103a35780632eb2c2d6146103ce57806332963a41146103f7576101f8565b80630e89341c116101cc5780630e89341c146102df5780630fdc8e211461031c578063156b9939146103475780631f0a67e714610363576101f8565b8062fdd58e146101fd57806301ffc9a71461023a57806306452ca214610277578063080cd1b6146102b4575b600080fd5b34801561020957600080fd5b50610224600480360381019061021f919061243b565b6107f1565b604051610231919061248a565b60405180910390f35b34801561024657600080fd5b50610261600480360381019061025c91906124fd565b61084b565b60405161026e9190612545565b60405180910390f35b34801561028357600080fd5b5061029e60048036038101906102999190612560565b61092d565b6040516102ab919061248a565b60405180910390f35b3480156102c057600080fd5b506102c9610941565b6040516102d6919061259c565b60405180910390f35b3480156102eb57600080fd5b50610306600480360381019061030191906125b7565b61096b565b6040516103139190612674565b60405180910390f35b34801561032857600080fd5b506103316109ff565b60405161033e919061248a565b60405180910390f35b610361600480360381019061035c91906125b7565b610a05565b005b34801561036f57600080fd5b5061038a600480360381019061038591906125b7565b610c12565b005b34801561039857600080fd5b506103a1610c24565b005b3480156103af57600080fd5b506103b8610c7c565b6040516103c5919061248a565b60405180910390f35b3480156103da57600080fd5b506103f560048036038101906103f09190612893565b610c82565b005b34801561040357600080fd5b5061040c610d2a565b604051610419919061248a565b60405180910390f35b34801561042e57600080fd5b50610449600480360381019061044491906125b7565b610d2f565b6040516104569190612674565b60405180910390f35b34801561046b57600080fd5b50610486600480360381019061048191906125b7565b610d58565b005b34801561049457600080fd5b506104af60048036038101906104aa9190612a25565b610daf565b6040516104bc9190612b5b565b60405180910390f35b3480156104d157600080fd5b506104da610eb8565b6040516104e7919061248a565b60405180910390f35b3480156104fc57600080fd5b50610505610ebd565b005b34801561051357600080fd5b5061051c610ed1565b604051610529919061248a565b60405180910390f35b34801561053e57600080fd5b50610547610ed6565b6040516105579493929190612b7d565b60405180910390f35b34801561056c57600080fd5b50610575610f29565b604051610582919061248a565b60405180910390f35b34801561059757600080fd5b506105a0610f2f565b6040516105b1959493929190612bc2565b60405180910390f35b3480156105c657600080fd5b506105cf610f64565b6040516105dc9190612c74565b60405180910390f35b3480156105f157600080fd5b506105fa610f8a565b604051610607919061259c565b60405180910390f35b34801561061c57600080fd5b50610625610fb4565b604051610632919061248a565b60405180910390f35b34801561064757600080fd5b50610662600480360381019061065d9190612cbb565b610fb9565b005b34801561067057600080fd5b50610679610fcf565b604051610686919061248a565b60405180910390f35b34801561069b57600080fd5b506106b660048036038101906106b191906125b7565b610fd5565b005b3480156106c457600080fd5b506106df60048036038101906106da9190612cfb565b6111cb565b6040516106ec9190612545565b60405180910390f35b34801561070157600080fd5b5061070a61125f565b604051610717919061248a565b60405180910390f35b34801561072c57600080fd5b50610735611264565b604051610742919061248a565b60405180910390f35b34801561075757600080fd5b50610772600480360381019061076d9190612d3b565b611269565b005b34801561078057600080fd5b5061079b60048036038101906107969190612560565b611311565b005b3480156107a957600080fd5b506107c460048036038101906107bf91906125b7565b611397565b005b3480156107d257600080fd5b506107db6113e0565b6040516107e8919061248a565b60405180910390f35b600080600083815260200190815260200160002060008473ffffffffffffffffffffffffffffffffffffffff1673ffffffffffffffffffffffffffffffffffffffff16815260200190815260200160002054905092915050565b60007fd9b67a26000000000000000000000000000000000000000000000000000000007bffffffffffffffffffffffffffffffffffffffffffffffffffffffff1916827bffffffffffffffffffffffffffffffffffffffffffffffffffffffff1916148061091657507f0e89341c000000000000000000000000000000000000000000000000000000007bffffffffffffffffffffffffffffffffffffffffffffffffffffffff1916827bffffffffffffffffffffffffffffffffffffffffffffffffffffffff1916145b806109265750610925826113e5565b5b9050919050565b600061093a8260016107f1565b9050919050565b6000600560009054906101000a900473ffffffffffffffffffffffffffffffffffffffff16905090565b60606002805461097a90612e01565b80601f01602080910402602001604051908101604052809291908181526020018280546109a690612e01565b80156109f35780601f106109c8576101008083540402835291602001916109f3565b820191906000526020600020905b8154815290600101906020018083116109d657829003601f168201915b50505050509050919050565b60075481565b610a0d61144f565b600081118015610a1f57506007548111155b610a5e576040517f08c379a0000000000000000000000000000000000000000000000000000000008152600401610a5590612e7e565b60405180910390fd5b60085481600954610a6f9190612ecd565b1115610ab0576040517f08c379a0000000000000000000000000000000000000000000000000000000008152600401610aa790612f4d565b60405180910390fd5b80600654610abe9190612f6d565b341015610b00576040517f08c379a0000000000000000000000000000000000000000000000000000000008152600401610af790612ffb565b60405180910390fd5b610b1c3360018360405180602001604052806000815250611495565b8060096000828254610b2e9190612ecd565b925050819055503373ffffffffffffffffffffffffffffffffffffffff167f563f765c41c933a7649731114db930be8ad7c1b074e4205688672be38854d2648283600654610b7c9190612f6d565b604051610b8a92919061301b565b60405180910390a280600654610ba09190612f6d565b341115610c07573373ffffffffffffffffffffffffffffffffffffffff166108fc82600654610bcf9190612f6d565b34610bda9190613044565b9081150290604051600060405180830381858888f19350505050158015610c05573d6000803e3d6000fd5b505b610c0f61152e565b50565b610c1a611538565b8060078190555050565b610c2c611538565b610c34610f8a565b73ffffffffffffffffffffffffffffffffffffffff166108fc479081150290604051600060405180830381858888f19350505050158015610c79573d6000803e3d6000fd5b50565b60085481565b6000610c8c6115bf565b90508073ffffffffffffffffffffffffffffffffffffffff168673ffffffffffffffffffffffffffffffffffffffff1614158015610cd15750610ccf86826111cb565b155b15610d155780866040517fe237d922000000000000000000000000000000000000000000000000000000008152600401610d0c929190613078565b60405180910390fd5b610d2286868686866115c7565b505050505050565b600581565b606081604051602001610d429190613119565b6040516020818303038152906040529050919050565b610d60611538565b600954811015610da5576040517f08c379a0000000000000000000000000000000000000000000000000000000008152600401610d9c9061318b565b60405180910390fd5b8060088190555050565b60608151835114610dfb57815183516040517f5b059991000000000000000000000000000000000000000000000000000000008152600401610df292919061301b565b60405180910390fd5b6000835167ffffffffffffffff811115610e1857610e1761269b565b5b604051908082528060200260200182016040528015610e465781602001602082028036833780820191505090505b50905060005b8451811015610ead57610e83610e6b82876116bf90919063ffffffff16565b610e7e83876116d390919063ffffffff16565b6107f1565b828281518110610e9657610e956131ab565b5b602002602001018181525050806001019050610e4c565b508091505092915050565b600281565b610ec5611538565b610ecf60006116e7565b565b600681565b6000806000806298968060016006600162989680610ef49190613044565b610efe9190613209565b629896806127106001610f119190612f6d565b610f1b9190613209565b935093509350935090919293565b60095481565b6000806000806000600654600754600854600954600954600854610f539190613044565b945094509450945094509091929394565b600560009054906101000a900473ffffffffffffffffffffffffffffffffffffffff1681565b6000600360009054906101000a900473ffffffffffffffffffffffffffffffffffffffff16905090565b600381565b610fcb610fc46115bf565b83836117ad565b5050565b60065481565b610fdd61144f565b60008111611020576040517f08c379a000000000000000000000000000000000000000000000000000000000815260040161101790613286565b60405180910390fd5b8061102c3360016107f1565b101561106d576040517f08c379a0000000000000000000000000000000000000000000000000000000008152600401611064906132f2565b60405180910390fd5b6110793360018361191d565b600061108560016119c4565b9050600560009054906101000a900473ffffffffffffffffffffffffffffffffffffffff1673ffffffffffffffffffffffffffffffffffffffff166340c10f1933836040518363ffffffff1660e01b81526004016110e4929190613312565b600060405180830381600087803b1580156110fe57600080fd5b505af1158015611112573d6000803e3d6000fd5b50505050600080821490503373ffffffffffffffffffffffffffffffffffffffff167f4969514c39ffcc58b7e619b4be3dbadf6517aaea3fe3e32983cc79460d901b316001848460405161116893929190613376565b60405180910390a23373ffffffffffffffffffffffffffffffffffffffff167f4cc0a9c4a99ddc700de1af2c9f916a7cbfdb71f14801ccff94061ad1ef8a8040836040516111b6919061248a565b60405180910390a250506111c861152e565b50565b6000600160008473ffffffffffffffffffffffffffffffffffffffff1673ffffffffffffffffffffffffffffffffffffffff16815260200190815260200160002060008373ffffffffffffffffffffffffffffffffffffffff1673ffffffffffffffffffffffffffffffffffffffff16815260200190815260200160002060009054906101000a900460ff16905092915050565b600181565b600481565b60006112736115bf565b90508073ffffffffffffffffffffffffffffffffffffffff168673ffffffffffffffffffffffffffffffffffffffff16141580156112b857506112b686826111cb565b155b156112fc5780866040517fe237d9220000000000000000000000000000000000000000000000000000000081526004016112f3929190613078565b60405180910390fd5b6113098686868686611a22565b505050505050565b611319611538565b600073ffffffffffffffffffffffffffffffffffffffff168173ffffffffffffffffffffffffffffffffffffffff160361138b5760006040517f1e4fbdf7000000000000000000000000000000000000000000000000000000008152600401611382919061259c565b60405180910390fd5b611394816116e7565b50565b61139f611538565b806006819055507f66cbca4f3c64fecf1dcb9ce094abcf7f68c3450a1d4e3a8e917dd621edb4ebe0816040516113d5919061248a565b60405180910390a150565b600081565b60007f01ffc9a7000000000000000000000000000000000000000000000000000000007bffffffffffffffffffffffffffffffffffffffffffffffffffffffff1916827bffffffffffffffffffffffffffffffffffffffffffffffffffffffff1916149050919050565b60026004540361148b576040517f3ee5aeb500000000000000000000000000000000000000000000000000000000815260040160405180910390fd5b6002600481905550565b600073ffffffffffffffffffffffffffffffffffffffff168473ffffffffffffffffffffffffffffffffffffffff16036115075760006040517f57f447ce0000000000000000000000000000000000000000000000000000000081526004016114fe919061259c565b60405180910390fd5b6000806115148585611b2d565b91509150611526600087848487611b5d565b505050505050565b6001600481905550565b6115406115bf565b73ffffffffffffffffffffffffffffffffffffffff1661155e610f8a565b73ffffffffffffffffffffffffffffffffffffffff16146115bd576115816115bf565b6040517f118cdaa70000000000000000000000000000000000000000000000000000000081526004016115b4919061259c565b60405180910390fd5b565b600033905090565b600073ffffffffffffffffffffffffffffffffffffffff168473ffffffffffffffffffffffffffffffffffffffff16036116395760006040517f57f447ce000000000000000000000000000000000000000000000000000000008152600401611630919061259c565b60405180910390fd5b600073ffffffffffffffffffffffffffffffffffffffff168573ffffffffffffffffffffffffffffffffffffffff16036116ab5760006040517f01a835140000000000000000000000000000000000000000000000000000000081526004016116a2919061259c565b60405180910390fd5b6116b88585858585611b5d565b5050505050565b600060208202602084010151905092915050565b600060208202602084010151905092915050565b6000600360009054906101000a900473ffffffffffffffffffffffffffffffffffffffff16905081600360006101000a81548173ffffffffffffffffffffffffffffffffffffffff021916908373ffffffffffffffffffffffffffffffffffffffff1602179055508173ffffffffffffffffffffffffffffffffffffffff168173ffffffffffffffffffffffffffffffffffffffff167f8be0079c531659141344cd1fd0a4f28419497f9722a3daafe3b4186f6b6457e060405160405180910390a35050565b600073ffffffffffffffffffffffffffffffffffffffff168273ffffffffffffffffffffffffffffffffffffffff160361181f5760006040517fced3e100000000000000000000000000000000000000000000000000000000008152600401611816919061259c565b60405180910390fd5b80600160008573ffffffffffffffffffffffffffffffffffffffff1673ffffffffffffffffffffffffffffffffffffffff16815260200190815260200160002060008473ffffffffffffffffffffffffffffffffffffffff1673ffffffffffffffffffffffffffffffffffffffff16815260200190815260200160002060006101000a81548160ff0219169083151502179055508173ffffffffffffffffffffffffffffffffffffffff168373ffffffffffffffffffffffffffffffffffffffff167f17307eab39ab6107e8899845ad3d59bd9653f200f220920489ca2b5937696c31836040516119109190612545565b60405180910390a3505050565b600073ffffffffffffffffffffffffffffffffffffffff168373ffffffffffffffffffffffffffffffffffffffff160361198f5760006040517f01a83514000000000000000000000000000000000000000000000000000000008152600401611986919061259c565b60405180910390fd5b60008061199c8484611b2d565b915091506119bd856000848460405180602001604052806000815250611b5d565b5050505050565b600080424433433a876040516020016119e2969594939291906133f5565b6040516020818303038152906040528051906020012060001c905060006298968082611a0e9190613465565b9050611a1981611c0f565b92505050919050565b600073ffffffffffffffffffffffffffffffffffffffff168473ffffffffffffffffffffffffffffffffffffffff1603611a945760006040517f57f447ce000000000000000000000000000000000000000000000000000000008152600401611a8b919061259c565b60405180910390fd5b600073ffffffffffffffffffffffffffffffffffffffff168573ffffffffffffffffffffffffffffffffffffffff1603611b065760006040517f01a83514000000000000000000000000000000000000000000000000000000008152600401611afd919061259c565b60405180910390fd5b600080611b138585611b2d565b91509150611b248787848487611b5d565b50505050505050565b60608060405191506001825283602083015260408201905060018152826020820152604081016040529250929050565b611b6985858585611c83565b600073ffffffffffffffffffffffffffffffffffffffff168473ffffffffffffffffffffffffffffffffffffffff1614611c08576000611ba76115bf565b90506001845103611bf7576000611bc86000866116d390919063ffffffff16565b90506000611be06000866116d390919063ffffffff16565b9050611bf083898985858961202b565b5050611c06565b611c058187878787876121df565b5b505b5050505050565b60006001821015611c235760009050611c7e565b6000600183611c329190613044565b905060006006600162989680611c489190613044565b611c529190613209565b82611c5d9190613209565b905060068110611c6c57600590505b806001611c799190612ecd565b925050505b919050565b8051825114611ccd57815181516040517f5b059991000000000000000000000000000000000000000000000000000000008152600401611cc492919061301b565b60405180910390fd5b6000611cd76115bf565b905060005b8351811015611ee6576000611cfa82866116d390919063ffffffff16565b90506000611d1183866116d390919063ffffffff16565b9050600073ffffffffffffffffffffffffffffffffffffffff168873ffffffffffffffffffffffffffffffffffffffff1614611e3e57600080600084815260200190815260200160002060008a73ffffffffffffffffffffffffffffffffffffffff1673ffffffffffffffffffffffffffffffffffffffff16815260200190815260200160002054905081811015611de657888183856040517f03dee4c5000000000000000000000000000000000000000000000000000000008152600401611ddd9493929190613496565b60405180910390fd5b81810360008085815260200190815260200160002060008b73ffffffffffffffffffffffffffffffffffffffff1673ffffffffffffffffffffffffffffffffffffffff16815260200190815260200160002081905550505b600073ffffffffffffffffffffffffffffffffffffffff168773ffffffffffffffffffffffffffffffffffffffff1614611ed9578060008084815260200190815260200160002060008973ffffffffffffffffffffffffffffffffffffffff1673ffffffffffffffffffffffffffffffffffffffff1681526020019081526020016000206000828254611ed19190612ecd565b925050819055505b5050806001019050611cdc565b506001835103611fa5576000611f066000856116d390919063ffffffff16565b90506000611f1e6000856116d390919063ffffffff16565b90508573ffffffffffffffffffffffffffffffffffffffff168773ffffffffffffffffffffffffffffffffffffffff168473ffffffffffffffffffffffffffffffffffffffff167fc3d58168c5ae7397731d063d5bbf3d657854427343f4c083240f7aacaa2d0f628585604051611f9692919061301b565b60405180910390a45050612024565b8373ffffffffffffffffffffffffffffffffffffffff168573ffffffffffffffffffffffffffffffffffffffff168273ffffffffffffffffffffffffffffffffffffffff167f4a39dc06d4c0dbc64b70af90fd698a233a518aa5d07e595d983b8c0526c8f7fb868660405161201b9291906134db565b60405180910390a45b5050505050565b60008473ffffffffffffffffffffffffffffffffffffffff163b11156121d7578373ffffffffffffffffffffffffffffffffffffffff1663f23a6e6187878686866040518663ffffffff1660e01b815260040161208c959493929190613567565b6020604051808303816000875af19250505080156120c857506040513d601f19601f820116820180604052508101906120c591906135d6565b60015b61214c573d80600081146120f8576040519150601f19603f3d011682016040523d82523d6000602084013e6120fd565b606091505b50600081510361214457846040517f57f447ce00000000000000000000000000000000000000000000000000000000815260040161213b919061259c565b60405180910390fd5b805181602001fd5b63f23a6e6160e01b7bffffffffffffffffffffffffffffffffffffffffffffffffffffffff1916817bffffffffffffffffffffffffffffffffffffffffffffffffffffffff1916146121d557846040517f57f447ce0000000000000000000000000000000000000000000000000000000081526004016121cc919061259c565b60405180910390fd5b505b505050505050565b60008473ffffffffffffffffffffffffffffffffffffffff163b111561238b578373ffffffffffffffffffffffffffffffffffffffff1663bc197c8187878686866040518663ffffffff1660e01b8152600401612240959493929190613603565b6020604051808303816000875af192505050801561227c57506040513d601f19601f8201168201806040525081019061227991906135d6565b60015b612300573d80600081146122ac576040519150601f19603f3d011682016040523d82523d6000602084013e6122b1565b606091505b5060008151036122f857846040517f57f447ce0000000000000000000000000000000000000000000000000000000081526004016122ef919061259c565b60405180910390fd5b805181602001fd5b63bc197c8160e01b7bffffffffffffffffffffffffffffffffffffffffffffffffffffffff1916817bffffffffffffffffffffffffffffffffffffffffffffffffffffffff19161461238957846040517f57f447ce000000000000000000000000000000000000000000000000000000008152600401612380919061259c565b60405180910390fd5b505b505050505050565b6000604051905090565b600080fd5b600080fd5b600073ffffffffffffffffffffffffffffffffffffffff82169050919050565b60006123d2826123a7565b9050919050565b6123e2816123c7565b81146123ed57600080fd5b50565b6000813590506123ff816123d9565b92915050565b6000819050919050565b61241881612405565b811461242357600080fd5b50565b6000813590506124358161240f565b92915050565b600080604083850312156124525761245161239d565b5b6000612460858286016123f0565b925050602061247185828601612426565b9150509250929050565b61248481612405565b82525050565b600060208201905061249f600083018461247b565b92915050565b60007fffffffff0000000000000000000000000000000000000000000000000000000082169050919050565b6124da816124a5565b81146124e557600080fd5b50565b6000813590506124f7816124d1565b92915050565b6000602082840312156125135761251261239d565b5b6000612521848285016124e8565b91505092915050565b60008115159050919050565b61253f8161252a565b82525050565b600060208201905061255a6000830184612536565b92915050565b6000602082840312156125765761257561239d565b5b6000612584848285016123f0565b91505092915050565b612596816123c7565b82525050565b60006020820190506125b1600083018461258d565b92915050565b6000602082840312156125cd576125cc61239d565b5b60006125db84828501612426565b91505092915050565b600081519050919050565b600082825260208201905092915050565b60005b8381101561261e578082015181840152602081019050612603565b60008484015250505050565b6000601f19601f8301169050919050565b6000612646826125e4565b61265081856125ef565b9350612660818560208601612600565b6126698161262a565b840191505092915050565b6000602082019050818103600083015261268e818461263b565b905092915050565b600080fd5b7f4e487b7100000000000000000000000000000000000000000000000000000000600052604160045260246000fd5b6126d38261262a565b810181811067ffffffffffffffff821117156126f2576126f161269b565b5b80604052505050565b6000612705612393565b905061271182826126ca565b919050565b600067ffffffffffffffff8211156127315761273061269b565b5b602082029050602081019050919050565b600080fd5b600061275a61275584612716565b6126fb565b9050808382526020820190506020840283018581111561277d5761277c612742565b5b835b818110156127a657806127928882612426565b84526020840193505060208101905061277f565b5050509392505050565b600082601f8301126127c5576127c4612696565b5b81356127d5848260208601612747565b91505092915050565b600080fd5b600067ffffffffffffffff8211156127fe576127fd61269b565b5b6128078261262a565b9050602081019050919050565b82818337600083830152505050565b6000612836612831846127e3565b6126fb565b905082815260208101848484011115612852576128516127de565b5b61285d848285612814565b509392505050565b600082601f83011261287a57612879612696565b5b813561288a848260208601612823565b91505092915050565b600080600080600060a086880312156128af576128ae61239d565b5b60006128bd888289016123f0565b95505060206128ce888289016123f0565b945050604086013567ffffffffffffffff8111156128ef576128ee6123a2565b5b6128fb888289016127b0565b935050606086013567ffffffffffffffff81111561291c5761291b6123a2565b5b612928888289016127b0565b925050608086013567ffffffffffffffff811115612949576129486123a2565b5b61295588828901612865565b9150509295509295909350565b600067ffffffffffffffff82111561297d5761297c61269b565b5b602082029050602081019050919050565b60006129a161299c84612962565b6126fb565b905080838252602082019050602084028301858111156129c4576129c3612742565b5b835b818110156129ed57806129d988826123f0565b8452602084019350506020810190506129c6565b5050509392505050565b600082601f830112612a0c57612a0b612696565b5b8135612a1c84826020860161298e565b91505092915050565b60008060408385031215612a3c57612a3b61239d565b5b600083013567ffffffffffffffff811115612a5a57612a596123a2565b5b612a66858286016129f7565b925050602083013567ffffffffffffffff811115612a8757612a866123a2565b5b612a93858286016127b0565b9150509250929050565b600081519050919050565b600082825260208201905092915050565b6000819050602082019050919050565b612ad281612405565b82525050565b6000612ae48383612ac9565b60208301905092915050565b6000602082019050919050565b6000612b0882612a9d565b612b128185612aa8565b9350612b1d83612ab9565b8060005b83811015612b4e578151612b358882612ad8565b9750612b4083612af0565b925050600181019050612b21565b5085935050505092915050565b60006020820190508181036000830152612b758184612afd565b905092915050565b6000608082019050612b92600083018761247b565b612b9f602083018661247b565b612bac604083018561247b565b612bb9606083018461247b565b95945050505050565b600060a082019050612bd7600083018861247b565b612be4602083018761247b565b612bf1604083018661247b565b612bfe606083018561247b565b612c0b608083018461247b565b9695505050505050565b6000819050919050565b6000612c3a612c35612c30846123a7565b612c15565b6123a7565b9050919050565b6000612c4c82612c1f565b9050919050565b6000612c5e82612c41565b9050919050565b612c6e81612c53565b82525050565b6000602082019050612c896000830184612c65565b92915050565b612c988161252a565b8114612ca357600080fd5b50565b600081359050612cb581612c8f565b92915050565b60008060408385031215612cd257612cd161239d565b5b6000612ce0858286016123f0565b9250506020612cf185828601612ca6565b9150509250929050565b60008060408385031215612d1257612d1161239d565b5b6000612d20858286016123f0565b9250506020612d31858286016123f0565b9150509250929050565b600080600080600060a08688031215612d5757612d5661239d565b5b6000612d65888289016123f0565b9550506020612d76888289016123f0565b9450506040612d8788828901612426565b9350506060612d9888828901612426565b925050608086013567ffffffffffffffff811115612db957612db86123a2565b5b612dc588828901612865565b9150509295509295909350565b7f4e487b7100000000000000000000000000000000000000000000000000000000600052602260045260246000fd5b60006002820490506001821680612e1957607f821691505b602082108103612e2c57612e2b612dd2565b5b50919050565b7f496e76616c696420616d6f756e74000000000000000000000000000000000000600082015250565b6000612e68600e836125ef565b9150612e7382612e32565b602082019050919050565b60006020820190508181036000830152612e9781612e5b565b9050919050565b7f4e487b7100000000000000000000000000000000000000000000000000000000600052601160045260246000fd5b6000612ed882612405565b9150612ee383612405565b9250828201905080821115612efb57612efa612e9e565b5b92915050565b7f45786365656473206d617820737570706c790000000000000000000000000000600082015250565b6000612f376012836125ef565b9150612f4282612f01565b602082019050919050565b60006020820190508181036000830152612f6681612f2a565b9050919050565b6000612f7882612405565b9150612f8383612405565b9250828202612f9181612405565b91508282048414831517612fa857612fa7612e9e565b5b5092915050565b7f496e73756666696369656e74207061796d656e74000000000000000000000000600082015250565b6000612fe56014836125ef565b9150612ff082612faf565b602082019050919050565b6000602082019050818103600083015261301481612fd8565b9050919050565b6000604082019050613030600083018561247b565b61303d602083018461247b565b9392505050565b600061304f82612405565b915061305a83612405565b925082820390508181111561307257613071612e9e565b5b92915050565b600060408201905061308d600083018561258d565b61309a602083018461258d565b9392505050565b600081905092915050565b7f68747470733a2f2f6170692e626c696e64626f782e636f6d2f746f6b656e2f00600082015250565b60006130e2601f836130a1565b91506130ed826130ac565b601f82019050919050565b6000819050919050565b61311361310e82612405565b6130f8565b82525050565b6000613124826130d5565b91506131308284613102565b60208201915081905092915050565b7f43616e6e6f74207365742062656c6f772063757272656e7420737570706c7900600082015250565b6000613175601f836125ef565b91506131808261313f565b602082019050919050565b600060208201905081810360008301526131a481613168565b9050919050565b7f4e487b7100000000000000000000000000000000000000000000000000000000600052603260045260246000fd5b7f4e487b7100000000000000000000000000000000000000000000000000000000600052601260045260246000fd5b600061321482612405565b915061321f83612405565b92508261322f5761322e6131da565b5b828204905092915050565b7f416d6f756e74206d7573742062652067726561746572207468616e2030000000600082015250565b6000613270601d836125ef565b915061327b8261323a565b602082019050919050565b6000602082019050818103600083015261329f81613263565b9050919050565b7f496e73756666696369656e7420626f7865730000000000000000000000000000600082015250565b60006132dc6012836125ef565b91506132e7826132a6565b602082019050919050565b6000602082019050818103600083015261330b816132cf565b9050919050565b6000604082019050613327600083018561258d565b613334602083018461247b565b9392505050565b6000819050919050565b600061336061335b6133568461333b565b612c15565b612405565b9050919050565b61337081613345565b82525050565b600060608201905061338b6000830186613367565b613398602083018561247b565b6133a56040830184612536565b949350505050565b60008160601b9050919050565b60006133c5826133ad565b9050919050565b60006133d7826133ba565b9050919050565b6133ef6133ea826123c7565b6133cc565b82525050565b60006134018289613102565b6020820191506134118288613102565b60208201915061342182876133de565b6014820191506134318286613102565b6020820191506134418285613102565b6020820191506134518284613102565b602082019150819050979650505050505050565b600061347082612405565b915061347b83612405565b92508261348b5761348a6131da565b5b828206905092915050565b60006080820190506134ab600083018761258d565b6134b8602083018661247b565b6134c5604083018561247b565b6134d2606083018461247b565b95945050505050565b600060408201905081810360008301526134f58185612afd565b905081810360208301526135098184612afd565b90509392505050565b600081519050919050565b600082825260208201905092915050565b600061353982613512565b613543818561351d565b9350613553818560208601612600565b61355c8161262a565b840191505092915050565b600060a08201905061357c600083018861258d565b613589602083018761258d565b613596604083018661247b565b6135a3606083018561247b565b81810360808301526135b5818461352e565b90509695505050505050565b6000815190506135d0816124d1565b92915050565b6000602082840312156135ec576135eb61239d565b5b60006135fa848285016135c1565b91505092915050565b600060a082019050613618600083018861258d565b613625602083018761258d565b81810360408301526136378186612afd565b9050818103606083015261364b8185612afd565b9050818103608083015261365f818461352e565b9050969550505050505056fea26469706673582212204bf3fde2c93a0d1e0efd86710ea328ab7f5514908e3557ac4aea36534042bb4c64736f6c634300081c003368747470733a2f2f6170692e626c696e64626f782e636f6d2f6d657461646174612f7b69647d2e6a736f6e",
  "linkReferences": {},
  "deployedLinkReferences": {}
}