{
  "_format": "hh-sol-artifact-1",
  "contractName": "IPPYNFT",
  "sourceName": "contracts/IPPYNFT.sol",
  "abi": [
    {
      "inputs": [],
      "stateMutability": "nonpayable",
      "type": "constructor"
    },
    {
      "inputs": [],
      "name": "ERC721EnumerableForbiddenBatchMint",
      "type": "error"
    },
    {
      "inputs": [
        {
          "internalType": "address",
          "name": "sender",
          "type": "address"
        },
        {
          "internalType": "uint256",
          "name": "tokenId",
          "type": "uint256"
        },
        {
          "internalType": "address",
          "name": "owner",
          "type": "address"
        }
      ],
      "name": "ERC721IncorrectOwner",
      "type": "error"
    },
    {
      "inputs": [
        {
          "internalType": "address",
          "name": "operator",
          "type": "address"
        },
        {
          "internalType": "uint256",
          "name": "tokenId",
          "type": "uint256"
        }
      ],
      "name": "ERC721InsufficientApproval",
      "type": "error"
    },
    {
      "inputs": [
        {
          "internalType": "address",
          "name": "approver",
          "type": "address"
        }
      ],
      "name": "ERC721InvalidApprover",
      "type": "error"
    },
    {
      "inputs": [
        {
          "internalType": "address",
          "name": "operator",
          "type": "address"
        }
      ],
      "name": "ERC721InvalidOperator",
      "type": "error"
    },
    {
      "inputs": [
        {
          "internalType": "address",
          "name": "owner",
          "type": "address"
        }
      ],
      "name": "ERC721InvalidOwner",
      "type": "error"
    },
    {
      "inputs": [
        {
          "internalType": "address",
          "name": "receiver",
          "type": "address"
        }
      ],
      "name": "ERC721InvalidReceiver",
      "type": "error"
    },
    {
      "inputs": [
        {
          "internalType": "address",
          "name": "sender",
          "type": "address"
        }
      ],
      "name": "ERC721InvalidSender",
      "type": "error"
    },
    {
      "inputs": [
        {
          "internalType": "uint256",
          "name": "tokenId",
          "type": "uint256"
        }
      ],
      "name": "ERC721NonexistentToken",
      "type": "error"
    },
    {
      "inputs": [
        {
          "internalType": "address",
          "name": "owner",
          "type": "address"
        },
        {
          "internalType": "uint256",
          "name": "index",
          "type": "uint256"
        }
      ],
      "name": "ERC721OutOfBoundsIndex",
      "type": "error"
    },
    {
      "inputs": [
        {
          "internalType": "address",
          "name": "owner",
          "type": "address"
        }
      ],
      "name": "OwnableInvalidOwner",
      "type": "error"
    },
    {
      "inputs": [
        {
          "internalType": "address",
          "name": "account",
          "type": "address"
        }
      ],
      "name": "OwnableUnauthorizedAccount",
      "type": "error"
    },
    {
      "anonymous": false,
      "inputs": [
        {
          "indexed": true,
          "internalType": "address",
          "name": "owner",
          "type": "address"
        },
        {
          "indexed": true,
          "internalType": "address",
          "name": "approved",
          "type": "address"
        },
        {
          "indexed": true,
          "internalType": "uint256",
          "name": "tokenId",
          "type": "uint256"
        }
      ],
      "name": "Approval",
      "type": "event"
    },
    {
      "anonymous": false,
      "inputs": [
        {
          "indexed": true,
          "internalType": "address",
          "name": "owner",
          "type": "address"
        },
        {
          "indexed": true,
          "internalType": "address",
          "name": "operator",
          "type": "address"
        },
        {
          "indexed": false,
          "internalType": "bool",
          "name": "approved",
          "type": "bool"
        }
      ],
      "name": "ApprovalForAll",
      "type": "event"
    },
    {
      "anonymous": false,
      "inputs": [
        {
          "indexed": false,
          "internalType": "string",
          "name": "newStandardURI",
          "type": "string"
        },
        {
          "indexed": false,
          "internalType": "string",
          "name": "newHiddenURI",
          "type": "string"
        }
      ],
      "name": "BaseURIUpdated",
      "type": "event"
    },
    {
      "anonymous": false,
      "inputs": [
        {
          "indexed": true,
          "internalType": "address",
          "name": "to",
          "type": "address"
        },
        {
          "indexed": true,
          "internalType": "uint256",
          "name": "tokenId",
          "type": "uint256"
        },
        {
          "indexed": false,
          "internalType": "bool",
          "name": "isHidden",
          "type": "bool"
        }
      ],
      "name": "NFTMinted",
      "type": "event"
    },
    {
      "anonymous": false,
      "inputs": [
        {
          "indexed": true,
          "internalType": "address",
          "name": "previousOwner",
          "type": "address"
        },
        {
          "indexed": true,
          "internalType": "address",
          "name": "newOwner",
          "type": "address"
        }
      ],
      "name": "OwnershipTransferred",
      "type": "event"
    },
    {
      "anonymous": false,
      "inputs": [
        {
          "indexed": true,
          "internalType": "address",
          "name": "from",
          "type": "address"
        },
        {
          "indexed": true,
          "internalType": "address",
          "name": "to",
          "type": "address"
        },
        {
          "indexed": true,
          "internalType": "uint256",
          "name": "tokenId",
          "type": "uint256"
        }
      ],
      "name": "Transfer",
      "type": "event"
    },
    {
      "inputs": [],
      "name": "HIDDEN_NFT_ID",
      "outputs": [
        {
          "internalType": "uint256",
          "name": "",
          "type": "uint256"
        }
      ],
      "stateMutability": "view",
      "type": "function"
    },
    {
      "inputs": [
        {
          "internalType": "address",
          "name": "to",
          "type": "address"
        },
        {
          "internalType": "uint256",
          "name": "tokenId",
          "type": "uint256"
        }
      ],
      "name": "approve",
      "outputs": [],
      "stateMutability": "nonpayable",
      "type": "function"
    },
    {
      "inputs": [
        {
          "internalType": "address",
          "name": "owner",
          "type": "address"
        }
      ],
      "name": "balanceOf",
      "outputs": [
        {
          "internalType": "uint256",
          "name": "",
          "type": "uint256"
        }
      ],
      "stateMutability": "view",
      "type": "function"
    },
    {
      "inputs": [],
      "name": "blindBoxContract",
      "outputs": [
        {
          "internalType": "address",
          "name": "",
          "type": "address"
        }
      ],
      "stateMutability": "view",
      "type": "function"
    },
    {
      "inputs": [
        {
          "internalType": "uint256",
          "name": "tokenId",
          "type": "uint256"
        }
      ],
      "name": "getApproved",
      "outputs": [
        {
          "internalType": "address",
          "name": "",
          "type": "address"
        }
      ],
      "stateMutability": "view",
      "type": "function"
    },
    {
      "inputs": [],
      "name": "getBaseURIs",
      "outputs": [
        {
          "internalType": "string",
          "name": "standard",
          "type": "string"
        },
        {
          "internalType": "string",
          "name": "hidden",
          "type": "string"
        }
      ],
      "stateMutability": "view",
      "type": "function"
    },
    {
      "inputs": [],
      "name": "getGlobalNFTStats",
      "outputs": [
        {
          "internalType": "uint256[]",
          "name": "types",
          "type": "uint256[]"
        },
        {
          "internalType": "uint256[]",
          "name": "counts",
          "type": "uint256[]"
        },
        {
          "internalType": "uint256",
          "name": "totalMinted",
          "type": "uint256"
        }
      ],
      "stateMutability": "view",
      "type": "function"
    },
    {
      "inputs": [
        {
          "internalType": "address",
          "name": "user",
          "type": "address"
        }
      ],
      "name": "getUserNFTTypeCounts",
      "outputs": [
        {
          "internalType": "uint256[]",
          "name": "types",
          "type": "uint256[]"
        },
        {
          "internalType": "uint256[]",
          "name": "counts",
          "type": "uint256[]"
        }
      ],
      "stateMutability": "view",
      "type": "function"
    },
    {
      "inputs": [
        {
          "internalType": "address",
          "name": "user",
          "type": "address"
        }
      ],
      "name": "getUserNFTs",
      "outputs": [
        {
          "internalType": "uint256[]",
          "name": "tokenIds",
          "type": "uint256[]"
        },
        {
          "internalType": "uint256[]",
          "name": "nftTypes",
          "type": "uint256[]"
        },
        {
          "internalType": "string[]",
          "name": "tokenURIs",
          "type": "string[]"
        }
      ],
      "stateMutability": "view",
      "type": "function"
    },
    {
      "inputs": [
        {
          "internalType": "address",
          "name": "owner",
          "type": "address"
        },
        {
          "internalType": "address",
          "name": "operator",
          "type": "address"
        }
      ],
      "name": "isApprovedForAll",
      "outputs": [
        {
          "internalType": "bool",
          "name": "",
          "type": "bool"
        }
      ],
      "stateMutability": "view",
      "type": "function"
    },
    {
      "inputs": [
        {
          "internalType": "address",
          "name": "to",
          "type": "address"
        },
        {
          "internalType": "uint256",
          "name": "tokenId",
          "type": "uint256"
        }
      ],
      "name": "mint",
      "outputs": [],
      "stateMutability": "nonpayable",
      "type": "function"
    },
    {
      "inputs": [],
      "name": "name",
      "outputs": [
        {
          "internalType": "string",
          "name": "",
          "type": "string"
        }
      ],
      "stateMutability": "view",
      "type": "function"
    },
    {
      "inputs": [
        {
          "internalType": "uint256",
          "name": "",
          "type": "uint256"
        }
      ],
      "name": "nftTypeCounts",
      "outputs": [
        {
          "internalType": "uint256",
          "name": "",
          "type": "uint256"
        }
      ],
      "stateMutability": "view",
      "type": "function"
    },
    {
      "inputs": [],
      "name": "owner",
      "outputs": [
        {
          "internalType": "address",
          "name": "",
          "type": "address"
        }
      ],
      "stateMutability": "view",
      "type": "function"
    },
    {
      "inputs": [
        {
          "internalType": "uint256",
          "name": "tokenId",
          "type": "uint256"
        }
      ],
      "name": "ownerOf",
      "outputs": [
        {
          "internalType": "address",
          "name": "",
          "type": "address"
        }
      ],
      "stateMutability": "view",
      "type": "function"
    },
    {
      "inputs": [],
      "name": "renounceOwnership",
      "outputs": [],
      "stateMutability": "nonpayable",
      "type": "function"
    },
    {
      "inputs": [
        {
          "internalType": "address",
          "name": "from",
          "type": "address"
        },
        {
          "internalType": "address",
          "name": "to",
          "type": "address"
        },
        {
          "internalType": "uint256",
          "name": "tokenId",
          "type": "uint256"
        }
      ],
      "name": "safeTransferFrom",
      "outputs": [],
      "stateMutability": "nonpayable",
      "type": "function"
    },
    {
      "inputs": [
        {
          "internalType": "address",
          "name": "from",
          "type": "address"
        },
        {
          "internalType": "address",
          "name": "to",
          "type": "address"
        },
        {
          "internalType": "uint256",
          "name": "tokenId",
          "type": "uint256"
        },
        {
          "internalType": "bytes",
          "name": "data",
          "type": "bytes"
        }
      ],
      "name": "safeTransferFrom",
      "outputs": [],
      "stateMutability": "nonpayable",
      "type": "function"
    },
    {
      "inputs": [
        {
          "internalType": "address",
          "name": "operator",
          "type": "address"
        },
        {
          "internalType": "bool",
          "name": "approved",
          "type": "bool"
        }
      ],
      "name": "setApprovalForAll",
      "outputs": [],
      "stateMutability": "nonpayable",
      "type": "function"
    },
    {
      "inputs": [
        {
          "internalType": "string",
          "name": "_baseURI",
          "type": "string"
        }
      ],
      "name": "setBaseURIHidden",
      "outputs": [],
      "stateMutability": "nonpayable",
      "type": "function"
    },
    {
      "inputs": [
        {
          "internalType": "string",
          "name": "_baseURI",
          "type": "string"
        }
      ],
      "name": "setBaseURIStandard",
      "outputs": [],
      "stateMutability": "nonpayable",
      "type": "function"
    },
    {
      "inputs": [
        {
          "internalType": "address",
          "name": "_blindBoxContract",
          "type": "address"
        }
      ],
      "name": "setBlindBoxContract",
      "outputs": [],
      "stateMutability": "nonpayable",
      "type": "function"
    },
    {
      "inputs": [
        {
          "internalType": "bytes4",
          "name": "interfaceId",
          "type": "bytes4"
        }
      ],
      "name": "supportsInterface",
      "outputs": [
        {
          "internalType": "bool",
          "name": "",
          "type": "bool"
        }
      ],
      "stateMutability": "view",
      "type": "function"
    },
    {
      "inputs": [],
      "name": "symbol",
      "outputs": [
        {
          "internalType": "string",
          "name": "",
          "type": "string"
        }
      ],
      "stateMutability": "view",
      "type": "function"
    },
    {
      "inputs": [
        {
          "internalType": "uint256",
          "name": "index",
          "type": "uint256"
        }
      ],
      "name": "tokenByIndex",
      "outputs": [
        {
          "internalType": "uint256",
          "name": "",
          "type": "uint256"
        }
      ],
      "stateMutability": "view",
      "type": "function"
    },
    {
      "inputs": [
        {
          "internalType": "address",
          "name": "owner",
          "type": "address"
        },
        {
          "internalType": "uint256",
          "name": "index",
          "type": "uint256"
        }
      ],
      "name": "tokenOfOwnerByIndex",
      "outputs": [
        {
          "internalType": "uint256",
          "name": "",
          "type": "uint256"
        }
      ],
      "stateMutability": "view",
      "type": "function"
    },
    {
      "inputs": [
        {
          "internalType": "uint256",
          "name": "tokenId",
          "type": "uint256"
        }
      ],
      "name": "tokenURI",
      "outputs": [
        {
          "internalType": "string",
          "name": "",
          "type": "string"
        }
      ],
      "stateMutability": "view",
      "type": "function"
    },
    {
      "inputs": [],
      "name": "totalSupply",
      "outputs": [
        {
          "internalType": "uint256",
          "name": "",
          "type": "uint256"
        }
      ],
      "stateMutability": "view",
      "type": "function"
    },
    {
      "inputs": [
        {
          "internalType": "address",
          "name": "from",
          "type": "address"
        },
        {
          "internalType": "address",
          "name": "to",
          "type": "address"
        },
        {
          "internalType": "uint256",
          "name": "tokenId",
          "type": "uint256"
        }
      ],
      "name": "transferFrom",
      "outputs": [],
      "stateMutability": "nonpayable",
      "type": "function"
    },
    {
      "inputs": [
        {
          "internalType": "address",
          "name": "newOwner",
          "type": "address"
        }
      ],
      "name": "transferOwnership",
      "outputs": [],
      "stateMutability": "nonpayable",
      "type": "function"
    },
    {
      "inputs": [
        {
          "internalType": "address",
          "name": "",
          "type": "address"
        },
        {
          "internalType": "uint256",
          "name": "",
          "type": "uint256"
        }
      ],
      "name": "userNFTTypeCounts",
      "outputs": [
        {
          "internalType": "uint256",
          "name": "",
          "type": "uint256"
        }
      ],
      "stateMutability": "view",
      "type": "function"
    },
    {
      "inputs": [
        {
          "internalType": "address",
          "name": "user",
          "type": "address"
        }
      ],
      "name": "userOwnsHiddenNFT",
      "outputs": [
        {
          "internalType": "bool",
          "name": "",
          "type": "bool"
        }
      ],
      "stateMutability": "view",
      "type": "function"
    }
  ],
  "bytecode": "0x60806040526040518060400160405280601e81526020017f68747470733a2f2f6170692e697070792e636f6d2f7374616e646172642f0000815250600c908161004891906104c7565b506040518060400160405280601c81526020017f68747470733a2f2f6170692e697070792e636f6d2f68696464656e2f00000000815250600d908161008d91906104c7565b5034801561009a57600080fd5b50336040518060400160405280600781526020017f495050594e4654000000000000000000000000000000000000000000000000008152506040518060400160405280600481526020017f4950505900000000000000000000000000000000000000000000000000000000815250816000908161011791906104c7565b50806001908161012791906104c7565b505050600073ffffffffffffffffffffffffffffffffffffffff168173ffffffffffffffffffffffffffffffffffffffff160361019c5760006040517f1e4fbdf700000000000000000000000000000000000000000000000000000000815260040161019391906105da565b60405180910390fd5b6101ab816101b160201b60201c565b506105f5565b6000600a60009054906101000a900473ffffffffffffffffffffffffffffffffffffffff16905081600a60006101000a81548173ffffffffffffffffffffffffffffffffffffffff021916908373ffffffffffffffffffffffffffffffffffffffff1602179055508173ffffffffffffffffffffffffffffffffffffffff168173ffffffffffffffffffffffffffffffffffffffff167f8be0079c531659141344cd1fd0a4f28419497f9722a3daafe3b4186f6b6457e060405160405180910390a35050565b600081519050919050565b7f4e487b7100000000000000000000000000000000000000000000000000000000600052604160045260246000fd5b7f4e487b7100000000000000000000000000000000000000000000000000000000600052602260045260246000fd5b600060028204905060018216806102f857607f821691505b60208210810361030b5761030a6102b1565b5b50919050565b60008190508160005260206000209050919050565b60006020601f8301049050919050565b600082821b905092915050565b6000600883026103737fffffffffffffffffffffffffffffffffffffffffffffffffffffffffffffffff82610336565b61037d8683610336565b95508019841693508086168417925050509392505050565b6000819050919050565b6000819050919050565b60006103c46103bf6103ba84610395565b61039f565b610395565b9050919050565b6000819050919050565b6103de836103a9565b6103f26103ea826103cb565b848454610343565b825550505050565b600090565b6104076103fa565b6104128184846103d5565b505050565b5b818110156104365761042b6000826103ff565b600181019050610418565b5050565b601f82111561047b5761044c81610311565b61045584610326565b81016020851015610464578190505b61047861047085610326565b830182610417565b50505b505050565b600082821c905092915050565b600061049e60001984600802610480565b1980831691505092915050565b60006104b7838361048d565b9150826002028217905092915050565b6104d082610277565b67ffffffffffffffff8111156104e9576104e8610282565b5b6104f382546102e0565b6104fe82828561043a565b600060209050601f831160018114610531576000841561051f578287015190505b61052985826104ab565b865550610591565b601f19841661053f86610311565b60005b8281101561056757848901518255600182019150602085019450602081019050610542565b868310156105845784890151610580601f89168261048d565b8355505b6001600288020188555050505b505050505050565b600073ffffffffffffffffffffffffffffffffffffffff82169050919050565b60006105c482610599565b9050919050565b6105d4816105b9565b82525050565b60006020820190506105ef60008301846105cb565b92915050565b613a4b806106046000396000f3fe608060405234801561001057600080fd5b50600436106101f05760003560e01c80636e02cfc31161010f578063c8559d82116100a2578063f2fde38b11610071578063f2fde38b14610606578063fab46cd614610622578063fbc4454914610640578063fcddb5af1461065e576101f0565b8063c8559d8214610545578063c87b56dd14610575578063e62b7146146105a5578063e985e9c5146105d6576101f0565b80638da5cb5b116100de5780638da5cb5b146104d157806395d89b41146104ef578063a22cb4651461050d578063b88d4fde14610529576101f0565b80636e02cfc31461044b5780636e3381a01461046757806370a0823114610497578063715018a6146104c7576101f0565b80632f745c59116101875780634f6ccce7116101565780634f6ccce71461039d57806352de4ee5146103cd578063576c9ad6146103ff5780636352211e1461041b576101f0565b80632f745c591461031557806340c10f191461034557806342842e0e14610361578063454b51b01461037d576101f0565b8063081812fc116101c3578063081812fc1461028f578063095ea7b3146102bf57806318160ddd146102db57806323b872dd146102f9576101f0565b80630126a9f1146101f557806301ffc9a71461022557806302c8a3241461025557806306fdde0314610271575b600080fd5b61020f600480360381019061020a91906128ed565b61067d565b60405161021c9190612935565b60405180910390f35b61023f600480360381019061023a91906129a8565b6106d9565b60405161024c9190612935565b60405180910390f35b61026f600480360381019061026a9190612a3a565b6106eb565b005b610279610745565b6040516102869190612b17565b60405180910390f35b6102a960048036038101906102a49190612b6f565b6107d7565b6040516102b69190612bab565b60405180910390f35b6102d960048036038101906102d49190612bc6565b6107f3565b005b6102e3610809565b6040516102f09190612c15565b60405180910390f35b610313600480360381019061030e9190612c30565b610816565b005b61032f600480360381019061032a9190612bc6565b610918565b60405161033c9190612c15565b60405180910390f35b61035f600480360381019061035a9190612bc6565b6109c1565b005b61037b60048036038101906103769190612c30565b610b52565b005b610385610b72565b60405161039493929190612d41565b60405180910390f35b6103b760048036038101906103b29190612b6f565b610c91565b6040516103c49190612c15565b60405180910390f35b6103e760048036038101906103e291906128ed565b610d07565b6040516103f693929190612e92565b60405180910390f35b61041960048036038101906104149190612a3a565b610e9e565b005b61043560048036038101906104309190612b6f565b610ef8565b6040516104429190612bab565b60405180910390f35b610465600480360381019061046091906128ed565b610f0a565b005b610481600480360381019061047c9190612b6f565b610f56565b60405161048e9190612c15565b60405180910390f35b6104b160048036038101906104ac91906128ed565b610f6e565b6040516104be9190612c15565b60405180910390f35b6104cf611028565b005b6104d961103c565b6040516104e69190612bab565b60405180910390f35b6104f7611066565b6040516105049190612b17565b60405180910390f35b61052760048036038101906105229190612f0a565b6110f8565b005b610543600480360381019061053e919061307a565b61110e565b005b61055f600480360381019061055a9190612bc6565b611133565b60405161056c9190612c15565b60405180910390f35b61058f600480360381019061058a9190612b6f565b611158565b60405161059c9190612b17565b60405180910390f35b6105bf60048036038101906105ba91906128ed565b6111e0565b6040516105cd9291906130fd565b60405180910390f35b6105f060048036038101906105eb9190613134565b61132a565b6040516105fd9190612935565b60405180910390f35b610620600480360381019061061b91906128ed565b6113be565b005b61062a611444565b6040516106379190612bab565b60405180910390f35b61064861146a565b6040516106559190612c15565b60405180910390f35b61066661146f565b604051610674929190613174565b60405180910390f35b600080600f60008473ffffffffffffffffffffffffffffffffffffffff1673ffffffffffffffffffffffffffffffffffffffff168152602001908152602001600020600080815260200190815260200160002054119050919050565b60006106e482611596565b9050919050565b6106f3611610565b8181600d91826107049291906133c2565b507f309b29ded109b9e28fb9885757b3e0096eb75c51d23aa4635d68bcd569f6adc1600c838360405161073993929190613543565b60405180910390a15050565b606060008054610754906131e5565b80601f0160208091040260200160405190810160405280929190818152602001828054610780906131e5565b80156107cd5780601f106107a2576101008083540402835291602001916107cd565b820191906000526020600020905b8154815290600101906020018083116107b057829003601f168201915b5050505050905090565b60006107e282611697565b506107ec8261171f565b9050919050565b610805828261080061175c565b611764565b5050565b6000600880549050905090565b600073ffffffffffffffffffffffffffffffffffffffff168273ffffffffffffffffffffffffffffffffffffffff16036108885760006040517f64a0ae9200000000000000000000000000000000000000000000000000000000815260040161087f9190612bab565b60405180910390fd5b600061089c838361089761175c565b611776565b90508373ffffffffffffffffffffffffffffffffffffffff168173ffffffffffffffffffffffffffffffffffffffff1614610912578382826040517f64283d7b0000000000000000000000000000000000000000000000000000000081526004016109099392919061357c565b60405180910390fd5b50505050565b600061092383610f6e565b82106109685782826040517fa57d13dc00000000000000000000000000000000000000000000000000000000815260040161095f9291906135b3565b60405180910390fd5b600660008473ffffffffffffffffffffffffffffffffffffffff1673ffffffffffffffffffffffffffffffffffffffff168152602001908152602001600020600083815260200190815260200160002054905092915050565b600b60009054906101000a900473ffffffffffffffffffffffffffffffffffffffff1673ffffffffffffffffffffffffffffffffffffffff163373ffffffffffffffffffffffffffffffffffffffff1614610a51576040517f08c379a0000000000000000000000000000000000000000000000000000000008152600401610a4890613628565b60405180910390fd5b6000610a5b610809565b9050610a67838261178c565b600e60008381526020019081526020016000206000815480929190610a8b90613677565b9190505550600f60008473ffffffffffffffffffffffffffffffffffffffff1673ffffffffffffffffffffffffffffffffffffffff16815260200190815260200160002060008381526020019081526020016000206000815480929190610af190613677565b919050555060008083149050818473ffffffffffffffffffffffffffffffffffffffff167f8fa3ff725d2f7190c5e5dd9bc88f241a72b239e127e347dccdfc28e44e5e096383604051610b449190612935565b60405180910390a350505050565b610b6d8383836040518060200160405280600081525061110e565b505050565b6060806000600767ffffffffffffffff811115610b9257610b91612f4f565b5b604051908082528060200260200182016040528015610bc05781602001602082028036833780820191505090505b509250600767ffffffffffffffff811115610bde57610bdd612f4f565b5b604051908082528060200260200182016040528015610c0c5781602001602082028036833780820191505090505b50915060005b6007811015610c7b5780848281518110610c2f57610c2e6136bf565b5b602002602001018181525050600e600082815260200190815260200160002054838281518110610c6257610c616136bf565b5b6020026020010181815250508080600101915050610c12565b508282610c86610809565b925092509250909192565b6000610c9b610809565b8210610ce1576000826040517fa57d13dc000000000000000000000000000000000000000000000000000000008152600401610cd89291906135b3565b60405180910390fd5b60088281548110610cf557610cf46136bf565b5b90600052602060002001549050919050565b60608060606000610d1785610f6e565b90508067ffffffffffffffff811115610d3357610d32612f4f565b5b604051908082528060200260200182016040528015610d615781602001602082028036833780820191505090505b5093508067ffffffffffffffff811115610d7e57610d7d612f4f565b5b604051908082528060200260200182016040528015610dac5781602001602082028036833780820191505090505b5092508067ffffffffffffffff811115610dc957610dc8612f4f565b5b604051908082528060200260200182016040528015610dfc57816020015b6060815260200190600190039081610de75790505b50915060005b81811015610e95576000610e168783610918565b905080868381518110610e2c57610e2b6136bf565b5b602002602001018181525050610e4181611885565b858381518110610e5457610e536136bf565b5b602002602001018181525050610e6981611158565b848381518110610e7c57610e7b6136bf565b5b6020026020010181905250508080600101915050610e02565b50509193909250565b610ea6611610565b8181600c9182610eb79291906133c2565b507f309b29ded109b9e28fb9885757b3e0096eb75c51d23aa4635d68bcd569f6adc18282600d604051610eec939291906136ee565b60405180910390a15050565b6000610f0382611697565b9050919050565b610f12611610565b80600b60006101000a81548173ffffffffffffffffffffffffffffffffffffffff021916908373ffffffffffffffffffffffffffffffffffffffff16021790555050565b600e6020528060005260406000206000915090505481565b60008073ffffffffffffffffffffffffffffffffffffffff168273ffffffffffffffffffffffffffffffffffffffff1603610fe15760006040517f89c62b64000000000000000000000000000000000000000000000000000000008152600401610fd89190612bab565b60405180910390fd5b600360008373ffffffffffffffffffffffffffffffffffffffff1673ffffffffffffffffffffffffffffffffffffffff168152602001908152602001600020549050919050565b611030611610565b61103a600061189b565b565b6000600a60009054906101000a900473ffffffffffffffffffffffffffffffffffffffff16905090565b606060018054611075906131e5565b80601f01602080910402602001604051908101604052809291908181526020018280546110a1906131e5565b80156110ee5780601f106110c3576101008083540402835291602001916110ee565b820191906000526020600020905b8154815290600101906020018083116110d157829003601f168201915b5050505050905090565b61110a61110361175c565b8383611961565b5050565b611119848484610816565b61112d61112461175c565b85858585611ad0565b50505050565b600f602052816000526040600020602052806000526040600020600091509150505481565b606061116382611697565b50600061116f83611885565b9050600081036111ac57600d61118484611c81565b6040516020016111959291906137e6565b6040516020818303038152906040529150506111db565b600c6111b784611c81565b6040516020016111c89291906137e6565b6040516020818303038152906040529150505b919050565b606080600767ffffffffffffffff8111156111fe576111fd612f4f565b5b60405190808252806020026020018201604052801561122c5781602001602082028036833780820191505090505b509150600767ffffffffffffffff81111561124a57611249612f4f565b5b6040519080825280602002602001820160405280156112785781602001602082028036833780820191505090505b50905060005b6007811015611324578083828151811061129b5761129a6136bf565b5b602002602001018181525050600f60008573ffffffffffffffffffffffffffffffffffffffff1673ffffffffffffffffffffffffffffffffffffffff16815260200190815260200160002060008281526020019081526020016000205482828151811061130b5761130a6136bf565b5b602002602001018181525050808060010191505061127e565b50915091565b6000600560008473ffffffffffffffffffffffffffffffffffffffff1673ffffffffffffffffffffffffffffffffffffffff16815260200190815260200160002060008373ffffffffffffffffffffffffffffffffffffffff1673ffffffffffffffffffffffffffffffffffffffff16815260200190815260200160002060009054906101000a900460ff16905092915050565b6113c6611610565b600073ffffffffffffffffffffffffffffffffffffffff168173ffffffffffffffffffffffffffffffffffffffff16036114385760006040517f1e4fbdf700000000000000000000000000000000000000000000000000000000815260040161142f9190612bab565b60405180910390fd5b6114418161189b565b50565b600b60009054906101000a900473ffffffffffffffffffffffffffffffffffffffff1681565b600081565b606080600c600d818054611482906131e5565b80601f01602080910402602001604051908101604052809291908181526020018280546114ae906131e5565b80156114fb5780601f106114d0576101008083540402835291602001916114fb565b820191906000526020600020905b8154815290600101906020018083116114de57829003601f168201915b5050505050915080805461150e906131e5565b80601f016020809104026020016040519081016040528092919081815260200182805461153a906131e5565b80156115875780601f1061155c57610100808354040283529160200191611587565b820191906000526020600020905b81548152906001019060200180831161156a57829003601f168201915b50505050509050915091509091565b60007f780e9d63000000000000000000000000000000000000000000000000000000007bffffffffffffffffffffffffffffffffffffffffffffffffffffffff1916827bffffffffffffffffffffffffffffffffffffffffffffffffffffffff19161480611609575061160882611de1565b5b9050919050565b61161861175c565b73ffffffffffffffffffffffffffffffffffffffff1661163661103c565b73ffffffffffffffffffffffffffffffffffffffff16146116955761165961175c565b6040517f118cdaa700000000000000000000000000000000000000000000000000000000815260040161168c9190612bab565b60405180910390fd5b565b6000806116a383611ec3565b9050600073ffffffffffffffffffffffffffffffffffffffff168173ffffffffffffffffffffffffffffffffffffffff160361171657826040517f7e27328900000000000000000000000000000000000000000000000000000000815260040161170d9190612c15565b60405180910390fd5b80915050919050565b60006004600083815260200190815260200160002060009054906101000a900473ffffffffffffffffffffffffffffffffffffffff169050919050565b600033905090565b6117718383836001611f00565b505050565b60006117838484846120c5565b90509392505050565b600073ffffffffffffffffffffffffffffffffffffffff168273ffffffffffffffffffffffffffffffffffffffff16036117fe5760006040517f64a0ae920000000000000000000000000000000000000000000000000000000081526004016117f59190612bab565b60405180910390fd5b600061180c83836000611776565b9050600073ffffffffffffffffffffffffffffffffffffffff168173ffffffffffffffffffffffffffffffffffffffff16146118805760006040517f73c6ac6e0000000000000000000000000000000000000000000000000000000081526004016118779190612bab565b60405180910390fd5b505050565b60006007826118949190613839565b9050919050565b6000600a60009054906101000a900473ffffffffffffffffffffffffffffffffffffffff16905081600a60006101000a81548173ffffffffffffffffffffffffffffffffffffffff021916908373ffffffffffffffffffffffffffffffffffffffff1602179055508173ffffffffffffffffffffffffffffffffffffffff168173ffffffffffffffffffffffffffffffffffffffff167f8be0079c531659141344cd1fd0a4f28419497f9722a3daafe3b4186f6b6457e060405160405180910390a35050565b600073ffffffffffffffffffffffffffffffffffffffff168273ffffffffffffffffffffffffffffffffffffffff16036119d257816040517f5b08ba180000000000000000000000000000000000000000000000000000000081526004016119c99190612bab565b60405180910390fd5b80600560008573ffffffffffffffffffffffffffffffffffffffff1673ffffffffffffffffffffffffffffffffffffffff16815260200190815260200160002060008473ffffffffffffffffffffffffffffffffffffffff1673ffffffffffffffffffffffffffffffffffffffff16815260200190815260200160002060006101000a81548160ff0219169083151502179055508173ffffffffffffffffffffffffffffffffffffffff168373ffffffffffffffffffffffffffffffffffffffff167f17307eab39ab6107e8899845ad3d59bd9653f200f220920489ca2b5937696c3183604051611ac39190612935565b60405180910390a3505050565b60008373ffffffffffffffffffffffffffffffffffffffff163b1115611c7a578273ffffffffffffffffffffffffffffffffffffffff1663150b7a02868685856040518563ffffffff1660e01b8152600401611b2f94939291906138bf565b6020604051808303816000875af1925050508015611b6b57506040513d601f19601f82011682018060405250810190611b689190613920565b60015b611bef573d8060008114611b9b576040519150601f19603f3d011682016040523d82523d6000602084013e611ba0565b606091505b506000815103611be757836040517f64a0ae92000000000000000000000000000000000000000000000000000000008152600401611bde9190612bab565b60405180910390fd5b805181602001fd5b63150b7a0260e01b7bffffffffffffffffffffffffffffffffffffffffffffffffffffffff1916817bffffffffffffffffffffffffffffffffffffffffffffffffffffffff191614611c7857836040517f64a0ae92000000000000000000000000000000000000000000000000000000008152600401611c6f9190612bab565b60405180910390fd5b505b5050505050565b606060008203611cc8576040518060400160405280600181526020017f30000000000000000000000000000000000000000000000000000000000000008152509050611ddc565b600082905060005b60008214611cfa578080611ce390613677565b915050600a82611cf3919061394d565b9150611cd0565b60008167ffffffffffffffff811115611d1657611d15612f4f565b5b6040519080825280601f01601f191660200182016040528015611d485781602001600182028036833780820191505090505b5090505b60008514611dd557600182611d61919061397e565b9150600a85611d709190613839565b6030611d7c91906139b2565b60f81b818381518110611d9257611d916136bf565b5b60200101907effffffffffffffffffffffffffffffffffffffffffffffffffffffffffffff1916908160001a905350600a85611dce919061394d565b9450611d4c565b8093505050505b919050565b60007f80ac58cd000000000000000000000000000000000000000000000000000000007bffffffffffffffffffffffffffffffffffffffffffffffffffffffff1916827bffffffffffffffffffffffffffffffffffffffffffffffffffffffff19161480611eac57507f5b5e139f000000000000000000000000000000000000000000000000000000007bffffffffffffffffffffffffffffffffffffffffffffffffffffffff1916827bffffffffffffffffffffffffffffffffffffffffffffffffffffffff1916145b80611ebc5750611ebb826121e2565b5b9050919050565b60006002600083815260200190815260200160002060009054906101000a900473ffffffffffffffffffffffffffffffffffffffff169050919050565b8080611f395750600073ffffffffffffffffffffffffffffffffffffffff168273ffffffffffffffffffffffffffffffffffffffff1614155b1561206d576000611f4984611697565b9050600073ffffffffffffffffffffffffffffffffffffffff168373ffffffffffffffffffffffffffffffffffffffff1614158015611fb457508273ffffffffffffffffffffffffffffffffffffffff168173ffffffffffffffffffffffffffffffffffffffff1614155b8015611fc75750611fc5818461132a565b155b1561200957826040517fa9fbf51f0000000000000000000000000000000000000000000000000000000081526004016120009190612bab565b60405180910390fd5b811561206b57838573ffffffffffffffffffffffffffffffffffffffff168273ffffffffffffffffffffffffffffffffffffffff167f8c5be1e5ebec7d5bd14f71427d1e84f3dd0314c0f7b2291e5b200ac8c7c3b92560405160405180910390a45b505b836004600085815260200190815260200160002060006101000a81548173ffffffffffffffffffffffffffffffffffffffff021916908373ffffffffffffffffffffffffffffffffffffffff16021790555050505050565b6000806120d385858561224c565b9050600073ffffffffffffffffffffffffffffffffffffffff168173ffffffffffffffffffffffffffffffffffffffff16036121175761211284612466565b612156565b8473ffffffffffffffffffffffffffffffffffffffff168173ffffffffffffffffffffffffffffffffffffffff16146121555761215481856124af565b5b5b600073ffffffffffffffffffffffffffffffffffffffff168573ffffffffffffffffffffffffffffffffffffffff1603612198576121938461259a565b6121d7565b8473ffffffffffffffffffffffffffffffffffffffff168173ffffffffffffffffffffffffffffffffffffffff16146121d6576121d5858561266b565b5b5b809150509392505050565b60007f01ffc9a7000000000000000000000000000000000000000000000000000000007bffffffffffffffffffffffffffffffffffffffffffffffffffffffff1916827bffffffffffffffffffffffffffffffffffffffffffffffffffffffff1916149050919050565b60008061225884611ec3565b9050600073ffffffffffffffffffffffffffffffffffffffff168373ffffffffffffffffffffffffffffffffffffffff161461229a576122998184866126f6565b5b600073ffffffffffffffffffffffffffffffffffffffff168173ffffffffffffffffffffffffffffffffffffffff161461232b576122dc600085600080611f00565b6001600360008373ffffffffffffffffffffffffffffffffffffffff1673ffffffffffffffffffffffffffffffffffffffff168152602001908152602001600020600082825403925050819055505b600073ffffffffffffffffffffffffffffffffffffffff168573ffffffffffffffffffffffffffffffffffffffff16146123ae576001600360008773ffffffffffffffffffffffffffffffffffffffff1673ffffffffffffffffffffffffffffffffffffffff168152602001908152602001600020600082825401925050819055505b846002600086815260200190815260200160002060006101000a81548173ffffffffffffffffffffffffffffffffffffffff021916908373ffffffffffffffffffffffffffffffffffffffff160217905550838573ffffffffffffffffffffffffffffffffffffffff168273ffffffffffffffffffffffffffffffffffffffff167fddf252ad1be2c89b69c2b068fc378daa952ba7f163c4a11628f55a4df523b3ef60405160405180910390a4809150509392505050565b6008805490506009600083815260200190815260200160002081905550600881908060018154018082558091505060019003906000526020600020016000909190919091505550565b60006124ba83610f6e565b90506000600760008481526020019081526020016000205490506000600660008673ffffffffffffffffffffffffffffffffffffffff1673ffffffffffffffffffffffffffffffffffffffff16815260200190815260200160002090508282146125665760008160008581526020019081526020016000205490508082600085815260200190815260200160002081905550826007600083815260200190815260200160002081905550505b6007600085815260200190815260200160002060009055806000848152602001908152602001600020600090555050505050565b600060016008805490506125ae919061397e565b90506000600960008481526020019081526020016000205490506000600883815481106125de576125dd6136bf565b5b906000526020600020015490508060088381548110612600576125ff6136bf565b5b90600052602060002001819055508160096000838152602001908152602001600020819055506009600085815260200190815260200160002060009055600880548061264f5761264e6139e6565b5b6001900381819060005260206000200160009055905550505050565b6000600161267884610f6e565b612682919061397e565b905081600660008573ffffffffffffffffffffffffffffffffffffffff1673ffffffffffffffffffffffffffffffffffffffff168152602001908152602001600020600083815260200190815260200160002081905550806007600084815260200190815260200160002081905550505050565b6127018383836127ba565b6127b557600073ffffffffffffffffffffffffffffffffffffffff168373ffffffffffffffffffffffffffffffffffffffff160361277657806040517f7e27328900000000000000000000000000000000000000000000000000000000815260040161276d9190612c15565b60405180910390fd5b81816040517f177e802f0000000000000000000000000000000000000000000000000000000081526004016127ac9291906135b3565b60405180910390fd5b505050565b60008073ffffffffffffffffffffffffffffffffffffffff168373ffffffffffffffffffffffffffffffffffffffff161415801561287257508273ffffffffffffffffffffffffffffffffffffffff168473ffffffffffffffffffffffffffffffffffffffff1614806128335750612832848461132a565b5b8061287157508273ffffffffffffffffffffffffffffffffffffffff166128598361171f565b73ffffffffffffffffffffffffffffffffffffffff16145b5b90509392505050565b6000604051905090565b600080fd5b600080fd5b600073ffffffffffffffffffffffffffffffffffffffff82169050919050565b60006128ba8261288f565b9050919050565b6128ca816128af565b81146128d557600080fd5b50565b6000813590506128e7816128c1565b92915050565b60006020828403121561290357612902612885565b5b6000612911848285016128d8565b91505092915050565b60008115159050919050565b61292f8161291a565b82525050565b600060208201905061294a6000830184612926565b92915050565b60007fffffffff0000000000000000000000000000000000000000000000000000000082169050919050565b61298581612950565b811461299057600080fd5b50565b6000813590506129a28161297c565b92915050565b6000602082840312156129be576129bd612885565b5b60006129cc84828501612993565b91505092915050565b600080fd5b600080fd5b600080fd5b60008083601f8401126129fa576129f96129d5565b5b8235905067ffffffffffffffff811115612a1757612a166129da565b5b602083019150836001820283011115612a3357612a326129df565b5b9250929050565b60008060208385031215612a5157612a50612885565b5b600083013567ffffffffffffffff811115612a6f57612a6e61288a565b5b612a7b858286016129e4565b92509250509250929050565b600081519050919050565b600082825260208201905092915050565b60005b83811015612ac1578082015181840152602081019050612aa6565b60008484015250505050565b6000601f19601f8301169050919050565b6000612ae982612a87565b612af38185612a92565b9350612b03818560208601612aa3565b612b0c81612acd565b840191505092915050565b60006020820190508181036000830152612b318184612ade565b905092915050565b6000819050919050565b612b4c81612b39565b8114612b5757600080fd5b50565b600081359050612b6981612b43565b92915050565b600060208284031215612b8557612b84612885565b5b6000612b9384828501612b5a565b91505092915050565b612ba5816128af565b82525050565b6000602082019050612bc06000830184612b9c565b92915050565b60008060408385031215612bdd57612bdc612885565b5b6000612beb858286016128d8565b9250506020612bfc85828601612b5a565b9150509250929050565b612c0f81612b39565b82525050565b6000602082019050612c2a6000830184612c06565b92915050565b600080600060608486031215612c4957612c48612885565b5b6000612c57868287016128d8565b9350506020612c68868287016128d8565b9250506040612c7986828701612b5a565b9150509250925092565b600081519050919050565b600082825260208201905092915050565b6000819050602082019050919050565b612cb881612b39565b82525050565b6000612cca8383612caf565b60208301905092915050565b6000602082019050919050565b6000612cee82612c83565b612cf88185612c8e565b9350612d0383612c9f565b8060005b83811015612d34578151612d1b8882612cbe565b9750612d2683612cd6565b925050600181019050612d07565b5085935050505092915050565b60006060820190508181036000830152612d5b8186612ce3565b90508181036020830152612d6f8185612ce3565b9050612d7e6040830184612c06565b949350505050565b600081519050919050565b600082825260208201905092915050565b6000819050602082019050919050565b600082825260208201905092915050565b6000612dce82612a87565b612dd88185612db2565b9350612de8818560208601612aa3565b612df181612acd565b840191505092915050565b6000612e088383612dc3565b905092915050565b6000602082019050919050565b6000612e2882612d86565b612e328185612d91565b935083602082028501612e4485612da2565b8060005b85811015612e805784840389528151612e618582612dfc565b9450612e6c83612e10565b925060208a01995050600181019050612e48565b50829750879550505050505092915050565b60006060820190508181036000830152612eac8186612ce3565b90508181036020830152612ec08185612ce3565b90508181036040830152612ed48184612e1d565b9050949350505050565b612ee78161291a565b8114612ef257600080fd5b50565b600081359050612f0481612ede565b92915050565b60008060408385031215612f2157612f20612885565b5b6000612f2f858286016128d8565b9250506020612f4085828601612ef5565b9150509250929050565b600080fd5b7f4e487b7100000000000000000000000000000000000000000000000000000000600052604160045260246000fd5b612f8782612acd565b810181811067ffffffffffffffff82111715612fa657612fa5612f4f565b5b80604052505050565b6000612fb961287b565b9050612fc58282612f7e565b919050565b600067ffffffffffffffff821115612fe557612fe4612f4f565b5b612fee82612acd565b9050602081019050919050565b82818337600083830152505050565b600061301d61301884612fca565b612faf565b90508281526020810184848401111561303957613038612f4a565b5b613044848285612ffb565b509392505050565b600082601f830112613061576130606129d5565b5b813561307184826020860161300a565b91505092915050565b6000806000806080858703121561309457613093612885565b5b60006130a2878288016128d8565b94505060206130b3878288016128d8565b93505060406130c487828801612b5a565b925050606085013567ffffffffffffffff8111156130e5576130e461288a565b5b6130f18782880161304c565b91505092959194509250565b600060408201905081810360008301526131178185612ce3565b9050818103602083015261312b8184612ce3565b90509392505050565b6000806040838503121561314b5761314a612885565b5b6000613159858286016128d8565b925050602061316a858286016128d8565b9150509250929050565b6000604082019050818103600083015261318e8185612ade565b905081810360208301526131a28184612ade565b90509392505050565b600082905092915050565b7f4e487b7100000000000000000000000000000000000000000000000000000000600052602260045260246000fd5b600060028204905060018216806131fd57607f821691505b6020821081036132105761320f6131b6565b5b50919050565b60008190508160005260206000209050919050565b60006020601f8301049050919050565b600082821b905092915050565b6000600883026132787fffffffffffffffffffffffffffffffffffffffffffffffffffffffffffffffff8261323b565b613282868361323b565b95508019841693508086168417925050509392505050565b6000819050919050565b60006132bf6132ba6132b584612b39565b61329a565b612b39565b9050919050565b6000819050919050565b6132d9836132a4565b6132ed6132e5826132c6565b848454613248565b825550505050565b600090565b6133026132f5565b61330d8184846132d0565b505050565b5b81811015613331576133266000826132fa565b600181019050613313565b5050565b601f8211156133765761334781613216565b6133508461322b565b8101602085101561335f578190505b61337361336b8561322b565b830182613312565b50505b505050565b600082821c905092915050565b60006133996000198460080261337b565b1980831691505092915050565b60006133b28383613388565b9150826002028217905092915050565b6133cc83836131ab565b67ffffffffffffffff8111156133e5576133e4612f4f565b5b6133ef82546131e5565b6133fa828285613335565b6000601f8311600181146134295760008415613417578287013590505b61342185826133a6565b865550613489565b601f19841661343786613216565b60005b8281101561345f5784890135825560018201915060208501945060208101905061343a565b8683101561347c5784890135613478601f891682613388565b8355505b6001600288020188555050505b50505050505050565b6000815461349f816131e5565b6134a98186612a92565b945060018216600081146134c457600181146134da5761350d565b60ff19831686528115156020028601935061350d565b6134e385613216565b60005b83811015613505578154818901526001820191506020810190506134e6565b808801955050505b50505092915050565b60006135228385612a92565b935061352f838584612ffb565b61353883612acd565b840190509392505050565b6000604082019050818103600083015261355d8186613492565b90508181036020830152613572818486613516565b9050949350505050565b60006060820190506135916000830186612b9c565b61359e6020830185612c06565b6135ab6040830184612b9c565b949350505050565b60006040820190506135c86000830185612b9c565b6135d56020830184612c06565b9392505050565b7f4f6e6c7920426c696e64426f782063616e206d696e7400000000000000000000600082015250565b6000613612601683612a92565b915061361d826135dc565b602082019050919050565b6000602082019050818103600083015261364181613605565b9050919050565b7f4e487b7100000000000000000000000000000000000000000000000000000000600052601160045260246000fd5b600061368282612b39565b91507fffffffffffffffffffffffffffffffffffffffffffffffffffffffffffffffff82036136b4576136b3613648565b5b600182019050919050565b7f4e487b7100000000000000000000000000000000000000000000000000000000600052603260045260246000fd5b60006040820190508181036000830152613709818587613516565b9050818103602083015261371d8184613492565b9050949350505050565b600081905092915050565b6000815461373f816131e5565b6137498186613727565b945060018216600081146137645760018114613779576137ac565b60ff19831686528115158202860193506137ac565b61378285613216565b60005b838110156137a457815481890152600182019150602081019050613785565b838801955050505b50505092915050565b60006137c082612a87565b6137ca8185613727565b93506137da818560208601612aa3565b80840191505092915050565b60006137f28285613732565b91506137fe82846137b5565b91508190509392505050565b7f4e487b7100000000000000000000000000000000000000000000000000000000600052601260045260246000fd5b600061384482612b39565b915061384f83612b39565b92508261385f5761385e61380a565b5b828206905092915050565b600081519050919050565b600082825260208201905092915050565b60006138918261386a565b61389b8185613875565b93506138ab818560208601612aa3565b6138b481612acd565b840191505092915050565b60006080820190506138d46000830187612b9c565b6138e16020830186612b9c565b6138ee6040830185612c06565b81810360608301526139008184613886565b905095945050505050565b60008151905061391a8161297c565b92915050565b60006020828403121561393657613935612885565b5b60006139448482850161390b565b91505092915050565b600061395882612b39565b915061396383612b39565b9250826139735761397261380a565b5b828204905092915050565b600061398982612b39565b915061399483612b39565b92508282039050818111156139ac576139ab613648565b5b92915050565b60006139bd82612b39565b91506139c883612b39565b92508282019050808211156139e0576139df613648565b5b92915050565b7f4e487b7100000000000000000000000000000000000000000000000000000000600052603160045260246000fdfea2646970667358221220b36b2a273f679b36e08c12ea84ea4ff954be6c2f385d3f6fa871f9d54034590f64736f6c634300081c0033",
  "linkReferences": {},
  "deployedLinkReferences": {}
}