{
  "_format": "hh-sol-artifact-1",
  "contractName": "BlindBox",
  "sourceName": "contracts/BlindBox.sol",
  "abi": [
    {
      "inputs": [
        {
          "internalType": "address",
          "name": "_ippyNFT",
          "type": "address"
        }
      ],
      "stateMutability": "nonpayable",
      "type": "constructor"
    },
    {
      "inputs": [
        {
          "internalType": "address",
          "name": "sender",
          "type": "address"
        },
        {
          "internalType": "uint256",
          "name": "balance",
          "type": "uint256"
        },
        {
          "internalType": "uint256",
          "name": "needed",
          "type": "uint256"
        },
        {
          "internalType": "uint256",
          "name": "tokenId",
          "type": "uint256"
        }
      ],
      "name": "ERC1155InsufficientBalance",
      "type": "error"
    },
    {
      "inputs": [
        {
          "internalType": "address",
          "name": "approver",
          "type": "address"
        }
      ],
      "name": "ERC1155InvalidApprover",
      "type": "error"
    },
    {
      "inputs": [
        {
          "internalType": "uint256",
          "name": "idsLength",
          "type": "uint256"
        },
        {
          "internalType": "uint256",
          "name": "valuesLength",
          "type": "uint256"
        }
      ],
      "name": "ERC1155InvalidArrayLength",
      "type": "error"
    },
    {
      "inputs": [
        {
          "internalType": "address",
          "name": "operator",
          "type": "address"
        }
      ],
      "name": "ERC1155InvalidOperator",
      "type": "error"
    },
    {
      "inputs": [
        {
          "internalType": "address",
          "name": "receiver",
          "type": "address"
        }
      ],
      "name": "ERC1155InvalidReceiver",
      "type": "error"
    },
    {
      "inputs": [
        {
          "internalType": "address",
          "name": "sender",
          "type": "address"
        }
      ],
      "name": "ERC1155InvalidSender",
      "type": "error"
    },
    {
      "inputs": [
        {
          "internalType": "address",
          "name": "operator",
          "type": "address"
        },
        {
          "internalType": "address",
          "name": "owner",
          "type": "address"
        }
      ],
      "name": "ERC1155MissingApprovalForAll",
      "type": "error"
    },
    {
      "inputs": [
        {
          "internalType": "address",
          "name": "owner",
          "type": "address"
        }
      ],
      "name": "OwnableInvalidOwner",
      "type": "error"
    },
    {
      "inputs": [
        {
          "internalType": "address",
          "name": "account",
          "type": "address"
        }
      ],
      "name": "OwnableUnauthorizedAccount",
      "type": "error"
    },
    {
      "inputs": [],
      "name": "ReentrancyGuardReentrantCall",
      "type": "error"
    },
    {
      "anonymous": false,
      "inputs": [
        {
          "indexed": true,
          "internalType": "address",
          "name": "account",
          "type": "address"
        },
        {
          "indexed": true,
          "internalType": "address",
          "name": "operator",
          "type": "address"
        },
        {
          "indexed": false,
          "internalType": "bool",
          "name": "approved",
          "type": "bool"
        }
      ],
      "name": "ApprovalForAll",
      "type": "event"
    },
    {
      "anonymous": false,
      "inputs": [
        {
          "indexed": true,
          "internalType": "address",
          "name": "opener",
          "type": "address"
        },
        {
          "indexed": false,
          "internalType": "uint256",
          "name": "boxTokenId",
          "type": "uint256"
        },
        {
          "indexed": false,
          "internalType": "uint256",
          "name": "receivedNFTId",
          "type": "uint256"
        },
        {
          "indexed": false,
          "internalType": "bool",
          "name": "isHidden",
          "type": "bool"
        }
      ],
      "name": "BlindBoxOpened",
      "type": "event"
    },
    {
      "anonymous": false,
      "inputs": [
        {
          "indexed": true,
          "internalType": "address",
          "name": "buyer",
          "type": "address"
        },
        {
          "indexed": false,
          "internalType": "uint256",
          "name": "amount",
          "type": "uint256"
        },
        {
          "indexed": false,
          "internalType": "uint256",
          "name": "totalCost",
          "type": "uint256"
        }
      ],
      "name": "BlindBoxPurchased",
      "type": "event"
    },
    {
      "anonymous": false,
      "inputs": [
        {
          "indexed": true,
          "internalType": "address",
          "name": "recipient",
          "type": "address"
        },
        {
          "indexed": false,
          "internalType": "uint256",
          "name": "nftId",
          "type": "uint256"
        }
      ],
      "name": "NFTMinted",
      "type": "event"
    },
    {
      "anonymous": false,
      "inputs": [
        {
          "indexed": true,
          "internalType": "address",
          "name": "previousOwner",
          "type": "address"
        },
        {
          "indexed": true,
          "internalType": "address",
          "name": "newOwner",
          "type": "address"
        }
      ],
      "name": "OwnershipTransferred",
      "type": "event"
    },
    {
      "anonymous": false,
      "inputs": [
        {
          "indexed": false,
          "internalType": "uint256",
          "name": "newPrice",
          "type": "uint256"
        }
      ],
      "name": "PriceUpdated",
      "type": "event"
    },
    {
      "anonymous": false,
      "inputs": [
        {
          "indexed": true,
          "internalType": "address",
          "name": "operator",
          "type": "address"
        },
        {
          "indexed": true,
          "internalType": "address",
          "name": "from",
          "type": "address"
        },
        {
          "indexed": true,
          "internalType": "address",
          "name": "to",
          "type": "address"
        },
        {
          "indexed": false,
          "internalType": "uint256[]",
          "name": "ids",
          "type": "uint256[]"
        },
        {
          "indexed": false,
          "internalType": "uint256[]",
          "name": "values",
          "type": "uint256[]"
        }
      ],
      "name": "TransferBatch",
      "type": "event"
    },
    {
      "anonymous": false,
      "inputs": [
        {
          "indexed": true,
          "internalType": "address",
          "name": "operator",
          "type": "address"
        },
        {
          "indexed": true,
          "internalType": "address",
          "name": "from",
          "type": "address"
        },
        {
          "indexed": true,
          "internalType": "address",
          "name": "to",
          "type": "address"
        },
        {
          "indexed": false,
          "internalType": "uint256",
          "name": "id",
          "type": "uint256"
        },
        {
          "indexed": false,
          "internalType": "uint256",
          "name": "value",
          "type": "uint256"
        }
      ],
      "name": "TransferSingle",
      "type": "event"
    },
    {
      "anonymous": false,
      "inputs": [
        {
          "indexed": false,
          "internalType": "string",
          "name": "value",
          "type": "string"
        },
        {
          "indexed": true,
          "internalType": "uint256",
          "name": "id",
          "type": "uint256"
        }
      ],
      "name": "URI",
      "type": "event"
    },
    {
      "inputs": [],
      "name": "HIDDEN_NFT_ID",
      "outputs": [
        {
          "internalType": "uint256",
          "name": "",
          "type": "uint256"
        }
      ],
      "stateMutability": "view",
      "type": "function"
    },
    {
      "inputs": [],
      "name": "NAME",
      "outputs": [
        {
          "internalType": "string",
          "name": "",
          "type": "string"
        }
      ],
      "stateMutability": "view",
      "type": "function"
    },
    {
      "inputs": [],
      "name": "STANDARD_NFT_1",
      "outputs": [
        {
          "internalType": "uint256",
          "name": "",
          "type": "uint256"
        }
      ],
      "stateMutability": "view",
      "type": "function"
    },
    {
      "inputs": [],
      "name": "STANDARD_NFT_2",
      "outputs": [
        {
          "internalType": "uint256",
          "name": "",
          "type": "uint256"
        }
      ],
      "stateMutability": "view",
      "type": "function"
    },
    {
      "inputs": [],
      "name": "STANDARD_NFT_3",
      "outputs": [
        {
          "internalType": "uint256",
          "name": "",
          "type": "uint256"
        }
      ],
      "stateMutability": "view",
      "type": "function"
    },
    {
      "inputs": [],
      "name": "STANDARD_NFT_4",
      "outputs": [
        {
          "internalType": "uint256",
          "name": "",
          "type": "uint256"
        }
      ],
      "stateMutability": "view",
      "type": "function"
    },
    {
      "inputs": [],
      "name": "STANDARD_NFT_5",
      "outputs": [
        {
          "internalType": "uint256",
          "name": "",
          "type": "uint256"
        }
      ],
      "stateMutability": "view",
      "type": "function"
    },
    {
      "inputs": [],
      "name": "STANDARD_NFT_6",
      "outputs": [
        {
          "internalType": "uint256",
          "name": "",
          "type": "uint256"
        }
      ],
      "stateMutability": "view",
      "type": "function"
    },
    {
      "inputs": [],
      "name": "SYMBOL",
      "outputs": [
        {
          "internalType": "string",
          "name": "",
          "type": "string"
        }
      ],
      "stateMutability": "view",
      "type": "function"
    },
    {
      "inputs": [
        {
          "internalType": "address",
          "name": "account",
          "type": "address"
        },
        {
          "internalType": "uint256",
          "name": "id",
          "type": "uint256"
        }
      ],
      "name": "balanceOf",
      "outputs": [
        {
          "internalType": "uint256",
          "name": "",
          "type": "uint256"
        }
      ],
      "stateMutability": "view",
      "type": "function"
    },
    {
      "inputs": [
        {
          "internalType": "address[]",
          "name": "accounts",
          "type": "address[]"
        },
        {
          "internalType": "uint256[]",
          "name": "ids",
          "type": "uint256[]"
        }
      ],
      "name": "balanceOfBatch",
      "outputs": [
        {
          "internalType": "uint256[]",
          "name": "",
          "type": "uint256[]"
        }
      ],
      "stateMutability": "view",
      "type": "function"
    },
    {
      "inputs": [],
      "name": "boxPrice",
      "outputs": [
        {
          "internalType": "uint256",
          "name": "",
          "type": "uint256"
        }
      ],
      "stateMutability": "view",
      "type": "function"
    },
    {
      "inputs": [],
      "name": "currentSupply",
      "outputs": [
        {
          "internalType": "uint256",
          "name": "",
          "type": "uint256"
        }
      ],
      "stateMutability": "view",
      "type": "function"
    },
    {
      "inputs": [],
      "name": "getContractInfo",
      "outputs": [
        {
          "internalType": "uint256",
          "name": "price",
          "type": "uint256"
        },
        {
          "internalType": "uint256",
          "name": "totalSupply",
          "type": "uint256"
        },
        {
          "internalType": "uint256",
          "name": "currentSupplyCount",
          "type": "uint256"
        },
        {
          "internalType": "uint256",
          "name": "remainingBoxes",
          "type": "uint256"
        }
      ],
      "stateMutability": "view",
      "type": "function"
    },
    {
      "inputs": [],
      "name": "getIPPYNFT",
      "outputs": [
        {
          "internalType": "address",
          "name": "",
          "type": "address"
        }
      ],
      "stateMutability": "view",
      "type": "function"
    },
    {
      "inputs": [
        {
          "internalType": "address",
          "name": "user",
          "type": "address"
        }
      ],
      "name": "getUserBoxBalance",
      "outputs": [
        {
          "internalType": "uint256",
          "name": "",
          "type": "uint256"
        }
      ],
      "stateMutability": "view",
      "type": "function"
    },
    {
      "inputs": [],
      "name": "ippyNFT",
      "outputs": [
        {
          "internalType": "contract IIPPYNFT",
          "name": "",
          "type": "address"
        }
      ],
      "stateMutability": "view",
      "type": "function"
    },
    {
      "inputs": [
        {
          "internalType": "address",
          "name": "account",
          "type": "address"
        },
        {
          "internalType": "address",
          "name": "operator",
          "type": "address"
        }
      ],
      "name": "isApprovedForAll",
      "outputs": [
        {
          "internalType": "bool",
          "name": "",
          "type": "bool"
        }
      ],
      "stateMutability": "view",
      "type": "function"
    },
    {
      "inputs": [],
      "name": "maxTotalSupply",
      "outputs": [
        {
          "internalType": "uint256",
          "name": "",
          "type": "uint256"
        }
      ],
      "stateMutability": "view",
      "type": "function"
    },
    {
      "inputs": [
        {
          "internalType": "uint256",
          "name": "amount",
          "type": "uint256"
        }
      ],
      "name": "openBox",
      "outputs": [],
      "stateMutability": "nonpayable",
      "type": "function"
    },
    {
      "inputs": [],
      "name": "owner",
      "outputs": [
        {
          "internalType": "address",
          "name": "",
          "type": "address"
        }
      ],
      "stateMutability": "view",
      "type": "function"
    },
    {
      "inputs": [
        {
          "internalType": "uint256",
          "name": "amount",
          "type": "uint256"
        }
      ],
      "name": "purchaseBoxes",
      "outputs": [],
      "stateMutability": "payable",
      "type": "function"
    },
    {
      "inputs": [],
      "name": "renounceOwnership",
      "outputs": [],
      "stateMutability": "nonpayable",
      "type": "function"
    },
    {
      "inputs": [
        {
          "internalType": "address",
          "name": "from",
          "type": "address"
        },
        {
          "internalType": "address",
          "name": "to",
          "type": "address"
        },
        {
          "internalType": "uint256[]",
          "name": "ids",
          "type": "uint256[]"
        },
        {
          "internalType": "uint256[]",
          "name": "values",
          "type": "uint256[]"
        },
        {
          "internalType": "bytes",
          "name": "data",
          "type": "bytes"
        }
      ],
      "name": "safeBatchTransferFrom",
      "outputs": [],
      "stateMutability": "nonpayable",
      "type": "function"
    },
    {
      "inputs": [
        {
          "internalType": "address",
          "name": "from",
          "type": "address"
        },
        {
          "internalType": "address",
          "name": "to",
          "type": "address"
        },
        {
          "internalType": "uint256",
          "name": "id",
          "type": "uint256"
        },
        {
          "internalType": "uint256",
          "name": "value",
          "type": "uint256"
        },
        {
          "internalType": "bytes",
          "name": "data",
          "type": "bytes"
        }
      ],
      "name": "safeTransferFrom",
      "outputs": [],
      "stateMutability": "nonpayable",
      "type": "function"
    },
    {
      "inputs": [
        {
          "internalType": "address",
          "name": "operator",
          "type": "address"
        },
        {
          "internalType": "bool",
          "name": "approved",
          "type": "bool"
        }
      ],
      "name": "setApprovalForAll",
      "outputs": [],
      "stateMutability": "nonpayable",
      "type": "function"
    },
    {
      "inputs": [
        {
          "internalType": "uint256",
          "name": "_newPrice",
          "type": "uint256"
        }
      ],
      "name": "setBoxPrice",
      "outputs": [],
      "stateMutability": "nonpayable",
      "type": "function"
    },
    {
      "inputs": [
        {
          "internalType": "bytes4",
          "name": "interfaceId",
          "type": "bytes4"
        }
      ],
      "name": "supportsInterface",
      "outputs": [
        {
          "internalType": "bool",
          "name": "",
          "type": "bool"
        }
      ],
      "stateMutability": "view",
      "type": "function"
    },
    {
      "inputs": [
        {
          "internalType": "address",
          "name": "newOwner",
          "type": "address"
        }
      ],
      "name": "transferOwnership",
      "outputs": [],
      "stateMutability": "nonpayable",
      "type": "function"
    },
    {
      "inputs": [
        {
          "internalType": "uint256",
          "name": "tokenId",
          "type": "uint256"
        }
      ],
      "name": "uri",
      "outputs": [
        {
          "internalType": "string",
          "name": "",
          "type": "string"
        }
      ],
      "stateMutability": "pure",
      "type": "function"
    },
    {
      "inputs": [],
      "name": "withdrawFunds",
      "outputs": [],
      "stateMutability": "nonpayable",
      "type": "function"
    }
  ],
  "bytecode": "0x6080604052662386f26fc10000600655620f4240600755600060085534801561002757600080fd5b5060405161431d38038061431d83398181016040528101906100499190610277565b33604051806020016040528060008152506100698161013b60201b60201c565b50600073ffffffffffffffffffffffffffffffffffffffff168173ffffffffffffffffffffffffffffffffffffffff16036100dc5760006040517f1e4fbdf70000000000000000000000000000000000000000000000000000000081526004016100d391906102b3565b60405180910390fd5b6100eb8161014e60201b60201c565b50600160048190555080600560006101000a81548173ffffffffffffffffffffffffffffffffffffffff021916908373ffffffffffffffffffffffffffffffffffffffff160217905550506105f0565b806002908161014a919061051e565b5050565b6000600360009054906101000a900473ffffffffffffffffffffffffffffffffffffffff16905081600360006101000a81548173ffffffffffffffffffffffffffffffffffffffff021916908373ffffffffffffffffffffffffffffffffffffffff1602179055508173ffffffffffffffffffffffffffffffffffffffff168173ffffffffffffffffffffffffffffffffffffffff167f8be0079c531659141344cd1fd0a4f28419497f9722a3daafe3b4186f6b6457e060405160405180910390a35050565b600080fd5b600073ffffffffffffffffffffffffffffffffffffffff82169050919050565b600061024482610219565b9050919050565b61025481610239565b811461025f57600080fd5b50565b6000815190506102718161024b565b92915050565b60006020828403121561028d5761028c610214565b5b600061029b84828501610262565b91505092915050565b6102ad81610239565b82525050565b60006020820190506102c860008301846102a4565b92915050565b600081519050919050565b7f4e487b7100000000000000000000000000000000000000000000000000000000600052604160045260246000fd5b7f4e487b7100000000000000000000000000000000000000000000000000000000600052602260045260246000fd5b6000600282049050600182168061034f57607f821691505b60208210810361036257610361610308565b5b50919050565b60008190508160005260206000209050919050565b60006020601f8301049050919050565b600082821b905092915050565b6000600883026103ca7fffffffffffffffffffffffffffffffffffffffffffffffffffffffffffffffff8261038d565b6103d4868361038d565b95508019841693508086168417925050509392505050565b6000819050919050565b6000819050919050565b600061041b610416610411846103ec565b6103f6565b6103ec565b9050919050565b6000819050919050565b61043583610400565b61044961044182610422565b84845461039a565b825550505050565b600090565b61045e610451565b61046981848461042c565b505050565b5b8181101561048d57610482600082610456565b60018101905061046f565b5050565b601f8211156104d2576104a381610368565b6104ac8461037d565b810160208510156104bb578190505b6104cf6104c78561037d565b83018261046e565b50505b505050565b600082821c905092915050565b60006104f5600019846008026104d7565b1980831691505092915050565b600061050e83836104e4565b9150826002028217905092915050565b610527826102ce565b67ffffffffffffffff8111156105405761053f6102d9565b5b61054a8254610337565b610555828285610491565b600060209050601f8311600181146105885760008415610576578287015190505b6105808582610502565b8655506105e8565b601f19841661059686610368565b60005b828110156105be57848901518255600182019150602085019450602081019050610599565b868310156105db57848901516105d7601f8916826104e4565b8355505b6001600288020188555050505b505050505050565b613d1e806105ff6000396000f3fe6080604052600436106101d75760003560e01c80637cc1f86711610102578063e985e9c511610095578063f2fde38b11610064578063f2fde38b14610695578063f76f8d78146106be578063f7dbea3e146106e9578063fbc4454914610712576101d7565b8063e985e9c5146105d9578063eeb87d1614610616578063f1526a4514610641578063f242432a1461066c576101d7565b8063a22cb465116100d1578063a22cb46514610531578063a3f4df7e1461055a578063a648285814610585578063b1e5e2b7146105b0576101d7565b80637cc1f86714610482578063896ff2d2146104b05780638da5cb5b146104db578063911045e614610506576101d7565b80632ab4d0521161017a5780635d9008bf116101495780635d9008bf146103ea578063715018a614610415578063752ead1f1461042c578063771282f614610457576101d7565b80632ab4d0521461032e5780632eb2c2d61461035957806332963a41146103825780634e1273f4146103ad576101d7565b8063080cd1b6116101b6578063080cd1b6146102935780630e89341c146102be578063156b9939146102fb57806324600fc314610317576101d7565b8062fdd58e146101dc57806301ffc9a71461021957806306452ca214610256575b600080fd5b3480156101e857600080fd5b5061020360048036038101906101fe91906124bb565b61073d565b604051610210919061250a565b60405180910390f35b34801561022557600080fd5b50610240600480360381019061023b919061257d565b610797565b60405161024d91906125c5565b60405180910390f35b34801561026257600080fd5b5061027d600480360381019061027891906125e0565b610879565b60405161028a919061250a565b60405180910390f35b34801561029f57600080fd5b506102a861088d565b6040516102b5919061261c565b60405180910390f35b3480156102ca57600080fd5b506102e560048036038101906102e09190612637565b6108b7565b6040516102f291906126f4565b60405180910390f35b61031560048036038101906103109190612637565b6108e8565b005b34801561032357600080fd5b5061032c610aa4565b005b34801561033a57600080fd5b50610343610afc565b604051610350919061250a565b60405180910390f35b34801561036557600080fd5b50610380600480360381019061037b9190612913565b610b02565b005b34801561038e57600080fd5b50610397610baa565b6040516103a4919061250a565b60405180910390f35b3480156103b957600080fd5b506103d460048036038101906103cf9190612aa5565b610baf565b6040516103e19190612bdb565b60405180910390f35b3480156103f657600080fd5b506103ff610cb8565b60405161040c919061250a565b60405180910390f35b34801561042157600080fd5b5061042a610cbd565b005b34801561043857600080fd5b50610441610cd1565b60405161044e919061250a565b60405180910390f35b34801561046357600080fd5b5061046c610cd6565b604051610479919061250a565b60405180910390f35b34801561048e57600080fd5b50610497610cdc565b6040516104a79493929190612bfd565b60405180910390f35b3480156104bc57600080fd5b506104c5610d09565b6040516104d29190612ca1565b60405180910390f35b3480156104e757600080fd5b506104f0610d2f565b6040516104fd919061261c565b60405180910390f35b34801561051257600080fd5b5061051b610d59565b604051610528919061250a565b60405180910390f35b34801561053d57600080fd5b5061055860048036038101906105539190612ce8565b610d5e565b005b34801561056657600080fd5b5061056f610d74565b60405161057c91906126f4565b60405180910390f35b34801561059157600080fd5b5061059a610dad565b6040516105a7919061250a565b60405180910390f35b3480156105bc57600080fd5b506105d760048036038101906105d29190612637565b610db3565b005b3480156105e557600080fd5b5061060060048036038101906105fb9190612d28565b610fa9565b60405161060d91906125c5565b60405180910390f35b34801561062257600080fd5b5061062b61103d565b604051610638919061250a565b60405180910390f35b34801561064d57600080fd5b50610656611042565b604051610663919061250a565b60405180910390f35b34801561067857600080fd5b50610693600480360381019061068e9190612d68565b611047565b005b3480156106a157600080fd5b506106bc60048036038101906106b791906125e0565b6110ef565b005b3480156106ca57600080fd5b506106d3611175565b6040516106e091906126f4565b60405180910390f35b3480156106f557600080fd5b50610710600480360381019061070b9190612637565b6111ae565b005b34801561071e57600080fd5b506107276111f7565b604051610734919061250a565b60405180910390f35b600080600083815260200190815260200160002060008473ffffffffffffffffffffffffffffffffffffffff1673ffffffffffffffffffffffffffffffffffffffff16815260200190815260200160002054905092915050565b60007fd9b67a26000000000000000000000000000000000000000000000000000000007bffffffffffffffffffffffffffffffffffffffffffffffffffffffff1916827bffffffffffffffffffffffffffffffffffffffffffffffffffffffff1916148061086257507f0e89341c000000000000000000000000000000000000000000000000000000007bffffffffffffffffffffffffffffffffffffffffffffffffffffffff1916827bffffffffffffffffffffffffffffffffffffffffffffffffffffffff1916145b806108725750610871826111fc565b5b9050919050565b600061088682600161073d565b9050919050565b6000600560009054906101000a900473ffffffffffffffffffffffffffffffffffffffff16905090565b6060600182036108d0576108c9611266565b90506108e3565b6040518060200160405280600081525090505b919050565b6108f061130e565b600754816008546109019190612e2e565b1115610942576040517f08c379a000000000000000000000000000000000000000000000000000000000815260040161093990612eae565b60405180910390fd5b806006546109509190612ece565b341015610992576040517f08c379a000000000000000000000000000000000000000000000000000000000815260040161098990612f5c565b60405180910390fd5b6109ae3360018360405180602001604052806000815250611354565b80600860008282546109c09190612e2e565b925050819055503373ffffffffffffffffffffffffffffffffffffffff167f563f765c41c933a7649731114db930be8ad7c1b074e4205688672be38854d2648283600654610a0e9190612ece565b604051610a1c929190612f7c565b60405180910390a280600654610a329190612ece565b341115610a99573373ffffffffffffffffffffffffffffffffffffffff166108fc82600654610a619190612ece565b34610a6c9190612fa5565b9081150290604051600060405180830381858888f19350505050158015610a97573d6000803e3d6000fd5b505b610aa16113ed565b50565b610aac6113f7565b610ab4610d2f565b73ffffffffffffffffffffffffffffffffffffffff166108fc479081150290604051600060405180830381858888f19350505050158015610af9573d6000803e3d6000fd5b50565b60075481565b6000610b0c61147e565b90508073ffffffffffffffffffffffffffffffffffffffff168673ffffffffffffffffffffffffffffffffffffffff1614158015610b515750610b4f8682610fa9565b155b15610b955780866040517fe237d922000000000000000000000000000000000000000000000000000000008152600401610b8c929190612fd9565b60405180910390fd5b610ba28686868686611486565b505050505050565b600581565b60608151835114610bfb57815183516040517f5b059991000000000000000000000000000000000000000000000000000000008152600401610bf2929190612f7c565b60405180910390fd5b6000835167ffffffffffffffff811115610c1857610c1761271b565b5b604051908082528060200260200182016040528015610c465781602001602082028036833780820191505090505b50905060005b8451811015610cad57610c83610c6b828761157e90919063ffffffff16565b610c7e838761159290919063ffffffff16565b61073d565b828281518110610c9657610c95613002565b5b602002602001018181525050806001019050610c4c565b508091505092915050565b600281565b610cc56113f7565b610ccf60006115a6565b565b600681565b60085481565b600080600080600654600754600854600854600754610cfb9190612fa5565b935093509350935090919293565b600560009054906101000a900473ffffffffffffffffffffffffffffffffffffffff1681565b6000600360009054906101000a900473ffffffffffffffffffffffffffffffffffffffff16905090565b600381565b610d70610d6961147e565b838361166c565b5050565b6040518060400160405280601081526020017f49505059204d79737465727920426f780000000000000000000000000000000081525081565b60065481565b610dbb61130e565b60008111610dfe576040517f08c379a0000000000000000000000000000000000000000000000000000000008152600401610df59061307d565b60405180910390fd5b80610e0a33600161073d565b1015610e4b576040517f08c379a0000000000000000000000000000000000000000000000000000000008152600401610e42906130e9565b60405180910390fd5b610e57336001836117dc565b6000610e636001611883565b9050600560009054906101000a900473ffffffffffffffffffffffffffffffffffffffff1673ffffffffffffffffffffffffffffffffffffffff166340c10f1933836040518363ffffffff1660e01b8152600401610ec2929190613109565b600060405180830381600087803b158015610edc57600080fd5b505af1158015610ef0573d6000803e3d6000fd5b50505050600080821490503373ffffffffffffffffffffffffffffffffffffffff167f4969514c39ffcc58b7e619b4be3dbadf6517aaea3fe3e32983cc79460d901b3160018484604051610f469392919061316d565b60405180910390a23373ffffffffffffffffffffffffffffffffffffffff167f4cc0a9c4a99ddc700de1af2c9f916a7cbfdb71f14801ccff94061ad1ef8a804083604051610f94919061250a565b60405180910390a25050610fa66113ed565b50565b6000600160008473ffffffffffffffffffffffffffffffffffffffff1673ffffffffffffffffffffffffffffffffffffffff16815260200190815260200160002060008373ffffffffffffffffffffffffffffffffffffffff1673ffffffffffffffffffffffffffffffffffffffff16815260200190815260200160002060009054906101000a900460ff16905092915050565b600181565b600481565b600061105161147e565b90508073ffffffffffffffffffffffffffffffffffffffff168673ffffffffffffffffffffffffffffffffffffffff161415801561109657506110948682610fa9565b155b156110da5780866040517fe237d9220000000000000000000000000000000000000000000000000000000081526004016110d1929190612fd9565b60405180910390fd5b6110e786868686866118e1565b505050505050565b6110f76113f7565b600073ffffffffffffffffffffffffffffffffffffffff168173ffffffffffffffffffffffffffffffffffffffff16036111695760006040517f1e4fbdf7000000000000000000000000000000000000000000000000000000008152600401611160919061261c565b60405180910390fd5b611172816115a6565b50565b6040518060400160405280600881526020017f495050595f424f5800000000000000000000000000000000000000000000000081525081565b6111b66113f7565b806006819055507f66cbca4f3c64fecf1dcb9ce094abcf7f68c3450a1d4e3a8e917dd621edb4ebe0816040516111ec919061250a565b60405180910390a150565b600081565b60007f01ffc9a7000000000000000000000000000000000000000000000000000000007bffffffffffffffffffffffffffffffffffffffffffffffffffffffff1916827bffffffffffffffffffffffffffffffffffffffffffffffffffffffff1916149050919050565b60606000604051806101e001604052806101a98152602001613b006101a9913990506000611293826119ec565b90506000816040516020016112a8919061322c565b60405160208183030381529060405290506000816040516020016112cc91906136c2565b60405160208183030381529060405290506112e6816119ec565b6040516020016112f6919061379e565b60405160208183030381529060405294505050505090565b60026004540361134a576040517f3ee5aeb500000000000000000000000000000000000000000000000000000000815260040160405180910390fd5b6002600481905550565b600073ffffffffffffffffffffffffffffffffffffffff168473ffffffffffffffffffffffffffffffffffffffff16036113c65760006040517f57f447ce0000000000000000000000000000000000000000000000000000000081526004016113bd919061261c565b60405180910390fd5b6000806113d38585611a19565b915091506113e5600087848487611a49565b505050505050565b6001600481905550565b6113ff61147e565b73ffffffffffffffffffffffffffffffffffffffff1661141d610d2f565b73ffffffffffffffffffffffffffffffffffffffff161461147c5761144061147e565b6040517f118cdaa7000000000000000000000000000000000000000000000000000000008152600401611473919061261c565b60405180910390fd5b565b600033905090565b600073ffffffffffffffffffffffffffffffffffffffff168473ffffffffffffffffffffffffffffffffffffffff16036114f85760006040517f57f447ce0000000000000000000000000000000000000000000000000000000081526004016114ef919061261c565b60405180910390fd5b600073ffffffffffffffffffffffffffffffffffffffff168573ffffffffffffffffffffffffffffffffffffffff160361156a5760006040517f01a83514000000000000000000000000000000000000000000000000000000008152600401611561919061261c565b60405180910390fd5b6115778585858585611a49565b5050505050565b600060208202602084010151905092915050565b600060208202602084010151905092915050565b6000600360009054906101000a900473ffffffffffffffffffffffffffffffffffffffff16905081600360006101000a81548173ffffffffffffffffffffffffffffffffffffffff021916908373ffffffffffffffffffffffffffffffffffffffff1602179055508173ffffffffffffffffffffffffffffffffffffffff168173ffffffffffffffffffffffffffffffffffffffff167f8be0079c531659141344cd1fd0a4f28419497f9722a3daafe3b4186f6b6457e060405160405180910390a35050565b600073ffffffffffffffffffffffffffffffffffffffff168273ffffffffffffffffffffffffffffffffffffffff16036116de5760006040517fced3e1000000000000000000000000000000000000000000000000000000000081526004016116d5919061261c565b60405180910390fd5b80600160008573ffffffffffffffffffffffffffffffffffffffff1673ffffffffffffffffffffffffffffffffffffffff16815260200190815260200160002060008473ffffffffffffffffffffffffffffffffffffffff1673ffffffffffffffffffffffffffffffffffffffff16815260200190815260200160002060006101000a81548160ff0219169083151502179055508173ffffffffffffffffffffffffffffffffffffffff168373ffffffffffffffffffffffffffffffffffffffff167f17307eab39ab6107e8899845ad3d59bd9653f200f220920489ca2b5937696c31836040516117cf91906125c5565b60405180910390a3505050565b600073ffffffffffffffffffffffffffffffffffffffff168373ffffffffffffffffffffffffffffffffffffffff160361184e5760006040517f01a83514000000000000000000000000000000000000000000000000000000008152600401611845919061261c565b60405180910390fd5b60008061185b8484611a19565b9150915061187c856000848460405180602001604052806000815250611a49565b5050505050565b600080424433433a876040516020016118a196959493929190613829565b6040516020818303038152906040528051906020012060001c9050600062989680826118cd91906138c8565b90506118d881611afb565b92505050919050565b600073ffffffffffffffffffffffffffffffffffffffff168473ffffffffffffffffffffffffffffffffffffffff16036119535760006040517f57f447ce00000000000000000000000000000000000000000000000000000000815260040161194a919061261c565b60405180910390fd5b600073ffffffffffffffffffffffffffffffffffffffff168573ffffffffffffffffffffffffffffffffffffffff16036119c55760006040517f01a835140000000000000000000000000000000000000000000000000000000081526004016119bc919061261c565b60405180910390fd5b6000806119d28585611a19565b915091506119e38787848487611a49565b50505050505050565b6060611a1282604051806060016040528060408152602001613ca9604091396001611b6f565b9050919050565b60608060405191506001825283602083015260408201905060018152826020820152604081016040529250929050565b611a5585858585611d03565b600073ffffffffffffffffffffffffffffffffffffffff168473ffffffffffffffffffffffffffffffffffffffff1614611af4576000611a9361147e565b90506001845103611ae3576000611ab460008661159290919063ffffffff16565b90506000611acc60008661159290919063ffffffff16565b9050611adc8389898585896120ab565b5050611af2565b611af181878787878761225f565b5b505b5050505050565b60006001821015611b0f5760009050611b6a565b6000600183611b1e9190612fa5565b905060006006600162989680611b349190612fa5565b611b3e91906138f9565b82611b4991906138f9565b905060068110611b5857600590505b806001611b659190612e2e565b925050505b919050565b60606000845103611b9157604051806020016040528060008152509050611cfc565b600082611bc3576003600286516004611baa9190612ece565b611bb49190612e2e565b611bbe91906138f9565b611bea565b600360028651611bd39190612e2e565b611bdd91906138f9565b6004611be99190612ece565b5b905060008167ffffffffffffffff811115611c0857611c0761271b565b5b6040519080825280601f01601f191660200182016040528015611c3a5781602001600182028036833780820191505090505b50905060018501602082018788518901602081018051600082525b82841015611cb0576003840193508351603f8160121c168701518653600186019550603f81600c1c168701518653600186019550603f8160061c168701518653600186019550603f8116870151865360018601955050611c55565b8082528915611cf05760038c510660018114611cd35760028114611ce657611cee565b603d6001870353603d6002870353611cee565b603d60018703535b505b50505050505080925050505b9392505050565b8051825114611d4d57815181516040517f5b059991000000000000000000000000000000000000000000000000000000008152600401611d44929190612f7c565b60405180910390fd5b6000611d5761147e565b905060005b8351811015611f66576000611d7a828661159290919063ffffffff16565b90506000611d91838661159290919063ffffffff16565b9050600073ffffffffffffffffffffffffffffffffffffffff168873ffffffffffffffffffffffffffffffffffffffff1614611ebe57600080600084815260200190815260200160002060008a73ffffffffffffffffffffffffffffffffffffffff1673ffffffffffffffffffffffffffffffffffffffff16815260200190815260200160002054905081811015611e6657888183856040517f03dee4c5000000000000000000000000000000000000000000000000000000008152600401611e5d949392919061392a565b60405180910390fd5b81810360008085815260200190815260200160002060008b73ffffffffffffffffffffffffffffffffffffffff1673ffffffffffffffffffffffffffffffffffffffff16815260200190815260200160002081905550505b600073ffffffffffffffffffffffffffffffffffffffff168773ffffffffffffffffffffffffffffffffffffffff1614611f59578060008084815260200190815260200160002060008973ffffffffffffffffffffffffffffffffffffffff1673ffffffffffffffffffffffffffffffffffffffff1681526020019081526020016000206000828254611f519190612e2e565b925050819055505b5050806001019050611d5c565b506001835103612025576000611f8660008561159290919063ffffffff16565b90506000611f9e60008561159290919063ffffffff16565b90508573ffffffffffffffffffffffffffffffffffffffff168773ffffffffffffffffffffffffffffffffffffffff168473ffffffffffffffffffffffffffffffffffffffff167fc3d58168c5ae7397731d063d5bbf3d657854427343f4c083240f7aacaa2d0f628585604051612016929190612f7c565b60405180910390a450506120a4565b8373ffffffffffffffffffffffffffffffffffffffff168573ffffffffffffffffffffffffffffffffffffffff168273ffffffffffffffffffffffffffffffffffffffff167f4a39dc06d4c0dbc64b70af90fd698a233a518aa5d07e595d983b8c0526c8f7fb868660405161209b92919061396f565b60405180910390a45b5050505050565b60008473ffffffffffffffffffffffffffffffffffffffff163b1115612257578373ffffffffffffffffffffffffffffffffffffffff1663f23a6e6187878686866040518663ffffffff1660e01b815260040161210c9594939291906139fb565b6020604051808303816000875af192505050801561214857506040513d601f19601f820116820180604052508101906121459190613a6a565b60015b6121cc573d8060008114612178576040519150601f19603f3d011682016040523d82523d6000602084013e61217d565b606091505b5060008151036121c457846040517f57f447ce0000000000000000000000000000000000000000000000000000000081526004016121bb919061261c565b60405180910390fd5b805181602001fd5b63f23a6e6160e01b7bffffffffffffffffffffffffffffffffffffffffffffffffffffffff1916817bffffffffffffffffffffffffffffffffffffffffffffffffffffffff19161461225557846040517f57f447ce00000000000000000000000000000000000000000000000000000000815260040161224c919061261c565b60405180910390fd5b505b505050505050565b60008473ffffffffffffffffffffffffffffffffffffffff163b111561240b578373ffffffffffffffffffffffffffffffffffffffff1663bc197c8187878686866040518663ffffffff1660e01b81526004016122c0959493929190613a97565b6020604051808303816000875af19250505080156122fc57506040513d601f19601f820116820180604052508101906122f99190613a6a565b60015b612380573d806000811461232c576040519150601f19603f3d011682016040523d82523d6000602084013e612331565b606091505b50600081510361237857846040517f57f447ce00000000000000000000000000000000000000000000000000000000815260040161236f919061261c565b60405180910390fd5b805181602001fd5b63bc197c8160e01b7bffffffffffffffffffffffffffffffffffffffffffffffffffffffff1916817bffffffffffffffffffffffffffffffffffffffffffffffffffffffff19161461240957846040517f57f447ce000000000000000000000000000000000000000000000000000000008152600401612400919061261c565b60405180910390fd5b505b505050505050565b6000604051905090565b600080fd5b600080fd5b600073ffffffffffffffffffffffffffffffffffffffff82169050919050565b600061245282612427565b9050919050565b61246281612447565b811461246d57600080fd5b50565b60008135905061247f81612459565b92915050565b6000819050919050565b61249881612485565b81146124a357600080fd5b50565b6000813590506124b58161248f565b92915050565b600080604083850312156124d2576124d161241d565b5b60006124e085828601612470565b92505060206124f1858286016124a6565b9150509250929050565b61250481612485565b82525050565b600060208201905061251f60008301846124fb565b92915050565b60007fffffffff0000000000000000000000000000000000000000000000000000000082169050919050565b61255a81612525565b811461256557600080fd5b50565b60008135905061257781612551565b92915050565b6000602082840312156125935761259261241d565b5b60006125a184828501612568565b91505092915050565b60008115159050919050565b6125bf816125aa565b82525050565b60006020820190506125da60008301846125b6565b92915050565b6000602082840312156125f6576125f561241d565b5b600061260484828501612470565b91505092915050565b61261681612447565b82525050565b6000602082019050612631600083018461260d565b92915050565b60006020828403121561264d5761264c61241d565b5b600061265b848285016124a6565b91505092915050565b600081519050919050565b600082825260208201905092915050565b60005b8381101561269e578082015181840152602081019050612683565b60008484015250505050565b6000601f19601f8301169050919050565b60006126c682612664565b6126d0818561266f565b93506126e0818560208601612680565b6126e9816126aa565b840191505092915050565b6000602082019050818103600083015261270e81846126bb565b905092915050565b600080fd5b7f4e487b7100000000000000000000000000000000000000000000000000000000600052604160045260246000fd5b612753826126aa565b810181811067ffffffffffffffff821117156127725761277161271b565b5b80604052505050565b6000612785612413565b9050612791828261274a565b919050565b600067ffffffffffffffff8211156127b1576127b061271b565b5b602082029050602081019050919050565b600080fd5b60006127da6127d584612796565b61277b565b905080838252602082019050602084028301858111156127fd576127fc6127c2565b5b835b81811015612826578061281288826124a6565b8452602084019350506020810190506127ff565b5050509392505050565b600082601f83011261284557612844612716565b5b81356128558482602086016127c7565b91505092915050565b600080fd5b600067ffffffffffffffff82111561287e5761287d61271b565b5b612887826126aa565b9050602081019050919050565b82818337600083830152505050565b60006128b66128b184612863565b61277b565b9050828152602081018484840111156128d2576128d161285e565b5b6128dd848285612894565b509392505050565b600082601f8301126128fa576128f9612716565b5b813561290a8482602086016128a3565b91505092915050565b600080600080600060a0868803121561292f5761292e61241d565b5b600061293d88828901612470565b955050602061294e88828901612470565b945050604086013567ffffffffffffffff81111561296f5761296e612422565b5b61297b88828901612830565b935050606086013567ffffffffffffffff81111561299c5761299b612422565b5b6129a888828901612830565b925050608086013567ffffffffffffffff8111156129c9576129c8612422565b5b6129d5888289016128e5565b9150509295509295909350565b600067ffffffffffffffff8211156129fd576129fc61271b565b5b602082029050602081019050919050565b6000612a21612a1c846129e2565b61277b565b90508083825260208201905060208402830185811115612a4457612a436127c2565b5b835b81811015612a6d5780612a598882612470565b845260208401935050602081019050612a46565b5050509392505050565b600082601f830112612a8c57612a8b612716565b5b8135612a9c848260208601612a0e565b91505092915050565b60008060408385031215612abc57612abb61241d565b5b600083013567ffffffffffffffff811115612ada57612ad9612422565b5b612ae685828601612a77565b925050602083013567ffffffffffffffff811115612b0757612b06612422565b5b612b1385828601612830565b9150509250929050565b600081519050919050565b600082825260208201905092915050565b6000819050602082019050919050565b612b5281612485565b82525050565b6000612b648383612b49565b60208301905092915050565b6000602082019050919050565b6000612b8882612b1d565b612b928185612b28565b9350612b9d83612b39565b8060005b83811015612bce578151612bb58882612b58565b9750612bc083612b70565b925050600181019050612ba1565b5085935050505092915050565b60006020820190508181036000830152612bf58184612b7d565b905092915050565b6000608082019050612c1260008301876124fb565b612c1f60208301866124fb565b612c2c60408301856124fb565b612c3960608301846124fb565b95945050505050565b6000819050919050565b6000612c67612c62612c5d84612427565b612c42565b612427565b9050919050565b6000612c7982612c4c565b9050919050565b6000612c8b82612c6e565b9050919050565b612c9b81612c80565b82525050565b6000602082019050612cb66000830184612c92565b92915050565b612cc5816125aa565b8114612cd057600080fd5b50565b600081359050612ce281612cbc565b92915050565b60008060408385031215612cff57612cfe61241d565b5b6000612d0d85828601612470565b9250506020612d1e85828601612cd3565b9150509250929050565b60008060408385031215612d3f57612d3e61241d565b5b6000612d4d85828601612470565b9250506020612d5e85828601612470565b9150509250929050565b600080600080600060a08688031215612d8457612d8361241d565b5b6000612d9288828901612470565b9550506020612da388828901612470565b9450506040612db4888289016124a6565b9350506060612dc5888289016124a6565b925050608086013567ffffffffffffffff811115612de657612de5612422565b5b612df2888289016128e5565b9150509295509295909350565b7f4e487b7100000000000000000000000000000000000000000000000000000000600052601160045260246000fd5b6000612e3982612485565b9150612e4483612485565b9250828201905080821115612e5c57612e5b612dff565b5b92915050565b7f45786365656473206d617820737570706c790000000000000000000000000000600082015250565b6000612e9860128361266f565b9150612ea382612e62565b602082019050919050565b60006020820190508181036000830152612ec781612e8b565b9050919050565b6000612ed982612485565b9150612ee483612485565b9250828202612ef281612485565b91508282048414831517612f0957612f08612dff565b5b5092915050565b7f496e73756666696369656e74207061796d656e74000000000000000000000000600082015250565b6000612f4660148361266f565b9150612f5182612f10565b602082019050919050565b60006020820190508181036000830152612f7581612f39565b9050919050565b6000604082019050612f9160008301856124fb565b612f9e60208301846124fb565b9392505050565b6000612fb082612485565b9150612fbb83612485565b9250828203905081811115612fd357612fd2612dff565b5b92915050565b6000604082019050612fee600083018561260d565b612ffb602083018461260d565b9392505050565b7f4e487b7100000000000000000000000000000000000000000000000000000000600052603260045260246000fd5b7f416d6f756e74206d7573742062652067726561746572207468616e2030000000600082015250565b6000613067601d8361266f565b915061307282613031565b602082019050919050565b600060208201905081810360008301526130968161305a565b9050919050565b7f496e73756666696369656e7420626f7865730000000000000000000000000000600082015250565b60006130d360128361266f565b91506130de8261309d565b602082019050919050565b60006020820190508181036000830152613102816130c6565b9050919050565b600060408201905061311e600083018561260d565b61312b60208301846124fb565b9392505050565b6000819050919050565b600061315761315261314d84613132565b612c42565b612485565b9050919050565b6131678161313c565b82525050565b6000606082019050613182600083018661315e565b61318f60208301856124fb565b61319c60408301846125b6565b949350505050565b600081905092915050565b7f646174613a696d6167652f7376672b786d6c3b6261736536342c000000000000600082015250565b60006131e5601a836131a4565b91506131f0826131af565b601a82019050919050565b600061320682612664565b61321081856131a4565b9350613220818560208601612680565b80840191505092915050565b6000613237826131d8565b915061324382846131fb565b915081905092915050565b7f7b226e616d65223a202249505059204d79737465727920426f78222c00000000600082015250565b6000613284601c836131a4565b915061328f8261324e565b601c82019050919050565b7f226465736372697074696f6e223a202241206d7973746572696f757320626c6960008201527f6e6420626f7820636f6e7461696e696e67206f6e65206f66203720706f73736960208201527f626c652049505059204e4654732e204561636820626f7820686f6c647320746860408201527f6520706f74656e7469616c20666f7220696e6372656469626c6520646973636f60608201527f76657269657321222c0000000000000000000000000000000000000000000000608082015250565b60006133686089836131a4565b91506133738261329a565b608982019050919050565b7f22696d616765223a202200000000000000000000000000000000000000000000600082015250565b60006133b4600a836131a4565b91506133bf8261337e565b600a82019050919050565b7f222c000000000000000000000000000000000000000000000000000000000000600082015250565b60006134006002836131a4565b915061340b826133ca565b600282019050919050565b7f226261636b67726f756e645f636f6c6f72223a2022463043304341222c000000600082015250565b600061344c601d836131a4565b915061345782613416565b601d82019050919050565b7f2261747472696275746573223a205b0000000000000000000000000000000000600082015250565b6000613498600f836131a4565b91506134a382613462565b600f82019050919050565b7f7b2274726169745f74797065223a202254797065222c202276616c7565223a2060008201527f224d79737465727920426f78227d2c0000000000000000000000000000000000602082015250565b600061350a602f836131a4565b9150613515826134ae565b602f82019050919050565b7f7b2274726169745f74797065223a2022537461747573222c202276616c75652260008201527f3a2022556e6f70656e6564227d2c000000000000000000000000000000000000602082015250565b600061357c602e836131a4565b915061358782613520565b602e82019050919050565b7f7b2274726169745f74797065223a202248696464656e204e4654204368616e6360008201527f65222c202276616c7565223a2022302e3030303125227d2c0000000000000000602082015250565b60006135ee6038836131a4565b91506135f982613592565b603882019050919050565b7f7b2274726169745f74797065223a20225374616e64617264204e46542043686160008201527f6e6365222c202276616c7565223a202239392e3939393925227d000000000000602082015250565b6000613660603a836131a4565b915061366b82613604565b603a82019050919050565b7f5d7d000000000000000000000000000000000000000000000000000000000000600082015250565b60006136ac6002836131a4565b91506136b782613676565b600282019050919050565b60006136cd82613277565b91506136d88261335b565b91506136e3826133a7565b91506136ef82846131fb565b91506136fa826133f3565b91506137058261343f565b91506137108261348b565b915061371b826134fd565b91506137268261356f565b9150613731826135e1565b915061373c82613653565b91506137478261369f565b915081905092915050565b7f646174613a6170706c69636174696f6e2f6a736f6e3b6261736536342c000000600082015250565b6000613788601d836131a4565b915061379382613752565b601d82019050919050565b60006137a98261377b565b91506137b582846131fb565b915081905092915050565b6000819050919050565b6137db6137d682612485565b6137c0565b82525050565b60008160601b9050919050565b60006137f9826137e1565b9050919050565b600061380b826137ee565b9050919050565b61382361381e82612447565b613800565b82525050565b600061383582896137ca565b60208201915061384582886137ca565b6020820191506138558287613812565b60148201915061386582866137ca565b60208201915061387582856137ca565b60208201915061388582846137ca565b602082019150819050979650505050505050565b7f4e487b7100000000000000000000000000000000000000000000000000000000600052601260045260246000fd5b60006138d382612485565b91506138de83612485565b9250826138ee576138ed613899565b5b828206905092915050565b600061390482612485565b915061390f83612485565b92508261391f5761391e613899565b5b828204905092915050565b600060808201905061393f600083018761260d565b61394c60208301866124fb565b61395960408301856124fb565b61396660608301846124fb565b95945050505050565b600060408201905081810360008301526139898185612b7d565b9050818103602083015261399d8184612b7d565b90509392505050565b600081519050919050565b600082825260208201905092915050565b60006139cd826139a6565b6139d781856139b1565b93506139e7818560208601612680565b6139f0816126aa565b840191505092915050565b600060a082019050613a10600083018861260d565b613a1d602083018761260d565b613a2a60408301866124fb565b613a3760608301856124fb565b8181036080830152613a4981846139c2565b90509695505050505050565b600081519050613a6481612551565b92915050565b600060208284031215613a8057613a7f61241d565b5b6000613a8e84828501613a55565b91505092915050565b600060a082019050613aac600083018861260d565b613ab9602083018761260d565b8181036040830152613acb8186612b7d565b90508181036060830152613adf8185612b7d565b90508181036080830152613af381846139c2565b9050969550505050505056fe3c73766720786d6c6e733d22687474703a2f2f7777772e77332e6f72672f323030302f737667222077696474683d2231383822206865696768743d22313838222076696577426f783d223020302031383820313838222066696c6c3d226e6f6e65223e3c636972636c652063783d223934222063793d2239342220723d2239302e35222066696c6c3d2275726c28237061696e74305f6c696e6561725f36365f352922207374726f6b653d222336333430343822207374726f6b652d77696474683d2237222f3e3c646566733e3c6c696e6561724772616469656e742069643d227061696e74305f6c696e6561725f36365f35222078313d223135322e343635222079313d22322e3335303938652d3036222078323d2233352e35333533222079323d2231383822206772616469656e74556e6974733d227573657253706163654f6e557365223e3c73746f702073746f702d636f6c6f723d2223464546334546222f3e3c73746f70206f66667365743d2231222073746f702d636f6c6f723d2223463043304341222f3e3c2f6c696e6561724772616469656e743e3c2f646566733e3c2f7376673e4142434445464748494a4b4c4d4e4f505152535455565758595a6162636465666768696a6b6c6d6e6f707172737475767778797a303132333435363738392b2fa26469706673582212204dc6904bef7d0e9cd46afbd7b05fd9678060d4a8413be9ac9408f6accc05072b64736f6c634300081c0033",
  "linkReferences": {},
  "deployedLinkReferences": {}
}